:100000000C9462000C948A000C948A000C948A0070
:100010000C948A000C948A000C948A000C948A0038
:100020000C948A000C948A000C948A000C948A0028
:100030000C948A000C948F0E0C948A000C948A0005
:100040000C94450E0C948A000C94130E0C94ED0D38
:100050000C948A000C948A000C948A000C948A00F8
:100060000C948A000C948A000000000024002700F1
:100070002A0000000000250028002B0000000000DE
:1000800023002600290004040404040404040202DA
:100090000202020203030303030301020408102007
:1000A0004080010204081020010204081020000012
:1000B0000008000201000003040700000000000027
:1000C0000000B60E11241FBECFEFD8E0DEBFCDBFBB
:1000D00026E0AAE8B1E001C01D92AF37B207E1F710
:1000E00011E0A0E0B1E0E8EAF8E302C005900D926B
:1000F000AA38B107D9F710E0C2E6D0E004C02197D2
:10010000FE010E94451CC136D107C9F70E945F0F4E
:100110000C94521C0C940000AC011092C8039091F6
:10012000180680911706FA01BF01641B750B209118
:10013000C80330813093C803931304C0921302C0E4
:100140001092C8033081311104C0921721F0CB0105
:1001500008953817D1F33196E7CF8091D40290916A
:10016000D502A091D602B091D7020196A11DB11D72
:100170008093D4029093D502A093D602B093D70275
:100180008091040390910503A0910603B0910703A9
:100190000196A11DB11D8093040390930503A093C4
:1001A0000603B09307038091000390910103A0918F
:1001B0000203B09103030196A11DB11D80930003BA
:1001C00090930103A0930203B09303038091E6028E
:1001D0009091E702A091E802B091E9020196A11D79
:1001E000B11D8093E6029093E702A093E802B093DA
:1001F000E90280910C0390910D03A0910E03B09140
:100200000F030196A11DB11D80930C0390930D0364
:10021000A0930E03B0930F038091100390911103EC
:10022000A0911203B09113030196A11DB11D8093FB
:10023000100390931103A0931203B09313038091C2
:10024000EA029091EB02A091EC02B091ED020196CE
:10025000A11DB11D8093EA029093EB02A093EC02E2
:10026000B093ED028091F2029091F302A091F4021A
:10027000B091F5020196A11DB11D8093F2029093F9
:10028000F302A093F402B093F5028091FA029091E8
:10029000FB02A091FC02B091FD020196A11DB11DCF
:1002A0008093FA029093FB02A093FC02B093FD02AC
:1002B0008091080390910903A0910A03B0910B0368
:1002C0000196A11DB11D8093080390930903A0938B
:1002D0000A03B0930B0380918A01882359F180911E
:1002E00094019091950101968C3391052CF4909393
:1002F00095018093940108951092950110929401B4
:10030000809192019091930101968C3391052CF488
:10031000909393018093920108951092930110920B
:100320009201809190019091910101969093910199
:10033000809390010895DC01ED91FC910190F08192
:10034000E02D0994AF92BF92CF92DF92EF92FF928D
:100350000F931F93CF93DF936C017B018B01040FED
:10036000151FEB015E01AE18BF08C017D10759F089
:100370006991D601ED91FC910190F081E02DC601CB
:100380000995892B79F7C501DF91CF911F910F91C5
:10039000FF90EF90DF90CF90BF90AF900895FC0159
:1003A000538D448D252F30E0842F90E0821B930BDA
:1003B000541710F0CF96089501970895FC01918D80
:1003C000828D981761F0A28DAE0FBF2FB11D5D9683
:1003D0008C91928D9F5F9F73928F90E008958FEF25
:1003E0009FEF0895FC01918D828D981731F0828DD9
:1003F000E80FF11D858D90E008958FEF9FEF089530
:10040000FC01918D228D892F90E0805C9F4F821B93
:1004100091098F739927089586E293E00E94000264
:1004200021E0892B09F420E0822F089580E090E0FC
:10043000892B29F00E940C0281110C940000089570
:10044000FC01A48DA80FB92FB11DA35ABF4F2C9149
:10045000848D90E001968F739927848FA689B78940
:100460002C93A089B1898C91837080648C93938D37
:10047000848D981306C00288F389E02D80818F7DDA
:1004800080830895EF92FF920F931F93CF93DF9392
:10049000EC0181E0888F9B8D8C8D98131AC0E889C0
:1004A000F989808185FF15C09FB7F894EE89FF898F
:1004B0006083E889F98980818370806480839FBF2D
:1004C00081E090E0DF91CF911F910F91FF90EF902D
:1004D0000895F62E0B8D10E00F5F1F4F0F7311273D
:1004E000E02E8C8D8E110CC00FB607FCFACFE88978
:1004F000F989808185FFF5CFCE010E942002F1CFDE
:10050000EB8DEC0FFD2FF11DE35AFF4FF0829FB7EB
:10051000F8940B8FEA89FB8980818062CFCFCF93DB
:10052000DF93EC01888D8823B9F0AA89BB89E8891B
:10053000F9898C9185FD03C0808186FD0DC00FB6C1
:1005400007FCF7CF8C9185FFF2CF808185FFEDCF3F
:10055000CE010E942002E9CFDF91CF910895833030
:1005600081F028F4813099F08230A9F00895873025
:10057000A9F08830C9F08430B1F4809180008F7D7B
:1005800003C0809180008F7780938000089584B5A8
:100590008F7784BD089584B58F7DFBCF8091B000A7
:1005A0008F778093B00008958091B0008F7DF9CF50
:1005B000CF93DF93282F30E0F901E255FF4F84916C
:1005C000F901E656FF4FD491F901EA57FF4FC49164
:1005D000CC23A1F081110E94AF02EC2FF0E0EE0FCE
:1005E000FF1FE458FF4FA591B491EC91ED2381E0FA
:1005F00090E009F480E0DF91CF91089580E090E0F1
:10060000FACF1F93CF93DF93282F30E0F901E25503
:10061000FF4F8491F901E656FF4FD491F901EA5753
:10062000FF4FC491CC23A9F0162F81110E94AF0275
:10063000EC2FF0E0EE0FFF1FEE58FF4FA591B491A5
:100640008FB7F894EC91111108C0D095DE23DC939C
:100650008FBFDF91CF911F910895DE2BF8CFCF93FD
:10066000DF9390E0FC01E656FF4F24918A579F4F9D
:10067000FC0184918823C9F090E0880F991FFC0148
:10068000E859FF4FA591B491FC01EE58FF4FC59179
:10069000D49161110DC09FB7F8948C91209582235D
:1006A0008C938881282328839FBFDF91CF91089561
:1006B000623051F49FB7F8943C91822F8095832348
:1006C0008C93E8812E2BEFCF8FB7F894EC912E2BE3
:1006D0002C938FBFEACF2091040190E4299F9001D1
:1006E0001124822B80937C0080917A008064809317
:1006F0007A0080917A0086FDFCCF809178009091FD
:1007000079000895CF93DF93E8EDF2E082E092E084
:10071000C0ECD2E04CEA52E01192DC011D921D9235
:100720001D921D92CD011992199219921992DA0116
:100730001D921D921D921D92AD01B2E0ED3DFB0791
:1007400059F7DF91CF9108959093FF028093FE02B5
:100750000197C9F480E090E0ACE8B2EC80931A0312
:1007600090931B03A0931C03B0931D0380E090E0C3
:10077000A0E2B2E480931E0390931F03A093200392
:10078000B0932103089580E090E0A0EAB1E4809363
:100790001A0390931B03A0931C03B0931D0380E0E6
:1007A00090E0A8ECB3E4E6CFCF93DF9390932301DE
:1007B0008093220120910102211114C018161906FC
:1007C00034F460E08BE0DF91CF910C942F03EC01C7
:1007D00061E08BE00E942F036C2F8BE0DF91CF91C3
:1007E0000C940103DF91CF910895609116017091EF
:1007F000170180911801909119012091FE0230910A
:10080000FF022130310539F52091E302222319F14D
:10081000609326017093270180932801909329010A
:10082000209100013091010140910201509103019A
:1008300060912601709127018091280190912901F2
:100840000E94711B609326017093270180932801F9
:1008500090932901089521E53AED4BEB5FE30E9467
:10086000161A2FE834EE4DE051E40E94041BD0CF5D
:100870008F929F92AF92BF92CF92DF92EF92FF92B0
:100880000F931F93CF93DF934B017C01A0901E0326
:10089000B0901F03C0902003D090210300911A0351
:1008A00010911B03D0911C03C0911D039B01AC014F
:1008B000B8018D2F9C2F0E94191C18161CF0840162
:1008C000DE2DCF2D9401A701B501C6010E94B019FC
:1008D00087FF03C08501DC2DCD2DC801AD2FBC2FB6
:1008E0008093220390932303A0932403B0932503C2
:1008F0008091E0029091E1020E9709F05FC086E6D8
:1009000096E6A6EEBFE380931E0190931F01A0938D
:100910002001B09321018CEB94E7A3E1BCE3809329
:100920001A0190931B01A0931C01B0931D0180E05C
:1009300090E0A0E8B0E48093D8019093D901A0930F
:10094000DA01B093DB011092EE01809126019091C3
:100950002701A0912801B09129018093E001909393
:10096000E101A093E201B093E30180E89FE4A3ECEE
:10097000B7EC8093DC019093DD01A093DE01B0938E
:10098000DF018091090190910A01A0910B01B091C2
:100990000C018093000190930101A0930201B09398
:1009A0000301DF91CF911F910F91FF90EF90DF90A6
:1009B000CF90BF90AF909F908F90089580E090E08F
:1009C000A6E9B3E480931E0190931F01A093200138
:1009D000B093210110921A0110921B0110921C0178
:1009E00010921D011092EE01CCCF81E090E00E94A8
:1009F000D40381E08093E2028093E3021092E40248
:100A00001092E50208950E94820390E080E00E9427
:100A1000A40381E090E00E94D4031092E1021092BE
:100A2000E0021092E3021092E20260917E02709165
:100A30007F02072E000C880B990B0E94B7190C94AB
:100A400038048F929F92AF92BF92CF92DF92EF9233
:100A5000FF920F931F93CF93DF9388E492E066E0B9
:100A600070E0FC0171836083CAE7D2E004E010E02B
:100A700019830883A6E1B2E011961C921E9226E922
:100A8000822E21E0922EF4011182108221E030E0CA
:100A9000FC01338322831B821A8213961C921E92BE
:100AA0001297F40113821282FC011582148242E330
:100AB000C42ED12CDD82CC8253E6E52EF12C159686
:100AC000FC92EE921497F4011582148242E050E0F9
:100AD000FC01578346835F834E8317961C921E92B8
:100AE0001697F40117821682FC0151874087E7E0D0
:100AF000AE2EB12CB986A88619961C921E92189714
:100B0000F40111861086FC01338722873B872A87F0
:100B10001B961C921E921A97F40113861286FC01F2
:100B200015861486DD86CC861D96FC92EE921C9767
:100B3000F40115861486FC01378726871F861E86DA
:100B40001F963C932E931E97F40117861686FC0180
:100B5000118A108AFBEFEF2EFF24FA94F98AE88AB3
:100B600051963C932E935097F401118A108AE3E03A
:100B7000EE2EF12CFC01F38AE28A1B8A1A8AFEE12E
:100B8000CF2ED12C5396DC92CE925297F401138A39
:100B9000128AFC01358B248B3D8B2C8B55963C9314
:100BA0002E935497F401158A148AFC01578B468BB7
:100BB000FF8AEE8A57961C921E925697F401178A66
:100BC000168AFC01F18EE08E198E188E45E050E0F9
:100BD00059965C934E935897F401118E108EFC0138
:100BE000338F228F1B8E1A8E5B961C921E925A9701
:100BF000F401138E128EFC01158E148EECE3CE2EB2
:100C0000D12CDD8ECC8E5D963C932E935C97F401B7
:100C1000158E148EFC01178F068F3F8F2E8F5F96D7
:100C20001C921E925E97F401178E168EFC01F1A2A3
:100C3000E0A239A328A32AE530E091963C932E93B5
:100C40009097F40111A210A221E02093240121E148
:100C500030E03093E1022093E002FC0153A342A371
:100C60007BA36AA393961C921E929297F40113A2FF
:100C700012A260E070E088E492E4DF91CF911F91CE
:100C80000F91FF90EF90DF90CF90BF90AF909F902B
:100C90008F900C9438040F931F93CF93DF93809120
:100CA0000C06882309F449C0D0E0C0E0813029F463
:100CB00082E080930C06CCECD3E080910D06882373
:100CC00041F1209721F4C0911106D09112068E01B6
:100CD000CE010E948C00892B29F42196F801808195
:100CE0008111F5CFF8018081882321F1C8010E948C
:100CF0008C00F801E80FF91F8081882311F0108221
:100D00003196F0931206E0931106109310060093AB
:100D10000F0680910F0690911006009771F021E068
:100D200020930D0620930E06DF91CF911F910F9116
:100D30000C948A1910E000E0E8CF10920E0690E0C3
:100D400080E0DF91CF911F910F910895FB010190F9
:100D50000020E9F73197AF01461B570BDC01ED91FD
:100D6000FC910280F381E02D09948091C3038823D4
:100D7000A1F06091160680911406909115060E94CC
:100D80009B018091CB03882341F060E471E0809166
:100D90001406909115060E94A6061092CA0310929E
:100DA000C30380E008958F929F92AF92BF92EF921B
:100DB000FF920F931F93CF93DF93CDB7DEB7A19729
:100DC0000FB6F894DEBF0FBECDBF7C01FA01CB0198
:100DD00019A2223008F42AE08E010F5D1F4F822EE7
:100DE000912CB12CA12CBF01A50194010E94231CC0
:100DF000F901CA016A300CF5605DD8016E938D016E
:100E0000232B242B252B79F790E080E0109721F0FD
:100E1000BD01C7010E94A606A1960FB6F894DEBFD9
:100E20000FBECDBFDF91CF911F910F91FF90EF903B
:100E3000BF90AF909F908F900895695CDECFCF9266
:100E4000DF92EF92FF922091C3032223B9F06B014E
:100E50007C016091170680911406909115060E94FE
:100E60009B012AE0B701A601809114069091150616
:100E7000FF90EF90DF90CF900C94D306FF90EF900F
:100E8000DF90CF9008959091C303911110C091E02D
:100E90009093C3039093CA03482F50E070E060E042
:100EA0002AE080911406909115060C94D3060895BB
:100EB000CF92DF92EF92FF92CF93DF932091C30303
:100EC000222359F16C0160911706809114069091CC
:100ED00015060E949B01C0911406D09115060D2C99
:100EE000000CEE08FF082AE0B701A601F7FE0CC0CF
:100EF0006DE2CE010E949B0144275527BA014C198F
:100F00005D096E097F092AE0CE01DF91CF91FF9044
:100F1000EF90DF90CF900C94D306DF91CF91FF90AC
:100F2000EF90DF90CF900895AF92BF92CF92DF9273
:100F3000EF92FF920F931F93CF93DF9386E00E946F
:100F40004307C8E4D2E08AE7A82E82E0B82E96E1F3
:100F5000C92E92E0D92E26E9E22E21E0F22E10E0F1
:100F600000E0C8010E945807888199810E945807B3
:100F7000F501819191915F010E945807F6018191DD
:100F800091916F010E945807F701819191917F0122
:100F90000E9458070F5F1F4F88819981059721F0A4
:100FA000229609311105E9F6DF91CF911F910F913A
:100FB000FF90EF90DF90CF90BF90AF900C94B5066C
:100FC0002F923F924F925F926F927F928F929F9259
:100FD000AF92BF92CF92DF92EF92FF921F93CF9387
:100FE000DF93EC016A017B01722EAB019601CB010C
:100FF000B6010E941E1C63E471E0811126C0460107
:101000005701E894B7F82FEF3FEF4FE75FE7C501CF
:10101000B4010E941E1C81110CC02FEF3FEF4FE75F
:101020005FE7C501B4010E94B01967E471E01816CA
:1010300064F02FEF3FEF4FE75FE4C701B6010E9476
:10104000191C1816B4F46BE471E0CE01DF91CF9156
:101050001F91FF90EF90DF90CF90BF90AF909F9047
:101060008F907F906F905F904F903F902F900C9457
:10107000A6062FEF3FEF4FE75FECC701B6010E94D6
:10108000B01987FDE0CF20E030E0A901C701B6012B
:101090000E94B019312C212C87FF09C06DE2CE01CE
:1010A0000E949B011C01F7FAF094F7F8F09410E00D
:1010B00060E070E080E09FE3711641F020E030E0F6
:1010C00040E251E40E94711B1F5FF6CFA701960119
:1010D0000E94051B2B013C010E94EA1B4B015C0195
:1010E0002AE0BC01A401CE010E94D3067C01E20CDF
:1010F000F31C1123C1F1C501B4010E94B5199B0174
:10110000AC01C301B2010E94041B4B015C016EE201
:10111000CE010E949B01E80EF91E115020F120E043
:1011200030E040E251E4C501B4010E94161A2B01DF
:101130003C010E94EA1B4B01B12CA12C2AE0B50115
:10114000A401CE010E94D306E80EF91EC501B40128
:101150000E94B5199B01AC01C301B2010E94041B9E
:101160004B015C01DACFC701DF91CF911F91FF9056
:10117000EF90DF90CF90BF90AF909F908F907F9037
:101180006F905F904F903F902F900895CF92DF9295
:10119000EF92FF92CF932091C3032223C9F0C42F73
:1011A0006B017C01609117068091140690911506E1
:1011B0000E949B012C2FB701A601809114069091EB
:1011C0001506CF91FF90EF90DF90CF900C94E00741
:1011D000CF91FF90EF90DF90CF900895CF92DF9264
:1011E000EF92FF922091C3032223B9F06B017C019F
:1011F0006091170680911406909115060E949B013C
:1012000022E0B701A6018091140690911506FF9087
:10121000EF90DF90CF900C94E007FF90EF90DF907D
:10122000CF9008950F931F9388E00E944307609129
:10123000EA017091EB018091EC019091ED0142E0A7
:1012400050E00E94C60860912601709127018091AC
:1012500028019091290141E050E00E94C608609168
:10126000D4017091D5018091D6019091D70141E0D0
:1012700050E00E94C60880919401909195010E94CF
:10128000580780919201909193010E945807809194
:101290009001909191010E945807609122037091F2
:1012A000230380912403909125030E94EE0860910E
:1012B0001A0370911B0380911C0390911D030E94DF
:1012C000EE0860911E0370911F038091200390919E
:1012D00021030E94EE0860911E0170911F01809110
:1012E0002001909121010E94EE0860911A017091F5
:1012F0001B0180911C0190911D010E94EE086091DC
:10130000EE027091EF028091F0029091F102009153
:101310001603109117032091180330911903601BD5
:10132000710B820B930B0E94B51920E030E046E967
:1013300053E40E94711B20E030E048EC52E40E942C
:10134000161A0E94EE086091EF017091F0018091F1
:10135000F1019091F2010E94EE088091F6029091C5
:10136000F7020E945807609100017091010180917D
:101370000201909103010E94EE0860E070E080E8B5
:101380009FE30E94EE086091160170911701809111
:101390001801909119010E94EE086091F30170917B
:1013A000F4018091F5019091F6010E94EE08809180
:1013B000FD019091FE010E945807809122019091B9
:1013C00023010E9458078091FB019091FC010E942B
:1013D00058078091FE029091FF020E945807809169
:1013E000FF01909100020E9458076091AC02709139
:1013F000AD028091AE029091AF020E941F076091F2
:10140000B0027091B1028091B2029091B3020E9439
:101410001F076091B4027091B5028091B60290915D
:10142000B7020E941F076091B8027091B9028091C3
:10143000BA029091BB020E941F076091BC0270919A
:10144000BD028091BE029091BF020E941F07809151
:10145000E40290E00E94580780912A0190912B01AC
:101460000E9458078091240190E00E9458078091C3
:10147000E30290E00E9458078091E3028823B1F1D3
:101480008091E0029091E1020E945807E091E00211
:10149000F091E102EE0FFF1FE85BFD4F808191812B
:1014A0000E945807E091E002F091E102EE0FFF1F69
:1014B000E658FD4F808191810E945807E091E0023B
:1014C000F091E102EE0FFF1FEA5EFD4F80819181F6
:1014D0000E945807E091E002F091E102EE0FFF1F39
:1014E000EA56FE4F808191810E9458071F910F910B
:1014F0000C94B5068091C303811119C081E00E944C
:1015000043078091C303882381F06091170680917F
:101510001406909115060E949B016FE471E0809182
:101520001406909115060E94A6060C94B50608951F
:10153000CF938091C8019091C9019C012F5F3F4FCB
:101540003093C9012093C8010E94D41AC82F8091FA
:10155000C8019091C9019C012F5F3F4F3093C90191
:101560002093C8010E94D41A2C2F30E0322F22275A
:10157000820F932F911DCF9108958F929F92AF92DA
:10158000BF92CF92DF92EF92FF92CF93DF931092B0
:10159000C9011092C8010E94980A90931401809387
:1015A00013010E94980A90931201809311010E94E6
:1015B000980A21E0181619060CF020E02093240167
:1015C0000E94980ABC01990F880B990B0E94B719C9
:1015D0006B017C01C0920D01D0920E01E0920F01CF
:1015E000F09210010E94980ABC01990F880B990B88
:1015F0000E94B7194B015C018092090190920A0187
:10160000A0920B01B0920C010E94980AEC0120E01C
:1016100030E04AE754E4C701B6010E94711B6093B1
:101620000D0170930E0180930F019093100120E043
:1016300030E04AE754E4C501B4010E94711B609395
:10164000090170930A0180930B0190930C01BE0174
:10165000DD0F880B990B0E94B71920E030E04AE7B4
:1016600054E40E94711B60930501709306018093FE
:1016700007019093080183E00E94430780911301C2
:10168000909114010E9458078091110190911201CC
:101690000E94580720E030E04AE754E460910D01D1
:1016A00070910E0180910F01909110010E94161A05
:1016B0000E94E31BCB010E94580720E030E04AE77C
:1016C00054E46091090170910A0180910B0190919D
:1016D0000C010E94161A0E94E31BCB010E945807BE
:1016E00020E030E04AE754E4609105017091060182
:1016F00080910701909108010E94161A0E94E31B35
:10170000CB010E945807DF91CF91FF90EF90DF90BF
:10171000CF90BF90AF909F908F900C94B506CF93D1
:10172000C82F692F8091C8019091C9019C012F5F3A
:101730003F4F3093C9012093C8010E94DC1A809169
:10174000C8019091C9019C012F5F3F4F3093C9019F
:101750002093C8016C2FCF910C94DC1A1092C90110
:101760001092C80180911301909114010E948F0B77
:1017700080911101909112010E948F0B80912401A0
:1017800090E00E948F0B20E030E04AE754E4609143
:101790000D0170910E0180910F01909110010E9436
:1017A000161A0E94E31BCB010E948F0B20E030E051
:1017B0004AE754E46091090170910A0180910B019C
:1017C00090910C010E94161A0E94E31BCB010E940B
:1017D0008F0B20E030E04AE754E4609105017091FE
:1017E000060180910701909108010E94161A0E943B
:1017F000E31BCB010C948F0BCF92DF92EF92FF9201
:101800000F931F93CF93DF9384E190E09093C901EE
:101810008093C80185E090E00E948F0B90E080E00B
:101820000E948F0BC8E4D2E08AE7C82E82E0D82E4F
:1018300096E1E92E92E0F92E06E911E0899199915D
:101840000E948F0BF601819191916F010E948F0B85
:10185000F701819191917F010E948F0BF801819195
:1018600091918F010E948F0BF2E0CA37DF0731F7A9
:10187000DF91CF911F910F91FF90EF90DF90CF906C
:101880000895AF92BF92CF92DF92EF92FF920F93A3
:101890001F93CF93DF93CDB7DEB764970FB6F8945D
:1018A000DEBF0FBECDBF80910E06882309F438C07D
:1018B0000E944B068C010E944B065C01CE010196F2
:1018C0006C01F12CE12CEA14FB0454F40E944B0649
:1018D000F601819391936F01FFEFEF1AFF0AF3CFA7
:1018E0000F301105E8F4F801E858F34F0C94451C4B
:1018F000870DB20DBF0DD60DD90D330D300D1B0D5B
:10190000270D110D070DFD0CEE0CA90C870C81E0C5
:1019100029813A812130310509F080E0809301026C
:101920008091C303811148C18AE00E9443076496F5
:101930000FB6F894DEBF0FBECDBFDF91CF911F91E0
:101940000F91FF90EF90DF90CF90BF90AF900C94ED
:10195000B50669817A81072E000C880B990B0E94CD
:10196000B71920E030E04AE754E40E94711B60930D
:101970000D0170930E0180930F01909310016B8104
:101980007C81072E000C880B990B0E94B71920E070
:1019900030E04AE754E40E94711B609309017093A0
:1019A0000A0180930B0190930C016D817E81072EBB
:1019B000000C880B990B0E94B71920E030E04AE731
:1019C00054E40E94711B609305017093060180939B
:1019D0000701909308010E94AE0BA2CF81E02981FC
:1019E0003A812130310509F080E08093240190E0B4
:1019F00090939D0280939C0293CF81E029813A814C
:101A00002130310509F080E08093250189CF81E004
:101A100029813A812130310509F080E08093FA0173
:101A20007FCF81E029813A812130310509F080E0C2
:101A30008093D30175CF81E029813A81213031052E
:101A400009F080E08093F9011092F80169CF80914C
:101A5000F901882309F464CF81E08093F80160CF15
:101A60000E94FC0B5DCF0E94030569817A8170930F
:101A70007F0260937E027093870260938602072E36
:101A8000000C880B990B0E94B7190E9438048B81B7
:101A90009C8190938B0280938A028D819E8190938A
:101AA0002902809328028F81988590932F0280933A
:101AB0002E0289859A8590939702809396028B8552
:101AC0009C85909337028093360281E02D853E8578
:101AD0002130310509F080E0282F30E030939D025D
:101AE00020939C02809324018F85988990931702FC
:101AF00080931602092E000CAA0BBB0B80932A01BF
:101B000090932B01A0932C01B0932D0109CF6981F3
:101B10007A81072E000C880B990B0E94B7196093ED
:101B20001A0370931B0380931C0390931D036B8116
:101B30007C81072E000C880B990B0E94B7196093CB
:101B40001E0370931F0380932003909321036D81E4
:101B50007E81072E000C880B990B0E94B7190E94FA
:101B60003804DECE29813A813093F7022093F602C1
:101B700081E0232B09F080E08093F802D1CE8981A7
:101B80009A81892B19F410928A01CACE109295017C
:101B9000109294011092930110929201109291016F
:101BA0001092900181E080938A01BACE0E94F504E0
:101BB000B7CE0E940305B4CE64960FB6F894DEBF8C
:101BC0000FBECDBFDF91CF911F910F91FF90EF908E
:101BD000DF90CF90BF90AF9008951F920F920FB6F5
:101BE0000F9211242F933F934F935F936F937F93A3
:101BF0008F939F93AF93BF93EF93FF9386E293E00E
:101C00000E942002FF91EF91BF91AF919F918F9120
:101C10007F916F915F914F913F912F910F900FBEE8
:101C20000F901F9018951F920F920FB60F921124CC
:101C30002F938F939F93EF93FF93E0913603F0914F
:101C400037038081E0913C03F0913D0382FD1BC08E
:101C5000908180913F038F5F8F73209140038217A3
:101C600041F0E0913F03F0E0EA5DFC4F958F8093F7
:101C70003F03FF91EF919F918F912F910F900FBE96
:101C80000F901F9018958081F4CF1F920F920FB67E
:101C90000F9211242F933F938F939F93AF93BF93F2
:101CA0008091CF019091D001A091D101B091D2014A
:101CB00030918F0123E0230F2D3758F50196A11D98
:101CC000B11D20938F018093CF019093D001A093F9
:101CD000D101B093D20180918B0190918C01A091A0
:101CE0008D01B0918E010196A11DB11D80938B01D4
:101CF00090938C01A0938D01B0938E01BF91AF9111
:101D00009F918F913F912F910F900FBE0F901F9039
:101D1000189526E8230F0296A11DB11DD2CF1F9260
:101D20000F920FB60F9211242F933F934F935F930F
:101D30006F937F938F939F93AF93BF93EF93FF9393
:101D4000E091CA01F091CB010995FF91EF91BF910C
:101D5000AF919F918F917F916F915F914F913F9143
:101D60002F910F900FBE0F901F901895109229037E
:101D70001092280388EE93E0A0E0B0E080932A035D
:101D800090932B03A0932C03B0932D0382E391E057
:101D9000909327038093260385EC90E09093330380
:101DA0008093320384EC90E0909335038093340366
:101DB00080EC90E0909337038093360381EC90E0C1
:101DC000909339038093380382EC90E090933B0327
:101DD00080933A0386EC90E090933D0380933C031C
:101DE00010923F031092400310924103109242035D
:101DF00010921A061092190686E293E09093150647
:101E0000809314061092CB038CE2809317068BE329
:101E1000809316068FE28093180680E48093C603B1
:101E20008FE38093C7031092C5031092100610929F
:101E30000F06109212061092110681E080930D0693
:101E4000EBE1F6E01192119286E0EF37F807D1F757
:101E50001092CA0380E090E0ACE8B2E480932203E1
:101E600090932303A0932403B093250380E090E094
:101E7000A8ECB3E480931E0390931F03A093200368
:101E8000B093210380E090E0A0EAB1E480931A03CC
:101E900090931B03A0931C03B0931D0384E690E072
:101EA000A0E0B0E08093160390931703A09318036B
:101EB000B093190310921503109214030895CF9351
:101EC000DF9300D000D0CDB7DEB7789484B58260C0
:101ED00084BD84B5816084BD85B5826085BD85B5CE
:101EE000816085BD80916E00816080936E0010924C
:101EF00081008091810082608093810080918100C7
:101F00008160809381008091800081608093800057
:101F10008091B10084608093B1008091B0008160B5
:101F20008093B00080917A00846080937A008091E1
:101F30007A00826080937A0080917A008160809339
:101F40007A0080917A00806880937A001092C100B4
:101F500080E090E0ACE8B2E4809326019093270102
:101F6000A0932801B093290180E090E0A8E4B2E4B6
:101F70008093160190931701A0931801B093190153
:101F8000109204011092D4021092D5021092D6023F
:101F90001092D70210929501109294011092930121
:101FA00010929201109291011092900180E1809321
:101FB00081001092800001E00093CE0120E43FE117
:101FC0003093CD012093CC0130938700209386007D
:101FD00091E1909381002DEA30E03093CB01209382
:101FE000CA0100936F00E0913603F091370392E04D
:101FF0009083E0913203F09133031082E091340337
:10200000F0913503808310923E03E0913A03F09102
:102010003B0386E08083E0913803F09139038081AF
:1020200080618083E0913803F0913903808188607A
:102030008083E0913803F091390380818068808348
:10204000E0913803F091390380818F7D808361E0D6
:102050008DE00E942F0360E08CE00E942F0381E05E
:1020600090E00E94D40361E089E00E942F0390E099
:1020700080E00E94A40360E08AE00E942F030093A6
:10208000CB038AE79AE090931A06809319068DEBAA
:102090009AE09093200680931F0684E997E090933E
:1020A00026068093250682E199E090932A06809384
:1020B000290681E49CE090932E0680932D06809162
:1020C000C303811118C00E9443078091C303882372
:1020D00081F06091170680911406909115060E9478
:1020E0009B0161E771E080911406909115060E94B2
:1020F000A6060E94B5061092C9011092C8010E945E
:10210000980A9A8389830E94980A2091130130913A
:10211000140109811A810217130709F000C211E0A6
:10212000198320911101309112012817390709F400
:1021300019820E94980A019709F0F4C181E0809306
:1021400024010E94980ABC01990F880B990B0E94E8
:10215000B71920E030E04AE754E40E94711B6B019C
:102160007C012DEC3CEC4CEC5DE30E94191C87FDDE
:10217000DEC120E030E040E251E4C701B6010E9438
:10218000B01918160CF4D3C1C0920D01D0920E01F3
:10219000E0920F01F09210010E94980ABC01990F81
:1021A000880B990B0E94B71920E030E04AE754E40D
:1021B0000E94711B6B017C012DEC3CEC4CEC5DE34F
:1021C0000E94191C87FDC2C120E030E040E251E4CA
:1021D000C701B6010E94B01918160CF4B7C1C0921D
:1021E0000901D0920A01E0920B01F0920C010E94C9
:1021F000980ABC01990F880B990B0E94B71920E02F
:1022000030E04AE754E40E94711B6B017C012DEC25
:102210003CEC4CEC5DE30E94191C87FDA6C120E05C
:1022200030E040E251E4C701B6010E94B01918162F
:102230000CF49BC1C0920501D0920601E092070107
:10224000F0920801098101119CC108E412E0FAE74B
:10225000EF2EF2E0FF2EA6E16A2EA2E07A2EB6E97A
:102260004B2EB1E05B2EB201D301C7011801F10181
:10227000119211921F01FC0111921192CF011D9236
:102280001D92FB0111921192BF01FAE72F16F2E0A5
:102290003F0669F70E94210584E190E09093C9010F
:1022A0008093C8010E94980A059709F06DC10E94A9
:1022B000980A0E94980A5C010E94980A6C010E9488
:1022C000980A4C010E94980AD8012D913D918D01E8
:1022D000A216B30609F058C1F701C192D1927F014D
:1022E000D3018D929D923D01F201819391932F0133
:1022F00020163106F1F680916A0290916B020597E3
:1023000009F042C160917E0270917F02072E000C9D
:10231000880B990B0E94B7190E94380481E0209124
:102320009C0230919D022130310509F080E08093BC
:1023300024010E9482031092E1021092E0021092A6
:10234000F9011092DE021092DF021092E502109263
:10235000D3011092E2021092DD02809124018111DA
:102360001AC181E08093E3028093E2022224239445
:10237000312CFF24F3948091CA03811127C18091ED
:10238000140690911506DC01ED91FC910084F18515
:10239000E02D0995892B09F419C1809114069091BB
:1023A0001506DC01ED91FC910084F185E02D099585
:1023B000C12C72E0D72E8115924064F480911406EE
:1023C00090911506DC01ED91FC910084F185E02DE2
:1023D00009956C0100911406109115061A83098362
:1023E0006CE0A62E64E0B62E450110E000E0C016B9
:1023F000D106D9F12FB7F8948091CF019091D001F7
:10240000A091D101B091D2012FBFE981FA818087DB
:102410009187A287B387A981BA81ED91FC91119729
:102420000284F385E02DCD01099597FF98C62FB75B
:10243000F8948091CF019091D001A091D101B091F9
:10244000D2012FBFE981FA8140855185628573856C
:10245000841B950BA60BB70B448155816681778150
:1024600084179507A607B707B0F21A821982098167
:102470001A81C016D10609F47ECFD5019D915D0168
:1024800010920C06309118062091C9039093C9034D
:10249000931304C0921302C01092C9038091C50324
:1024A000E82FF0E040911606ED53FC4F941376C0F0
:1024B000321709F473C01186882329F0B1E0B09374
:1024C0000C061092C9031092C503109210061092C8
:1024D0000F061092120610921106E1E0E0930D062D
:1024E00080910C06813009F06AC00E944B068093EF
:1024F000C403823308F05CC020910E06222309F445
:1025000057C0FC01FF27EE0FFF1FE55EF94F01905A
:10251000F081E02D309709F44BC0099550C001E0DF
:10252000098307CE1092240111E019830ACE80E0BE
:1025300090E0A0E8BFE380930D0190930E01A0937B
:102540000F01B093100101E0098326CE80E090E0F6
:10255000A0E8BFE38093090190930A01A0930B01C7
:10256000B0930C0111E0198342CE80E090E0A0E826
:10257000BFE38093050190930601A0930701B093F8
:1025800008010E94AE0B61CE0E9421050E94AE0B95
:102590000E94FC0BCECE1092E302E8CE91878F5FB3
:1025A0008093C5039091C703891708F08CCF98CF0B
:1025B000E0911906F0911A06309709F0AECF098123
:1025C0001A810F5F1F4F1A83098351CF8091100327
:1025D00090911103A0911203B09113030697A105E6
:1025E000B10570F18091E4019091E501019690931D
:1025F000E5018093E40180E00E946B03BC01990F28
:10260000880B990B0E94B7199B01AC016091E60100
:102610007091E7018091E8019091E9010E94051B0A
:102620006093E6017093E7018093E8019093E901DC
:1026300010921003109211031092120310921303C0
:1026400080910C0390910D03A0910E03B0910F03A4
:10265000893E9340A105B105C0F0F092F9021092B5
:10266000E50220E030E048E351E42093D4013093C8
:10267000D5014093D6015093D70110920C031092CC
:102680000D0310920E0310920F0380910803909196
:102690000903A0910A03B0910B03893E9340A10561
:1026A000B105A8F08091E0029091E1029C012E50CA
:1026B00031092330310508F424C11092EE01109243
:1026C00008031092090310920A0310920B038091E1
:1026D000040390910503A0910603B0910703C397EB
:1026E000A105B10508F48AC06091D4027091D502A9
:1026F0008091D6029091D7020E94B51920E030E077
:102700004AE754E40E94711B6093EA017093EB0165
:102710008093EC019093ED01809026019090270129
:10272000A0902801B09029014090220350902303EB
:102730006090240370902503A3019201C501B401A8
:102740000E94191C181614F410921501A30192018D
:10275000C501B4010E94B01987FDF09215010091E6
:10276000F6021091F7021A830983012B11F41092DB
:1027700015016091160170911701809118019091D7
:10278000190120911501222309F408C12AE939E928
:1027900049E95EE30E94051B6093160170931701DF
:1027A000809318019093190109811A81012BE1F49A
:1027B00020E030E040EA51E4609116017091170189
:1027C00080911801909119010E94B01987FF0CC0E7
:1027D00026E636E642EA51E42093160130931701CB
:1027E00040931801509319010E94F50310920403BD
:1027F00010920503109206031092070380910003C4
:1028000090910103A0910203B09103030091FE0295
:102810001091FF021A830983C397A105B10508F43B
:102820004BC0012B09F0C1C024E630E040E050E08D
:102830002093160330931703409318035093190302
:102840001092F3011092F4011092F5011092F6012A
:102850008090260190902701A0902801B090290136
:1028600020E030E040EA51E460911E0370911F03C4
:1028700080912003909121030E94051BA5019401E2
:102880000E94B01987FF9EC01092EE021092EF02D4
:102890001092F0021092F1021092EF011092F001EA
:1028A0001092F1011092F2011092000310920103B4
:1028B000109202031092030309811A81012B41F443
:1028C0001092FA021092FB021092FC021092FD028A
:1028D00080910102882321F03092FE012092FD01B7
:1028E0009091FA01992309F440C41092FE011092CC
:1028F000FD01882309F442C43092FC012092FB01BF
:1029000051C40E9709F0DBCE8091EE018111D7CE34
:102910002091E0013091E1014091E2015091E30109
:1029200060912601709127018091280190912901E1
:102930006093E0017093E1018093E2019093E301E1
:102940004090DC015090DD016090DE017090DF016D
:102950000E94041B4B015C018092DC019092DD011E
:10296000A092DE01B092DF01AC019B01C301B20174
:102970000E94191C18160CF0A2CE2091D80130919B
:10298000D9014091DA015091DB01C501B4010E94E7
:10299000B01987FF94CEF092EE0191CE2AE939E981
:1029A00049E95EE30E94041BF7CE84E190E0A0E0D9
:1029B000B0E08093160390931703A0931803B0938D
:1029C00019033ECFA5019401609122037091230366
:1029D00080912403909125030E94041B2B013C014C
:1029E00020E030E0A901C501B4010E94191C1816AD
:1029F0000CF084C08091EE01882309F47FC0A3010C
:102A000092016091EF017091F0018091F10190913C
:102A1000F2010E94051B6093EF017093F001809317
:102A2000F1019093F20120911A0130911B01409124
:102A30001C0150911D016091EF017091F001809196
:102A4000F1019091F2010E94161A4B015C01209154
:102A50001E0130911F014091200150912101C301BD
:102A6000B2010E94161A9B01AC01C501B4010E947B
:102A7000051BD62EE72E8C01862F9E2DD801809324
:102A8000F3019093F401A093F501B093F60120E0D7
:102A900030E046E953E46D2D7E2DC8010E94191CDB
:102AA000181624F4D12CE12C06E913E460911603E6
:102AB0007091170380911803909119030E94B51922
:102AC000962EA72EB82EC92E2D2D3E2DA8010E9480
:102AD000191C181624F09D2CAE2CB02EC12E692D79
:102AE0007A2D8B2D9C2D0E94EA1B6093EE02709331
:102AF000EF028093F0029093F102D6CE1092EF0194
:102B00001092F0011092F1011092F2018CCF3092EC
:102B1000F7022092F6026DC380911603909117037D
:102B2000A0911803B091190384159505A605B70562
:102B300008F090C30981002309F494C361E083E0A5
:102B40000E942F0361E08BC30981002309F400C3B5
:102B50008091E302811107C061E08DE00E940103D2
:102B6000F092F701B8C38091E202882391F01092AD
:102B7000E1021092E0021092DF020E9482031092A2
:102B8000E2021092DE021092DD021092E502109233
:102B9000E4024090D4025090D5026090D60270902A
:102BA000D702E8EDF2E090E080E021912223E1F00D
:102BB0009C0124553D4F3C832B83AC0140545D4F19
:102BC000DA014D915D916D917C9193018201041B1D
:102BD000150B260B370BB901A801AB81BC814D93B6
:102BE0005D936D937C931397049684319105E9F678
:102BF0000091E0021091E1021A830983000F111F76
:102C00001C830B83F801E658FD4F008111818090F1
:102C1000F701682D8DE00E94010321E08226809259
:102C2000F701EB81FC81E85BFD4F0190F081E02D25
:102C3000E730F10508F061C0E05EF94E0C94451CE8
:102C40004616F317E71627180E18871827160430AC
:102C50001105C9F40B811C810A5E1D4FD8018D91AD
:102C60009C918F30B7E29B0774F4092E000CAA0BDD
:102C7000BB0B80932A0190932B01A0932C01B0935E
:102C80002D01F092DD02F092DF0237C08091DE026A
:102C9000811125C060911E0370911F038091200354
:102CA000909121030E94E31B2B0160911A03709104
:102CB0001B0380911C0390911D030E94E31B0617C8
:102CC00017072CF0B801401651060CF4B201072E7C
:102CD000000C880B990B0E94B7190E9438040B81D5
:102CE0001C810A5E1D4FD8016D917C916336710580
:102CF000F1F4F092DF021092DE028091F901882354
:102D000009F415C28091F801882309F4E4C2809186
:102D1000E0029091E10201969093E1028093E0023B
:102D20001092DF021092F8011092DE02D4C240909D
:102D30002203509023036090240370902503072EF4
:102D4000000C880B990B0E94B7194B015C0109819B
:102D50001A810E301105B1F42DED34E246E25FE345
:102D6000C301B2010E94161A27ED33EA4EE552E480
:102D70000E94051B2B013C01812C912C30EAA32ED3
:102D800030E4B32E20912601309127014091280193
:102D900050912901C301B2010E94041B0E94E31B50
:102DA0009B0177FF04C022273327261B370BB9016D
:102DB000330F880B990B0E94B719A50194010E944B
:102DC000B01918160CF095CFF092DE0296CF0330B2
:102DD000110509F4D8C007301105C1F00230110502
:102DE00009F08BCFEE2009F4B6C08091DC0281118E
:102DF00089C000E117E220E030E000931202109356
:102E00001302209314023093150263C08091DD02F7
:102E1000882309F44CC08091DB0281111FC02091EE
:102E20002A0130912B0140912C0150912D01A8EEE7
:102E3000B3E00E94EA1A60930E0270930F0280932F
:102E40001002909311024092CC025092CD026092F7
:102E5000CE027092CF02F092DB024FCF4091B802C7
:102E60005091B9026091BA027091BB0280910E023A
:102E700090910F02A0911002B091110248175907CA
:102E80006A077B0708F439CF1092DB021092B80270
:102E90001092B9021092BA021092BB0210920E0266
:102EA00010920F021092100210921102ECCEEE203E
:102EB000D9F08091DC0281116DC020E137E240E061
:102EC00050E0209312023093130240931402509367
:102ED00015024092D0025092D1026092D2027092BA
:102EE000D302F092DC0209CF0B811C810A5E1D4FD8
:102EF000D8018D919C91A816B90609F4C4CE911001
:102F0000C2CEFBCE4091BC025091BD026091BE0288
:102F10007091BF028091120290911302A09114024D
:102F2000B091150284179507A607B70708F0E5CEFC
:102F30001092DC021092BC021092BD021092BE02EE
:102F40001092BF02109212021092130210921402F9
:102F50001092150298CE0B811C810A5E1D4FD8017C
:102F60002D913C918091FD019091FE012817390728
:102F700009F0C3CECA94CD2809F485CE8091FA0118
:102F8000811181CEBACEEE20E1F08091DC0288235F
:102F900009F42FCF4091BC025091BD026091BE0256
:102FA0007091BF028091120290911302A0911402BD
:102FB000B0911502481759076A077B0708F49DCEA0
:102FC000B7CF0B811C810A5E1D4FD8018D919C915A
:102FD000C816D90609F091CE8091FD019091FE01AD
:102FE000019761F650CE0115110571F00130110500
:102FF00009F083CE0B811C810A5E1D4FD8018D9193
:103000009C910E94D4033FCE0B811C810A5E1D4F10
:10301000D8018D919C910E94A40335CEC801880FE0
:10302000991F880F991FFC01E054FD4F4082518287
:10303000628273828E5F9D4FFC0110821182128228
:103040001382F801E852FD4F01E000831CCE980185
:1030500028523D4F6901D9018C91000F111F000FBB
:10306000111FA8014E5F5D4F8823D9F0FA018081BE
:103070009181A281B3810097A105B10571F50B8102
:103080001C810A5E1D4FF801A081B18128EE33E05A
:103090000E944B1CDA016D937D938D939C93139743
:1030A0002CCEAB81BC81AA5EBD4F0D90BC91A02DF2
:1030B00028EE33E00E944B1CFA0160837183828307
:1030C000938300541D4FD8014D925D926D927C9276
:1030D000139701E0F601008310CE04551D4FF8014F
:1030E00080809180A280B38088169906AA06BB06CC
:1030F00008F403CED9011C9210821182128213822D
:10310000DA011D921D921D921C921397BCCD012BCA
:1031100039F4F092E202109224010E94F504EDCD00
:103120001092E202F09224010E940305E6CD809104
:10313000DF02882309F4CFC08091E0029091E10280
:1031400001969093E1028093E0021092DF02ECCDB1
:1031500090E080E00E94A4030E940305BCC0D4015B
:103160008D934D010F5F1F4F42C98111C5CB8CE07C
:103170000E94D8029093FE018093FD018091140378
:1031800090911503892B39F48BE00E94D80290931B
:103190002301809322018AE00E94D8029093FC01CF
:1031A0008093FB01C090FB01D090FC01E0900102F4
:1031B000EE2021F0309200022092FF019090250134
:1031C000992009F49DC0109200021092FF01A09076
:1031D000FF01B09000021091F9021983112329F028
:1031E0008091F802882309F492CC1092F702109291
:1031F000F6024090EE025090EF026090F002709064
:10320000F1028091F2029091F302A091F402B09148
:10321000F502481659066A067B0640F461E083E031
:103220000E942F0360E083E00E9401038091EA0284
:103230009091EB02A091EC02B091ED028D329140A1
:10324000A105B105F8F08091F6029091F702892B63
:1032500009F462CC61E083E00E942F0360E083E028
:103260000E9401031092F2021092F3021092F402F3
:103270001092F5021092EA021092EB021092EC0208
:103280001092ED021981111108C061E083E00E94E3
:103290002F0360E083E00E9401038091E602909199
:1032A000E702A091E802B091E90281359105A105FC
:1032B000B105C8F08091E502882309F445CC90E07F
:1032C00080E00E94A40390E080E00E94D4030E946A
:1032D0000305F092E4021092E6021092E7021092C7
:1032E000E8021092E902E0E0F0E0EF2B09F443C8B5
:1032F0000E940C02882309F43CC80E94000039C8CF
:10330000E11065CF88E00E94D8029093000280937C
:10331000FF015DCFFC0188279927E8942191203295
:10332000E9F3293010F02E30C8F32B3241F02D3262
:1033300039F4689404C00E94A819820F911D21914C
:1033400020532A30C0F31EF4909581959F4F089525
:103350007AE0979F902D879F802D910D11240895DD
:103360000E94F21908F481E00895E89409C097FBDF
:103370003EF490958095709561957F4F8F4F9F4F4C
:103380009923A9F0F92F96E9BB279395F695879590
:1033900077956795B795F111F8CFFAF4BB0F11F453
:1033A00060FF1BC06F5F7F4F8F4F9F4F16C08823FA
:1033B00011F096E911C0772321F09EE8872F762F30
:1033C00005C0662371F096E8862F70E060E02AF071
:1033D0009A95660F771F881FDAF7880F969587955D
:1033E00097F90895990F0008550FAA0BE0E8FEEF32
:1033F00016161706E807F907C0F012161306E407B9
:10340000F50798F0621B730B840B950B39F40A26B1
:1034100061F0232B242B252B21F408950A2609F48F
:10342000A140A6958FEF811D811D08950E94291A44
:103430000C949A1A0E948C1A38F00E94931A20F069
:10344000952311F00C94831A0C94891A11240C946E
:10345000CE1A0E94AB1A70F3959FC1F3950F50E0FE
:10346000551F629FF001729FBB27F00DB11D639F36
:10347000AA27F00DB11DAA1F649F6627B00DA11DDC
:10348000661F829F2227B00DA11D621F739FB00D82
:10349000A11D621F839FA00D611D221F749F3327F2
:1034A000A00D611D231F849F600D211D822F762F8B
:1034B0006A2F11249F5750409AF0F1F088234AF068
:1034C000EE0FFF1FBB1F661F771F881F91505040D4
:1034D000A9F79E3F510580F00C94831A0C94CE1AE4
:1034E0005F3FE4F3983ED4F3869577956795B7955B
:1034F000F795E7959F5FC1F7FE2B880F911D969575
:10350000879597F9089597F99F6780E870E060E0E4
:1035100008959FEF80EC089500240A94161617066C
:1035200018060906089500240A94121613061406B4
:1035300005060895092E0394000C11F4882352F017
:10354000BB0F40F4BF2B11F460FF04C06F5F7F4FCF
:103550008F4F9F4F089557FD9058440F551F59F0B6
:103560005F3F71F04795880F97FB991F61F09F3F70
:1035700079F087950895121613061406551FF2CF99
:103580004695F1DF08C0161617061806991FF1CFE9
:1035900086957105610508940895E894BB27662710
:1035A0007727CB0197F90895F999FECF92BD81BD98
:1035B000F89A992780B50895262FF999FECF1FBA5A
:1035C00092BD81BD20BD0FB6F894FA9AF99A0FBE4C
:1035D000019608950E94F51AA59F900DB49F900D35
:1035E000A49F800D911D11240895A29FB001B39F47
:1035F000C001A39F700D811D1124911DB29F700DFC
:10360000811D1124911D08955058BB27AA270E949F
:103610001C1B0C949A1A0E948C1A38F00E94931A60
:1036200020F039F49F3F19F426F40C94891A0EF413
:10363000E095E7FB0C94831AE92F0E94AB1A58F32C
:10364000BA17620773078407950720F079F4A6F587
:103650000C94CD1A0EF4E0950B2EBA2FA02D0B0171
:10366000B90190010C01CA01A0011124FF27591BC7
:1036700099F0593F50F4503E68F11A16F040A22FCD
:10368000232F342F4427585FF3CF4695379527953E
:10369000A795F0405395C9F77EF41F16BA0B620B3D
:1036A000730B840BBAF09150A1F0FF0FBB1F661F84
:1036B000771F881FC2F70EC0BA0F621F731F841FC7
:1036C00048F4879577956795B795F7959E3F08F0ED
:1036D000B0CF9395880F08F09927EE0F97958795AF
:1036E00008950E94851B0C949A1A0E94931A58F010
:1036F0000E948C1A40F029F45F3F29F00C94831A41
:1037000051110C94CE1A0C94891A0E94AB1A68F3CA
:103710009923B1F3552391F3951B550BBB27AA278A
:1037200062177307840738F09F5F5F4F220F331FC4
:10373000441FAA1FA9F335D00E2E3AF0E0E832D08C
:1037400091505040E695001CCAF72BD0FE2F29D08F
:10375000660F771F881FBB1F261737074807AB0761
:10376000B0E809F0BB0B802DBF01FF2793585F4FD6
:103770003AF09E3F510578F00C94831A0C94CE1ABF
:103780005F3FE4F3983ED4F3869577956795B795B8
:10379000F7959F5FC9F7880F911D9695879597F9C3
:1037A0000895E1E0660F771F881FBB1F621773073C
:1037B0008407BA0720F0621B730B840BBA0BEE1F51
:1037C00088F7E09508950E94EA1B6894B1110C9463
:1037D000CE1A08950E94B31A88F09F5798F0B92F17
:1037E0009927B751B0F0E1F0660F771F881F991F36
:1037F0001AF0BA95C9F714C0B13091F00E94CD1AF1
:10380000B1E008950C94CD1A672F782F8827B85F00
:1038100039F0B93FCCF3869577956795B395D9F78D
:103820003EF490958095709561957F4F8F4F9F4F97
:1038300008950E94F21908F48FEF08950E94F2197A
:10384000880B990B0895A1E21A2EAA1BBB1BFD0140
:103850000DC0AA1FBB1FEE1FFF1FA217B307E4076F
:10386000F50720F0A21BB30BE40BF50B661F771FC7
:10387000881F991F1A9469F76095709580959095A7
:103880009B01AC01BD01CF010895EE0FFF1F059014
:10389000F491E02D09940E94F51AB7FF0895821B58
:0838A000930B0895F894FFCF8B
:1038A8000000803F010000803F0000803F00008052
:1038B8003F080002000100004842BC74133C6666E1
:1038C800E63F010001010000F0413C00000000005B
:1038D80000004202A201CF018F020002DE01F201C4
:1038E8000D0A006E616E00696E66006F76660043B1
:1038F8006F6D6D616E6420776974686F757420618F
:10390800747461636865642063616C6C6261636B85
:103918000043436F6E74726F6C6C657220686173DC
:0A392800207374617274656421005D
:00000001FF
