:100000000C9462000C948A000C948A000C948A0070
:100010000C948A000C948A000C948A000C948A0038
:100020000C948A000C948A000C948A000C948A0028
:100030000C948A000C94980E0C948A000C948A00FC
:100040000C944E0E0C948A000C941C0E0C94F60D1D
:100050000C948A000C948A000C948A000C948A00F8
:100060000C948A000C948A000000000024002700F1
:100070002A0000000000250028002B0000000000DE
:1000800023002600290004040404040404040202DA
:100090000202020203030303030301020408102007
:1000A0004080010204081020010204081020000012
:1000B0000008000201000003040700000000000027
:1000C0000000BF0E11241FBECFEFD8E0DEBFCDBFB2
:1000D00026E0AAE8B1E001C01D92AF37B207E1F710
:1000E00011E0A0E0B1E0E8E9F8E302C005900D926C
:1000F000AA38B107D9F710E0C2E6D0E004C02197D2
:10010000FE010E943D1CC136D107C9F70E94680F4D
:100110000C944A1C0C940000AC011092C8039091FE
:10012000180680911706FA01BF01641B750B209118
:10013000C80330813093C803931304C0921302C0E4
:100140001092C8033081311104C0921721F0CB0105
:1001500008953817D1F33196E7CF8091D40290916A
:10016000D502A091D602B091D7020196A11DB11D72
:100170008093D4029093D502A093D602B093D70275
:100180008091040390910503A0910603B0910703A9
:100190000196A11DB11D8093040390930503A093C4
:1001A0000603B09307038091000390910103A0918F
:1001B0000203B09103030196A11DB11D80930003BA
:1001C00090930103A0930203B09303038091E6028E
:1001D0009091E702A091E802B091E9020196A11D79
:1001E000B11D8093E6029093E702A093E802B093DA
:1001F000E90280910C0390910D03A0910E03B09140
:100200000F030196A11DB11D80930C0390930D0364
:10021000A0930E03B0930F038091100390911103EC
:10022000A0911203B09113030196A11DB11D8093FB
:10023000100390931103A0931203B09313038091C2
:10024000EA029091EB02A091EC02B091ED020196CE
:10025000A11DB11D8093EA029093EB02A093EC02E2
:10026000B093ED028091F2029091F302A091F4021A
:10027000B091F5020196A11DB11D8093F2029093F9
:10028000F302A093F402B093F5028091FA029091E8
:10029000FB02A091FC02B091FD020196A11DB11DCF
:1002A0008093FA029093FB02A093FC02B093FD02AC
:1002B0008091080390910903A0910A03B0910B0368
:1002C0000196A11DB11D8093080390930903A0938B
:1002D0000A03B0930B0380918A01882359F180911E
:1002E00094019091950101968C3391052CF4909393
:1002F00095018093940108951092950110929401B4
:10030000809192019091930101968C3391052CF488
:10031000909393018093920108951092930110920B
:100320009201809190019091910101969093910199
:10033000809390010895DC01ED91FC910190F08192
:10034000E02D0994AF92BF92CF92DF92EF92FF928D
:100350000F931F93CF93DF936C017B018B01040FED
:10036000151FEB015E01AE18BF08C017D10759F089
:100370006991D601ED91FC910190F081E02DC601CB
:100380000995892B79F7C501DF91CF911F910F91C5
:10039000FF90EF90DF90CF90BF90AF900895FC0159
:1003A000538D448D252F30E0842F90E0821B930BDA
:1003B000541710F0CF96089501970895FC01918D80
:1003C000828D981761F0A28DAE0FBF2FB11D5D9683
:1003D0008C91928D9F5F9F73928F90E008958FEF25
:1003E0009FEF0895FC01918D828D981731F0828DD9
:1003F000E80FF11D858D90E008958FEF9FEF089530
:10040000FC01918D228D892F90E0805C9F4F821B93
:1004100091098F739927089586E293E00E94000264
:1004200021E0892B09F420E0822F089580E090E0FC
:10043000892B29F00E940C0281110C940000089570
:10044000FC01A48DA80FB92FB11DA35ABF4F2C9149
:10045000848D90E001968F739927848FA689B78940
:100460002C93A089B1898C91837080648C93938D37
:10047000848D981306C00288F389E02D80818F7DDA
:1004800080830895EF92FF920F931F93CF93DF9392
:10049000EC0181E0888F9B8D8C8D98131AC0E889C0
:1004A000F989808185FF15C09FB7F894EE89FF898F
:1004B0006083E889F98980818370806480839FBF2D
:1004C00081E090E0DF91CF911F910F91FF90EF902D
:1004D0000895F62E0B8D10E00F5F1F4F0F7311273D
:1004E000E02E8C8D8E110CC00FB607FCFACFE88978
:1004F000F989808185FFF5CFCE010E942002F1CFDE
:10050000EB8DEC0FFD2FF11DE35AFF4FF0829FB7EB
:10051000F8940B8FEA89FB8980818062CFCFCF93DB
:10052000DF93EC01888D8823B9F0AA89BB89E8891B
:10053000F9898C9185FD03C0808186FD0DC00FB6C1
:1005400007FCF7CF8C9185FFF2CF808185FFEDCF3F
:10055000CE010E942002E9CFDF91CF910895833030
:1005600081F028F4813099F08230A9F00895873025
:10057000A9F08830C9F08430B1F4809180008F7D7B
:1005800003C0809180008F7780938000089584B5A8
:100590008F7784BD089584B58F7DFBCF8091B000A7
:1005A0008F778093B00008958091B0008F7DF9CF50
:1005B000CF93DF93282F30E0F901E255FF4F84916C
:1005C000F901E656FF4FD491F901EA57FF4FC49164
:1005D000CC23A1F081110E94AF02EC2FF0E0EE0FCE
:1005E000FF1FE458FF4FA591B491EC91ED2381E0FA
:1005F00090E009F480E0DF91CF91089580E090E0F1
:10060000FACF1F93CF93DF93282F30E0F901E25503
:10061000FF4F8491F901E656FF4FD491F901EA5753
:10062000FF4FC491CC23A9F0162F81110E94AF0275
:10063000EC2FF0E0EE0FFF1FEE58FF4FA591B491A5
:100640008FB7F894EC91111108C0D095DE23DC939C
:100650008FBFDF91CF911F910895DE2BF8CFCF93FD
:10066000DF9390E0FC01E656FF4F24918A579F4F9D
:10067000FC0184918823C9F090E0880F991FFC0148
:10068000E859FF4FA591B491FC01EE58FF4FC59179
:10069000D49161110DC09FB7F8948C91209582235D
:1006A0008C938881282328839FBFDF91CF91089561
:1006B000623051F49FB7F8943C91822F8095832348
:1006C0008C93E8812E2BEFCF8FB7F894EC912E2BE3
:1006D0002C938FBFEACF2091040190E4299F9001D1
:1006E0001124822B80937C0080917A008064809317
:1006F0007A0080917A0086FDFCCF809178009091FD
:1007000079000895CF93DF93E8EDF2E082E092E084
:10071000C0ECD2E04CEA52E01192DC011D921D9235
:100720001D921D92CD011992199219921992DA0116
:100730001D921D921D921D92AD01B2E0ED3DFB0791
:1007400059F7DF91CF910895CF93DF93EC01909308
:10075000FF028093FE02682F89E00E940103219727
:10076000D9F480E090E0ACE8B2EC80931A03909367
:100770001B03A0931C03B0931D0380E090E0A0E254
:10078000B2E480931E0390931F03A0932003B093C1
:100790002103DF91CF91089580E090E0A0EAB1E4D9
:1007A00080931A0390931B03A0931C03B0931D0323
:1007B00080E090E0A8ECB3E4E4CFCF93DF93909394
:1007C00022018093210120910102211114C01816E9
:1007D000190634F460E08BE0DF91CF910C942F0385
:1007E000EC0161E08BE00E942F036C2F8BE0DF9126
:1007F000CF910C940103DF91CF9108956091150181
:100800007091160180911701909118012091FE02BC
:100810003091FF022130310539F52091E302222386
:1008200019F160932501709326018093270190931D
:100830002801209100013091010140910201509165
:10084000030160912501709126018091270190910B
:1008500028010E94691B60932501709326018093F3
:10086000270190932801089521E53AED4BEB5FE3D2
:100870000E940E1A2FE834EE4DE051E40E94FC1A5B
:10088000D0CF8F929F92AF92BF92CF92DF92EF9292
:10089000FF920F931F93CF93DF934B017C01A090A6
:1008A0001E03B0901F03C0902003D090210300913D
:1008B0001A0310911B03D0911C03C0911D039B01CF
:1008C000AC01B8018D2F9C2F0E94111C18161CF032
:1008D0008401DE2DCF2D9401A701B501C6010E9430
:1008E000A81987FF03C08501DC2DCD2DC801AD2FD0
:1008F000BC2F8093220390932303A0932403B093EF
:1009000025038091E0029091E1020E9709F05FC00B
:1009100086E696E6A6EEBFE380931D0190931E0146
:10092000A0931F01B09320018CEB94E7A3E1BCE3FB
:100930008093190190931A01A0931B01B0931C019D
:1009400080E090E0A0E8B0E48093D8019093D901D2
:10095000A093DA01B093DB011092EE0180912501A2
:1009600090912601A0912701B09128018093E00188
:100970009093E101A093E201B093E30180E89FE44A
:10098000A3ECB7EC8093DC019093DD01A093DE0132
:10099000B093DF018091090190910A01A0910B01B0
:1009A000B0910C018093000190930101A09302018A
:1009B000B0930301DF91CF911F910F91FF90EF90C2
:1009C000DF90CF90BF90AF909F908F90089580E080
:1009D00090E0A6E9B3E480931D0190931E01A093DB
:1009E0001F01B09320011092190110921A01109268
:1009F0001B0110921C011092EE01CCCF81E090E01F
:100A00000E94DD0381E08093E2028093E302109272
:100A1000E4021092E50208950E94820390E080E0D3
:100A20000E94A40381E090E00E94DD031092E102A5
:100A30001092E0021092E3021092E20260917E02B4
:100A400070917F02072E000C880B990B0E94AF1942
:100A50000C9441048F929F92AF92BF92CF92DF92FB
:100A6000EF92FF920F931F93CF93DF9388E492E06E
:100A700066E070E0FC0171836083CAE7D2E004E0C5
:100A800010E019830883A6E1B2E011961C921E9231
:100A900026E9822E21E0922EF4011182108221E0BB
:100AA00030E0FC01338322831B821A8213961C924E
:100AB0001E921297F40113821282FC011582148295
:100AC00042E3C42ED12CDD82CC8253E6E52EF12CFC
:100AD0001596FC92EE921497F4011582148242E06E
:100AE00050E0FC01578346835F834E8317961C9228
:100AF0001E921697F40117821682FC0151874087D7
:100B0000E7E0AE2EB12CB986A88619961C921E92EB
:100B10001897F40111861086FC01338722873B87E2
:100B20002A871B961C921E921A97F401138612862E
:100B3000FC0115861486DD86CC861D96FC92EE920D
:100B40001C97F40115861486FC01378726871F86BB
:100B50001E861F963C932E931E97F40117861686C9
:100B6000FC01118A108AFBEFEF2EFF24FA94F98A18
:100B7000E88A51963C932E935097F401118A108A7B
:100B8000E3E0EE2EF12CFC01F38AE28A1B8A1A8A3A
:100B9000FEE1CF2ED12C5396DC92CE925297F401E7
:100BA000138A128AFC01358B248B3D8B2C8B559636
:100BB0003C932E935497F401158A148AFC01578BA9
:100BC000468BFF8AEE8A57961C921E925697F40126
:100BD000178A168AFC01F18EE08E198E188E45E078
:100BE00050E059965C934E935897F401118E108EF5
:100BF000FC01338F228F1B8E1A8E5B961C921E92E5
:100C00005A97F401138E128EFC01158E148EECE3AC
:100C1000CE2ED12CDD8ECC8E5D963C932E935C97A0
:100C2000F401158E148EFC01178F068F3F8F2E8FC7
:100C30005F961C921E925E97F401178E168EFC0131
:100C4000F1A2E0A239A328A32AE530E091963C93D3
:100C50002E939097F40111A210A221E0209323017A
:100C600021E130E03093E1022093E002FC0153A344
:100C700042A37BA36AA393961C921E929297F401BF
:100C800013A212A260E070E088E492E4DF91CF91B9
:100C90001F910F91FF90EF90DF90CF90BF90AF909A
:100CA0009F908F900C9441040F931F93CF93DF93E9
:100CB00080910C06882309F449C0D0E0C0E081305F
:100CC00029F482E080930C06CCECD3E080910D06F1
:100CD000882341F1209721F4C0911106D09112068A
:100CE0008E01CE010E948C00892B29F42196F801F7
:100CF00080818111F5CFF8018081882321F1C8011D
:100D00000E948C00F801E80FF91F8081882311F000
:100D100010823196F0931206E0931106109310069C
:100D200000930F0680910F0690911006009771F0C6
:100D300021E020930D0620930E06DF91CF911F91A5
:100D40000F910C94821910E000E0E8CF10920E068B
:100D500090E080E0DF91CF911F910F910895FB010A
:100D600001900020E9F73197AF01461B570BDC01DA
:100D7000ED91FC910280F381E02D09948091C303F1
:100D80008823A1F0609116068091140690911506B3
:100D90000E949B018091CB03882341F06FE371E0B7
:100DA00080911406909115060E94AF061092CA0316
:100DB0001092C30380E008958F929F92AF92BF92EA
:100DC000EF92FF920F931F93CF93DF93CDB7DEB7D0
:100DD000A1970FB6F894DEBF0FBECDBF7C01FA011C
:100DE000CB0119A2223008F42AE08E010F5D1F4FBB
:100DF000822E912CB12CA12CBF01A50194010E943F
:100E00001B1CF901CA016A300CF5605DD8016E93B4
:100E10008D01232B242B252B79F790E080E0109770
:100E200021F0BD01C7010E94AF06A1960FB6F8944C
:100E3000DEBF0FBECDBFDF91CF911F910F91FF900D
:100E4000EF90BF90AF909F908F900895695CDECF38
:100E5000CF92DF92EF92FF922091C3032223B9F049
:100E60006B017C0160911706809114069091150624
:100E70000E949B012AE0B701A6018091140690917F
:100E80001506FF90EF90DF90CF900C94DC06FF905A
:100E9000EF90DF90CF9008959091C303911110C00F
:100EA00091E09093C3039093CA03482F50E070E001
:100EB00060E02AE080911406909115060C94DC06FF
:100EC0000895CF92DF92EF92FF92CF93DF9320911C
:100ED000C303222359F16C01609117068091140617
:100EE000909115060E949B01C0911406D0911506A1
:100EF0000D2C000CEE08FF082AE0B701A601F7FE52
:100F00000CC06DE2CE010E949B0144275527BA0117
:100F10004C195D096E097F092AE0CE01DF91CF915E
:100F2000FF90EF90DF90CF900C94DC06DF91CF9193
:100F3000FF90EF90DF90CF900895AF92BF92CF9245
:100F4000DF92EF92FF920F931F93CF93DF9386E090
:100F50000E944C07C8E4D2E08AE7A82E82E0B82EAF
:100F600096E1C92E92E0D92E26E9E22E21E0F22E5A
:100F700010E000E0C8010E946107888199810E9409
:100F80006107F501819191915F010E946107F6016E
:100F9000819191916F010E946107F7018191919177
:100FA0007F010E9461070F5F1F4F8881998105971C
:100FB00021F0229609311105E9F6DF91CF911F91B9
:100FC0000F91FF90EF90DF90CF90BF90AF900C9477
:100FD000BE062F923F924F925F926F927F928F92B6
:100FE0009F92AF92BF92CF92DF92EF92FF921F93A8
:100FF000CF93DF93EC016A017B01722EAB01960166
:10100000CB01B6010E94161C62E471E0811126C07A
:1010100046015701E894B7F82FEF3FEF4FE75FE73E
:10102000C501B4010E94161C81110CC02FEF3FEFC7
:101030004FE75FE7C501B4010E94A81966E471E0BB
:10104000181664F02FEF3FEF4FE75FE4C701B601DA
:101050000E94111C1816B4F46AE471E0CE01DF910D
:10106000CF911F91FF90EF90DF90CF90BF90AF9006
:101070009F908F907F906F905F904F903F902F90B8
:101080000C94AF062FEF3FEF4FE75FECC701B601BF
:101090000E94A81987FDE0CF20E030E0A901C70138
:1010A000B6010E94A819312C212C87FF09C06DE2DE
:1010B000CE010E949B011C01F7FAF094F7F8F0941E
:1010C00010E060E070E080E09FE3711641F020E006
:1010D00030E040E251E40E94691B1F5FF6CFA70198
:1010E00096010E94FD1A2B013C010E94E21B4B015C
:1010F0005C012AE0BC01A401CE010E94DC067C0157
:10110000E20CF31C1123C1F1C501B4010E94AD1919
:101110009B01AC01C301B2010E94FC1A4B015C01AE
:101120006EE2CE010E949B01E80EF91E115020F1E3
:1011300020E030E040E251E4C501B4010E940E1A03
:101140002B013C010E94E21B4B01B12CA12C2AE097
:10115000B501A401CE010E94DC06E80EF91EC5010E
:10116000B4010E94AD199B01AC01C301B2010E9400
:10117000FC1A4B015C01DACFC701DF91CF911F91BF
:10118000FF90EF90DF90CF90BF90AF909F908F90A7
:101190007F906F905F904F903F902F900895CF92E7
:1011A000DF92EF92FF92CF932091C3032223C9F0E5
:1011B000C42F6B017C0160911706809114069091F9
:1011C00015060E949B012C2FB701A60180911406E1
:1011D00090911506CF91FF90EF90DF90CF900C94F7
:1011E000E907CF91FF90EF90DF90CF900895CF92D5
:1011F000DF92EF92FF922091C3032223B9F06B019B
:101200007C016091170680911406909115060E944A
:101210009B0122E0B701A60180911406909115066A
:10122000FF90EF90DF90CF900C94E907FF90EF9044
:10123000DF90CF9008950F931F9388E00E944C0792
:101240006091EA017091EB018091EC019091ED01C8
:1012500042E050E00E94CF08609125017091260184
:10126000809127019091280141E050E00E94CF0831
:101270006091D4017091D5018091D6019091D701F0
:1012800041E050E00E94CF08809194019091950137
:101290000E94610780919201909193010E946107E1
:1012A00080919001909191010E94610760912203C9
:1012B0007091230380912403909125030E94F708E5
:1012C00060911A0370911B0380911C0390911D0380
:1012D0000E94F70860911E0370911F038091200304
:1012E000909121030E94F70860911D0170911E01E9
:1012F00080911F01909120010E94F70860911901CF
:1013000070911A0180911B0190911C010E94F708B5
:101310006091EE027091EF028091F0029091F102E3
:1013200000911603109117032091180330911903AF
:10133000601B710B820B930B0E94AD1920E030E013
:1013400046E953E40E94691B20E030E048EC52E497
:101350000E940E1A0E94F7086091EF017091F0014F
:101360008091F1019091F2010E94F7088091F602BC
:101370009091F7020E946107609100017091010154
:1013800080910201909103010E94F70860E070E0F3
:1013900080E89FE30E94F7086091150170911601A3
:1013A00080911701909118010E94F7086091F30154
:1013B0007091F4018091F5019091F6010E94F70877
:1013C0008091FD019091FE010E94610780912101B1
:1013D000909122010E9461078091FB019091FC0194
:1013E0000E9461078091FE029091FF020E946107B6
:1013F0008091FF01909100020E9461076091AC0210
:101400007091AD028091AE029091AF020E942807C8
:101410006091B0027091B1028091B2029091B302DA
:101420000E9428076091B4027091B5028091B602C3
:101430009091B7020E9428076091B8027091B9029A
:101440008091BA029091BB020E9428076091BC0271
:101450007091BD028091BE029091BF020E94280748
:101460008091E40290E00E946107809129019091AF
:101470002A010E9461078091230190E00E94610788
:101480008091E30290E00E9461078091E30288234B
:10149000B1F18091E0029091E1020E946107E09138
:1014A000E002F091E102EE0FFF1FE85BFD4F80814B
:1014B00091810E946107E091E002F091E102EE0F5C
:1014C000FF1FE658FD4F808191810E946107E091E6
:1014D000E002F091E102EE0FFF1FEA5EFD4F808116
:1014E00091810E946107E091E002F091E102EE0F2C
:1014F000FF1FEA56FE4F808191810E9461071F9174
:101500000F910C94BE068091C303811119C081E034
:101510000E944C078091C303882381F060911706D5
:1015200080911406909115060E949B016EE471E073
:1015300080911406909115060E94AF060C94BE0689
:101540000895CF938091C8019091C9019C012F5FAC
:101550003F4F3093C9012093C8010E94CC1AC82F75
:101560008091C8019091C9019C012F5F3F4F30933A
:10157000C9012093C8010E94CC1A2C2F30E0322FD1
:101580002227820F932F911DCF9108958F929F92C2
:10159000AF92BF92CF92DF92EF92FF92CF93DF9301
:1015A0001092C9011092C8010E94A10A90931401DF
:1015B000809313010E94A10A90931201809311015C
:1015C0000E94A10A21E0181619060CF020E02093D1
:1015D00023010E94A10ABC01990F880B990B0E945C
:1015E000AF196B017C01C0920D01D0920E01E09207
:1015F0000F01F09210010E94A10ABC01990F880B03
:10160000990B0E94AF194B015C01809209019092E5
:101610000A01A0920B01B0920C010E94A10AEC01F8
:1016200020E030E04AE754E4C701B6010E94691B9C
:1016300060930D0170930E0180930F019093100140
:1016400020E030E04AE754E4C501B4010E94691B80
:101650006093090170930A0180930B0190930C0130
:10166000BE01DD0F880B990B0E94AF1920E030E01E
:101670004AE754E40E94691B6093050170930601D8
:10168000809307019093080183E00E944C078091AA
:101690001301909114010E946107809111019091B2
:1016A00012010E94610720E030E04AE754E46091B3
:1016B0000D0170910E0180910F01909110010E9417
:1016C0000E1A0E94DB1BCB010E94610720E030E074
:1016D0004AE754E46091090170910A0180910B017D
:1016E00090910C010E940E1A0E94DB1BCB010E94FC
:1016F000610720E030E04AE754E460910501709111
:10170000060180910701909108010E940E1A0E9423
:10171000DB1BCB010E946107DF91CF91FF90EF901F
:10172000DF90CF90BF90AF909F908F900C94BE06AB
:10173000CF93C82F692F8091C8019091C9019C0156
:101740002F5F3F4F3093C9012093C8010E94D41AE4
:101750008091C8019091C9019C012F5F3F4F309348
:10176000C9012093C8016C2FCF910C94D41A109208
:10177000C9011092C80180911301909114010E9437
:10178000980B80911101909112010E94980B809109
:10179000230190E00E94980B20E030E04AE754E4F7
:1017A00060910D0170910E0180910F0190911001D7
:1017B0000E940E1A0E94DB1BCB010E94980B20E0B6
:1017C00030E04AE754E46091090170910A01809188
:1017D0000B0190910C010E940E1A0E94DB1BCB01A1
:1017E0000E94980B20E030E04AE754E46091050144
:1017F0007091060180910701909108010E940E1AD4
:101800000E94DB1BCB010C94980BCF92DF92EF92DE
:10181000FF920F931F93CF93DF9384E190E0909317
:10182000C9018093C80185E090E00E94980B90E088
:1018300080E00E94980BC8E4D2E08AE7C82E82E0DC
:10184000D82E96E1E92E92E0F92E06E911E0899171
:1018500099910E94980BF601819191916F010E94DC
:10186000980BF701819191917F010E94980BF801EB
:10187000819191918F010E94980BF2E0CA37DF07A6
:1018800031F7DF91CF911F910F91FF90EF90DF9093
:10189000CF900895AF92BF92CF92DF92EF92FF92D6
:1018A0000F931F93CF93DF93CDB7DEB764970FB637
:1018B000F894DEBF0FBECDBF80910E06882309F4D9
:1018C00038C00E9454068C010E9454065C01CE016F
:1018D00001966C01F12CE12CEA14FB0454F40E94F3
:1018E0005406F601819391936F01FFEFEF1AFF0AFF
:1018F000F3CF0F301105E8F4F801EF57F34F0C94D4
:101900003D1C900DBB0DC80DDF0DE20D3C0D390DDA
:10191000240D300D1A0D100D060DF70CB20C900CA5
:1019200081E029813A812130310509F080E08093FE
:1019300001028091C303811148C18AE00E944C07D3
:1019400064960FB6F894DEBF0FBECDBFDF91CF9186
:101950001F910F91FF90EF90DF90CF90BF90AF90CD
:101960000C94BE0669817A81072E000C880B990BB6
:101970000E94AF1920E030E04AE754E40E94691B5E
:1019800060930D0170930E0180930F0190931001ED
:101990006B817C81072E000C880B990B0E94AF197C
:1019A00020E030E04AE754E40E94691B609309019B
:1019B00070930A0180930B0190930C016D817E81DD
:1019C000072E000C880B990B0E94AF1920E030E025
:1019D0004AE754E40E94691B609305017093060175
:1019E00080930701909308010E94B70BA2CF81E07A
:1019F00029813A812130310509F080E0809323016B
:101A000090E090939D0280939C0293CF81E0298186
:101A10003A812130310509F080E08093240189CF9B
:101A200081E029813A812130310509F080E08093FD
:101A3000FA017FCF81E029813A812130310509F017
:101A400080E08093D30175CF81E029813A812130F4
:101A5000310509F080E08093F9011092F80169CF17
:101A60008091F901882309F464CF81E08093F80123
:101A700060CF0E94050C5DCF0E940C0569817A81C0
:101A800070937F0260937E02709387026093860258
:101A9000072E000C880B990B0E94AF190E9441047D
:101AA0008B819C8190938B0280938A028D819E8191
:101AB00090932902809328028F81988590932F021A
:101AC00080932E0289859A8590939702809396023F
:101AD0008B859C85909337028093360281E02D851B
:101AE0003E852130310509F080E0282F30E0309329
:101AF0009D0220939C02809323018F859889909367
:101B0000170280931602092E000CAA0BBB0B8093C0
:101B1000290190932A01A0932B01B0932C0109CFA6
:101B200069817A81072E000C880B990B0E94AF19EE
:101B300060931A0370931B0380931C0390931D03FF
:101B40006B817C81072E000C880B990B0E94AF19CA
:101B500060931E0370931F038093200390932103CF
:101B60006D817E81072E000C880B990B0E94AF19A6
:101B70000E944104DECE29813A813093F7022093FE
:101B8000F60281E0232B09F080E08093F802D1CEA9
:101B900089819A81892B19F410928A01CACE1092F8
:101BA000950110929401109293011092920110925B
:101BB00091011092900181E080938A01BACE0E9437
:101BC000FE04B7CE0E940C05B4CE64960FB6F8940E
:101BD000DEBF0FBECDBFDF91CF911F910F91FF9060
:101BE000EF90DF90CF90BF90AF9008951F920F922B
:101BF0000FB60F9211242F933F934F935F936F93E0
:101C00007F938F939F93AF93BF93EF93FF9386E25E
:101C100093E00E942002FF91EF91BF91AF919F91BD
:101C20008F917F916F915F914F913F912F910F9085
:101C30000FBE0F901F9018951F920F920FB60F9224
:101C400011242F938F939F93EF93FF93E09136038B
:101C5000F09137038081E0913C03F0913D0382FDD8
:101C60001BC0908180913F038F5F8F732091400351
:101C7000821741F0E0913F03F0E0EA5DFC4F958F61
:101C800080933F03FF91EF919F918F912F910F9040
:101C90000FBE0F901F9018958081F4CF1F920F9266
:101CA0000FB60F9211242F933F938F939F93AF936F
:101CB000BF938091CF019091D001A091D101B091BB
:101CC000D20130918F0123E0230F2D3758F5019673
:101CD000A11DB11D20938F018093CF019093D0015E
:101CE000A093D101B093D20180918B0190918C018E
:101CF000A0918D01B0918E010196A11DB11D80931F
:101D00008B0190938C01A0938D01B0938E01BF91B4
:101D1000AF919F918F913F912F910F900FBE0F9098
:101D20001F90189526E8230F0296A11DB11DD2CF52
:101D30001F920F920FB60F9211242F933F934F9340
:101D40005F936F937F938F939F93AF93BF93EF9323
:101D5000FF93E091CA01F091CB010995FF91EF91BA
:101D6000BF91AF919F918F917F916F915F914F91B3
:101D70003F912F910F900FBE0F901F9018951092CA
:101D800029031092280388EE93E0A0E0B0E080934E
:101D90002A0390932B03A0932C03B0932D0381E38C
:101DA00091E0909327038093260385EC90E0909335
:101DB00033038093320384EC90E090933503809357
:101DC000340380EC90E0909337038093360381ECEA
:101DD00090E0909339038093380382EC90E09093E5
:101DE0003B0380933A0386EC90E090933D0380930D
:101DF0003C0310923F031092400310924103109253
:101E0000420310921A061092190686E293E090930C
:101E10001506809314061092CB038CE2809317066C
:101E20008BE3809316068FE28093180680E48093FC
:101E3000C6038FE38093C7031092C5031092100668
:101E400010920F06109212061092110681E08093F4
:101E50000D06EBE1F6E01192119286E0EF37F807FC
:101E6000D1F71092CA0380E090E0ACE8B2E480932E
:101E7000220390932303A0932403B093250380E0CF
:101E800090E0A8ECB3E480931E0390931F03A0930B
:101E90002003B093210380E090E0A0EAB1E48093B6
:101EA0001A0390931B03A0931C03B0931D0384E6B5
:101EB00090E0A0E0B0E08093160390931703A09306
:101EC0001803B09319031092150310921403089588
:101ED000CF93DF9300D000D01F92CDB7DEB77894B8
:101EE00084B5826084BD84B5816084BD85B582601F
:101EF00085BD85B5816085BD80916E0081608093D0
:101F00006E00109281008091810082608093810038
:101F10008091810081608093810080918000816048
:101F2000809380008091B10084608093B1008091A3
:101F3000B00081608093B00080917A0084608093CB
:101F40007A0080917A00826080937A0080917A0092
:101F5000816080937A0080917A00806880937A0013
:101F60001092C100109204011092D4021092D50276
:101F70001092D6021092D7021092950110929401FD
:101F8000109293011092920110929101109290017F
:101F900080E1809381001092800001E00093CE01E7
:101FA00020E43FE13093CD012093CC0130938700B2
:101FB0002093860091E1909381002DEA30E03093E8
:101FC000CB012093CA0100936F00E0913603F0919A
:101FD000370392E09083E0913203F0913303108253
:101FE000E0913403F0913503808310923E03E09139
:101FF0003A03F0913B0386E08083E0913803F0914F
:102000003903808180618083E0913803F091390346
:10201000808188608083E0913803F091390380816A
:1020200080688083E0913803F091390380818F7D4F
:10203000808361E08DE00E942F0360E08CE00E94CD
:102040002F0381E090E00E94DD0361E089E00E94BF
:102050002F0390E080E00E94A40360E08AE00E94E9
:102060002F030093CB0383E89AE090931A068093A2
:10207000190686EC9AE09093200680931F068DE95E
:1020800097E090932606809325068BE199E0909344
:102090002A06809329068AE49CE090932E0680937A
:1020A0002D068091C303811118C00E944C078091B6
:1020B000C303882381F060911706809114069091E4
:1020C00015060E949B0160E771E0809114069091D3
:1020D00015060E94AF060E94BE061092C90110921A
:1020E000C8010E94A10A9A8389830E94A10A2091B3
:1020F00013013091140109811A810217130709F0A5
:1021000000C211E0198320911101309112012817AA
:10211000390709F419820E94A10A019709F0F4C154
:1021200081E0809323010E94A10ABC01990F880BD2
:10213000990B0E94AF1920E030E04AE754E40E9476
:10214000691B6B017C012DEC3CEC4CEC5DE30E94C7
:10215000111C87FDDEC120E030E040E251E4C70100
:10216000B6010E94A81918160CF4D3C1C0920D0133
:10217000D0920E01E0920F01F09210010E94A10A8C
:10218000BC01990F880B990B0E94AF1920E030E039
:102190004AE754E40E94691B6B017C012DEC3CEC86
:1021A0004CEC5DE30E94111C87FDC2C120E030E0D1
:1021B00040E251E4C701B6010E94A81918160CF4B8
:1021C000B7C1C0920901D0920A01E0920B01F092CE
:1021D0000C010E94A10ABC01990F880B990B0E9467
:1021E000AF1920E030E04AE754E40E94691B6B011C
:1021F0007C012DEC3CEC4CEC5DE30E94111C87FD56
:10220000A6C120E030E040E251E4C701B6010E94DF
:10221000A81918160CF49BC1C0920501D0920601B2
:10222000E0920701F0920801098101119CC108E4C4
:1022300012E0FAE7EF2EF2E0FF2EA6E16A2EA2E00E
:102240007A2EB6E94B2EB1E05B2EB201D301C70165
:102250001801F101119211921F01FC0111921192CA
:10226000CF011D921D92FB0111921192BF01FAE75D
:102270002F16F2E03F0669F70E942A0584E190E0FC
:102280009093C9018093C8010E94A10A059709F0A3
:102290006DC10E94A10A0E94A10A5C010E94A10ACC
:1022A0006C010E94A10A4C010E94A10AD8012D9143
:1022B0003D918D01A216B30609F058C1F701C192F4
:1022C000D1927F01D3018D929D923D01F2018193C4
:1022D00091932F0120163106F1F680916A029091B8
:1022E0006B02059709F042C160917E0270917F02F6
:1022F000072E000C880B990B0E94AF190E94410415
:1023000081E020919C0230919D022130310509F03D
:1023100080E0809323010E9482031092E1021092D8
:10232000E0021092F9011092DE021092DF02109288
:10233000E5021092D3011092E2021092DD02809128
:10234000230181111AC181E08093E3028093E202AC
:10235000FF24F39422242394312C8091CA03811109
:1023600027C18091140690911506DC01ED91FC9136
:102370000084F185E02D0995892B09F419C180911C
:10238000140690911506DC01ED91FC910084F18515
:10239000E02D0995C12C72E0D72E8115924064F48E
:1023A0008091140690911506DC01ED91FC9100845A
:1023B000F185E02D09956C01009114061091150628
:1023C0001A8309836CE0A62E64E0B62E450110E066
:1023D00000E0C016D106D9F12FB7F8948091CF0153
:1023E0009091D001A091D101B091D2012FBFE9818C
:1023F000FA8180879187A287B387A981BA81ED91FD
:10240000FC9111970284F385E02DCD01099597FF8A
:1024100095C62FB7F8948091CF019091D001A091EB
:10242000D101B091D2012FBFE981FA814085518558
:1024300062857385841B950BA60BB70B4481558170
:102440006681778184179507A607B707B0F21A82CD
:10245000198209811A81C016D10609F47ECFD501EF
:102460009D915D0110920C06309118062091C903D0
:102470009093C903931304C0921302C01092C9032E
:102480008091C503E82FF0E040911606ED53FC4F14
:10249000941376C0321709F473C01186882329F08B
:1024A000B1E0B0930C061092C9031092C5031092CC
:1024B000100610920F061092120610921106E1E01B
:1024C000E0930D0680910C06813009F06AC00E94ED
:1024D00054068093C403823308F05CC020910E063A
:1024E000222309F457C0FC01FF27EE0FFF1FE55E12
:1024F000F94F0190F081E02D309709F44BC0099518
:1025000050C001E0098307CE1092230111E0198326
:102510000ACE80E090E0A0E8BFE380930D019093A5
:102520000E01A0930F01B093100101E0098326CEA4
:1025300080E090E0A0E8BFE38093090190930A0156
:10254000A0930B01B0930C0111E0198342CE80E0FF
:1025500090E0A0E8BFE38093050190930601A0936B
:102560000701B09308010E94B70B61CE0E942A05B3
:102570000E94B70B0E94050CCECE1092E302E8CE6B
:1025800091878F5F8093C5039091C703891708F0E7
:102590008CCF98CFE0911906F0911A06309709F088
:1025A000AECF09811A810F5F1F4F1A83098351CF64
:1025B0008091100390911103A0911203B091130325
:1025C0000697A105B10570F18091E4019091E501B4
:1025D00001969093E5018093E40180E00E946B03F3
:1025E000BC01990F880B990B0E94AF199B01AC019C
:1025F0006091E6017091E7018091E8019091E90115
:102600000E94FD1A6093E6017093E7018093E80150
:102610009093E9011092100310921103109212038B
:102620001092130380910C0390910D03A0910E035F
:10263000B0910F03893E9340A105B10508F459C03C
:1026400087E00E946B03BC01990F880B990B0E94D5
:10265000AF1920E030E040E651E40E940E1A20E07D
:1026600030E04AE754E40E94691B4B015C01809210
:10267000D4019092D501A092D601B092D70120E06A
:1026800030E040E251E40E94111C18160CF041C1E8
:1026900020E030E040E551E4C501B4010E94A819F2
:1026A00087FF37C1F092F9028091D301811119C0DF
:1026B0008091DE028823A9F08091FE029091FF02B2
:1026C000019779F48091FA029091FB02A091FC02AB
:1026D000B091FD02813E9349A440B10510F0F09203
:1026E000E50210920C0310920D0310920E0310924B
:1026F0000F038091080390910903A0910A03B09100
:102700000B03893E9340A105B105A8F08091E0023A
:102710009091E1029C012E5031092330310508F4DB
:10272000FBC01092EE011092080310920903109260
:102730000A0310920B038091040390910503A0916A
:102740000603B0910703C397A105B10508F45EC065
:102750006091D4027091D5028091D6029091D702F7
:102760000E94AD1920E030E04AE754E40E94691B62
:102770006093EA017093EB018093EC019093ED017B
:102780006091E4017091E501072E000C880B990B14
:102790000E94AF199B01AC016091E6017091E701C5
:1027A0008091E8019091E9010E94691B22EA35E4D9
:1027B0004EE450E40E940E1A28EB3EE145E05EE351
:1027C0000E940E1A20E030E048E452E40E94FC1A15
:1027D000609315017093160180931701909318016F
:1027E0000E94FE031092E5011092E4011092E601AE
:1027F0001092E7011092E8011092E901109204038F
:1028000010920503109206031092070380910003B3
:1028100090910103A0910203B09103030091FE0285
:102820001091FF021A830983C397A105B10508F42B
:102830004BC0012B09F0BDC024E630E040E050E081
:1028400020931603309317034093180350931903F2
:102850001092F3011092F4011092F5011092F6011A
:102860008090250190902601A0902701B09028012A
:1028700020E030E040EA51E460911E0370911F03B4
:1028800080912003909121030E94FD1AA5019401DB
:102890000E94A81987FF9AC01092EE021092EF02D0
:1028A0001092F0021092F1021092EF011092F001DA
:1028B0001092F1011092F2011092000310920103A4
:1028C000109202031092030309811A81012B41F433
:1028D0001092FA021092FB021092FC021092FD027A
:1028E00080910102882321F03092FE012092FD01A7
:1028F0009091FA01992309F427C41092FE011092D5
:10290000FD01882309F429C43092FC012092FB01C7
:1029100038C41092F902C8CE0E9709F004CF809106
:10292000EE01811100CF2091E0013091E101409151
:10293000E2015091E301609125017091260180919F
:102940002701909128016093E0017093E101809349
:10295000E2019093E3014090DC015090DD01609032
:10296000DE017090DF010E94FC1A4B015C01809235
:10297000DC019092DD01A092DE01B092DF01AC019A
:102980009B01C301B2010E94111C18160CF0CBCEA2
:102990002091D8013091D9014091DA015091DB01A9
:1029A000C501B4010E94A81987FFBDCEF092EE01C7
:1029B000BACE84E190E0A0E0B0E08093160390935B
:1029C0001703A0931803B093190342CFA5019401F4
:1029D0006091220370912303809124039091250339
:1029E0000E94FC1A2B013C0120E030E0A901C50146
:1029F000B4010E94111C18160CF084C08091EE01E5
:102A0000882309F47FC0A30192016091EF017091C6
:102A1000F0018091F1019091F2010E94FD1A609302
:102A2000EF017093F0018093F1019093F2012091F6
:102A3000190130911A0140911B0150911C016091C4
:102A4000EF017091F0018091F1019091F2010E94EB
:102A50000E1A4B015C0120911D0130911E01409125
:102A60001F0150912001C301B2010E940E1A9B0167
:102A7000AC01C501B4010E94FD1AD62EE72E8C01CF
:102A8000862F9E2DD8018093F3019093F401A0939B
:102A9000F501B093F60120E030E046E953E46D2DF6
:102AA0007E2DC8010E94111C181624F4D12CE12C93
:102AB00006E913E4609116037091170380911803DF
:102AC000909119030E94AD19962EA72EB82EC92EEB
:102AD0002D2D3E2DA8010E94111C181624F09D2CAE
:102AE000AE2CB02EC12E692D7A2D8B2D9C2D0E94DF
:102AF000E21B6093EE027093EF028093F0029093DA
:102B0000F102DACE1092EF011092F0011092F10171
:102B10001092F2018CCF3092F7022092F6025AC343
:102B20000B81002309F496C361E083E00E942F0328
:102B300061E08DC30B81002309F4F9C28091E302A7
:102B4000811107C061E08DE00E940103F092F7015E
:102B5000BAC38091E202882391F01092E1021092B0
:102B6000E0021092DF020E9482031092E2021092B1
:102B7000DE021092DD021092E5021092E402409013
:102B8000D4025090D5026090D6027090D702E8ED42
:102B9000F2E090E080E021912223D1F09C012455C5
:102BA0003D4F6901AC0140545D4FDA014D915D919B
:102BB0006D917C9193018201041B150B260B370B41
:102BC000B901A801D6014D935D936D937C93139742
:102BD000049684319105F9F6C090E002D090E102AC
:102BE0008601000F111F1D830C83F801E658FD4F6D
:102BF000008111818090F701682D8DE00E94010312
:102C000021E082268092F701EC81FD81E85BFD4F97
:102C10000190F081E02DE730F10508F061C0ED5E34
:102C2000F94E0C943D1C3916E217D9161618FD17EB
:102C300076181A1604301105C9F40C811D810A5E3C
:102C40001D4FD8018D919C918F30B7E29B0774F492
:102C5000092E000CAA0BBB0B8093290190932A012B
:102C6000A0932B01B0932C01F092DD02F092DF02D1
:102C700037C08091DE02811125C060911E037091E2
:102C80001F0380912003909121030E94DB1B2B01E5
:102C900060911A0370911B0380911C0390911D0396
:102CA0000E94DB1B061717072CF0B80140165106CF
:102CB0000CF4B201072E000C880B990B0E94AF197F
:102CC0000E9441040C811D810A5E1D4FD8016D9147
:102CD0007C9163367105F1F4F092DF021092DE020E
:102CE0008091F901882309F411C28091F8018823A9
:102CF00009F4E9C28091E0029091E102019690937B
:102D0000E1028093E0021092DF021092F80110922B
:102D1000DE02D9C28090220390902303A090240366
:102D2000B0902503072E000C880B990B0E94AF1959
:102D30002B013C01BEE0CB16D104B1F42DED34E201
:102D400046E25FE3C501B4010E940E1A27ED33EAA3
:102D50004EE552E40E94FD1A4B015C01412C512CBE
:102D600030EA632E30E4732E209125013091260144
:102D70004091270150912801C501B4010E94FC1A1D
:102D80000E94DB1B9B0177FF04C022273327261BF1
:102D9000370BB901330F880B990B0E94AF19A301B0
:102DA00092010E94A81918160CF096CFF092DE023C
:102DB00097CF0330110509F4DAC00730110511F17E
:102DC0000230110509F08CCFEE2009F4B8C08091D3
:102DD000DC0281118BC020E137E240E050E020931B
:102DE0001202309313024093140250931502409242
:102DF000D0025092D1026092D2027092D302F0922D
:102E0000DC026ECF8091DD02882309F44CC08091F2
:102E1000DB0281111FC02091290130912A014091CC
:102E20002B0150912C01A8EEB3E00E94E21A6093AE
:102E30000E0270930F028093100290931102409241
:102E4000CC025092CD026092CE027092CF02F092EC
:102E5000DB0246CF4091B8025091B9026091BA02AC
:102E60007091BB0280910E0290910F02A09110020E
:102E7000B0911102481759076A077B0708F430CF51
:102E80001092DB021092B8021092B9021092BA02AC
:102E90001092BB0210920E0210920F0210921002BA
:102EA00010921102E3CEEE2089F08091DC028111B4
:102EB00072C000E117E220E030E0009312021093AC
:102EC0001302209314023093150291CF0C811D81BF
:102ED0000A5E1D4FD8018D919C9109811A810817B6
:102EE000190709F4C3CE9110C1CEFACE4091BC02AD
:102EF0005091BD026091BE027091BF02809112029A
:102F000090911302A0911402B091150284179507B5
:102F1000A607B70708F0E4CE1092DC021092BC02BC
:102F20001092BD021092BE021092BF0210921202C5
:102F300010921302109214021092150297CE0C8177
:102F40001D810A5E1D4FD8012D913C918091FD019C
:102F50009091FE012817390709F0C2CEAA94AB2838
:102F600009F484CE8091FA01811180CEB9CEE110AE
:102F70009CCF0C811D810A5E1D4FD8018D919C91C3
:102F8000A816B90609F0ACCE8091FD019091FE0122
:102F9000019741F76BCE4091BC025091BD02609108
:102FA000BE027091BF028091120290911302A09113
:102FB0001402B0911502481759076A077B0708F4F5
:102FC0008FCEAACF0115110571F00130110509F05E
:102FD00087CE0C811D810A5E1D4FD8018D919C9179
:102FE0000E94DD0343CE0C811D810A5E1D4FD80176
:102FF0008D919C910E94A40339CEC801880F991F1E
:10300000880F991FFC01E054FD4F4082518262827B
:1030100073828E5F9D4FFC01108211821282138297
:10302000F801E852FD4F01E0008320CE98012852BC
:103030003D4F6901D9018C91000F111F000F111F25
:10304000A8014E5F5D4F8823D9F0FA0180819181FC
:10305000A281B3810097A105B10571F50C811D8195
:103060000A5E1D4FF801A081B18128EE33E00E9475
:10307000431CDA016D937D938D939C93139730CE0F
:10308000AC81BD81AA5EBD4F0D90BC91A02D28EEF4
:1030900033E00E94431CFA0160837183828393832F
:1030A00000541D4FD8014D925D926D927C92139702
:1030B00001E0F601008314CE04551D4FF801808015
:1030C0009180A280B38088169906AA06BB0608F4F0
:1030D00007CED9011C921082118212821382DA016A
:1030E0001D921D921D921C921397C0CD012B39F495
:1030F000F092E202109223010E94FE04F1CD1092A0
:10310000E202F09223010E940C05EACD8091DF02D9
:10311000882309F4D8C08091E0029091E1020196E1
:103120009093E1028093E0021092DF02F0CD90E0F4
:1031300080E00E94A4030E940C05C5C0D4018D93B9
:103140004D010F5F1F4F45C98111DECB8CE00E94FE
:10315000D8029093FE018093FD0180911403909119
:103160001503892B39F48BE00E94D8029093220139
:10317000809321018AE00E94D8029093FC01809301
:10318000FB01A090FB01B090FC01E0900102EE2059
:1031900021F0309200022092FF01909024019920AA
:1031A00009F4A6C0109200021092FF010091FF01E5
:1031B000109100021A8309831091F9021B831123D5
:1031C00029F08091F802882309F4A5CC1092F70227
:1031D0001092F6024090EE025090EF026090F002E2
:1031E0007090F1028091F2029091F302A091F402AA
:1031F000B091F502481659066A067B0640F461E074
:1032000083E00E942F0360E083E00E94010380912D
:10321000EA029091EB02A091EC02B091ED028D32A6
:103220009140A105B10530F18091160390911703EB
:10323000A0911803B091190384159505A605B7054B
:1032400008F46ECC61E083E00E942F0360E083E02D
:103250000E9401031092F2021092F3021092F40203
:103260001092F5021092EA021092EB021092EC0218
:103270001092ED021B81111108C061E083E00E94F1
:103280002F0360E083E00E9401038091E6029091A9
:10329000E702A091E802B091E90281359105A1050C
:1032A000B105C8F08091E502882309F443CC90E091
:1032B00080E00E94A40390E080E00E94DD030E9471
:1032C0000C05F092E4021092E6021092E7021092CE
:1032D000E8021092E902E0E0F0E0EF2B09F43DC8CB
:1032E0000E940C02882309F438C80E94000032C8EA
:1032F000E1105CCF88E00E94D80290930002809396
:10330000FF0154CFFC0188279927E89421912032AE
:10331000E9F3293010F02E30C8F32B3241F02D3272
:1033200039F4689404C00E94A019820F911D219164
:1033300020532A30C0F31EF4909581959F4F089535
:103340007AE0979F902D879F802D910D11240895ED
:103350000E94EA1908F481E00895E89409C097FBF7
:103360003EF490958095709561957F4F8F4F9F4F5C
:103370009923A9F0F92F96E9BB279395F6958795A0
:1033800077956795B795F111F8CFFAF4BB0F11F463
:1033900060FF1BC06F5F7F4F8F4F9F4F16C088230A
:1033A00011F096E911C0772321F09EE8872F762F40
:1033B00005C0662371F096E8862F70E060E02AF081
:1033C0009A95660F771F881FDAF7880F969587956D
:1033D00097F90895990F0008550FAA0BE0E8FEEF42
:1033E00016161706E807F907C0F012161306E407C9
:1033F000F50798F0621B730B840B950B39F40A26C2
:1034000061F0232B242B252B21F408950A2609F49F
:10341000A140A6958FEF811D811D08950E94211A5C
:103420000C94921A0E94841A38F00E948B1A20F091
:10343000952311F00C947B1A0C94811A11240C948E
:10344000C61A0E94A31A70F3959FC1F3950F50E01E
:10345000551F629FF001729FBB27F00DB11D639F46
:10346000AA27F00DB11DAA1F649F6627B00DA11DEC
:10347000661F829F2227B00DA11D621F739FB00D92
:10348000A11D621F839FA00D611D221F749F332702
:10349000A00D611D231F849F600D211D822F762F9B
:1034A0006A2F11249F5750409AF0F1F088234AF078
:1034B000EE0FFF1FBB1F661F771F881F91505040E4
:1034C000A9F79E3F510580F00C947B1A0C94C61A04
:1034D0005F3FE4F3983ED4F3869577956795B7956B
:1034E000F795E7959F5FC1F7FE2B880F911D969585
:1034F000879597F9089597F99F6780E870E060E0F5
:1035000008959FEF80EC089500240A94161617067C
:1035100018060906089500240A94121613061406C4
:1035200005060895092E0394000C11F4882352F027
:10353000BB0F40F4BF2B11F460FF04C06F5F7F4FDF
:103540008F4F9F4F089557FD9058440F551F59F0C6
:103550005F3F71F04795880F97FB991F61F09F3F80
:1035600079F087950895121613061406551FF2CFA9
:103570004695F1DF08C0161617061806991FF1CFF9
:1035800086957105610508940895E894BB27662720
:103590007727CB0197F90895F999FECF92BD81BDA8
:1035A000F89A992780B50895262FF999FECF1FBA6A
:1035B00092BD81BD20BD0FB6F894FA9AF99A0FBE5C
:1035C000019608950E94ED1AA59F900DB49F900D4D
:1035D000A49F800D911D11240895A29FB001B39F57
:1035E000C001A39F700D811D1124911DB29F700D0C
:1035F000811D1124911D08955058BB27AA270E94B0
:10360000141B0C94921A0E94841A38F00E948B1A90
:1036100020F039F49F3F19F426F40C94811A0EF42B
:10362000E095E7FB0C947B1AE92F0E94A31A58F34C
:10363000BA17620773078407950720F079F4A6F597
:103640000C94C51A0EF4E0950B2EBA2FA02D0B0189
:10365000B90190010C01CA01A0011124FF27591BD7
:1036600099F0593F50F4503E68F11A16F040A22FDD
:10367000232F342F4427585FF3CF4695379527954E
:10368000A795F0405395C9F77EF41F16BA0B620B4D
:10369000730B840BBAF09150A1F0FF0FBB1F661F94
:1036A000771F881FC2F70EC0BA0F621F731F841FD7
:1036B00048F4879577956795B795F7959E3F08F0FD
:1036C000B0CF9395880F08F09927EE0F97958795BF
:1036D00008950E947D1B0C94921A0E948B1A58F038
:1036E0000E94841A40F029F45F3F29F00C947B1A61
:1036F00051110C94C61A0C94811A0E94A31A68F3F3
:103700009923B1F3552391F3951B550BBB27AA279A
:1037100062177307840738F09F5F5F4F220F331FD4
:10372000441FAA1FA9F335D00E2E3AF0E0E832D09C
:1037300091505040E695001CCAF72BD0FE2F29D09F
:10374000660F771F881FBB1F261737074807AB0771
:10375000B0E809F0BB0B802DBF01FF2793585F4FE6
:103760003AF09E3F510578F00C947B1A0C94C61ADF
:103770005F3FE4F3983ED4F3869577956795B795C8
:10378000F7959F5FC9F7880F911D9695879597F9D3
:103790000895E1E0660F771F881FBB1F621773074C
:1037A0008407BA0720F0621B730B840BBA0BEE1F61
:1037B00088F7E09508950E94E21B6894B1110C947B
:1037C000C61A08950E94AB1A88F09F5798F0B92F37
:1037D0009927B751B0F0E1F0660F771F881F991F46
:1037E0001AF0BA95C9F714C0B13091F00E94C51A09
:1037F000B1E008950C94C51A672F782F8827B85F19
:1038000039F0B93FCCF3869577956795B395D9F79D
:103810003EF490958095709561957F4F8F4F9F4FA7
:1038200008950E94EA1908F48FEF08950E94EA199A
:10383000880B990B0895A1E21A2EAA1BBB1BFD0150
:103840000DC0AA1FBB1FEE1FFF1FA217B307E4077F
:10385000F50720F0A21BB30BE40BF50B661F771FD7
:10386000881F991F1A9469F76095709580959095B7
:103870009B01AC01BD01CF010895EE0FFF1F059024
:10388000F491E02D09940E94ED1AB7FF0895821B70
:08389000930B0895F894FFCF9B
:103898000000803F010000803F0000803F00008062
:1038A8003F0800020000004842BC74133C6666E60C
:1038B8003F010001010000F0413C00000000000051
:1038C800004202A201CF018F020002DE01F2010DC7
:1038D8000A006E616E00696E66006F766600436F5F
:1038E8006D6D616E6420776974686F75742061749A
:1038F8007461636865642063616C6C6261636B000A
:1039080043436F6E74726F6C6C65722068617320CC
:0A391800737461727465642100008D
:00000001FF
