:100000000C9477000C949F000C949F000C949F001C
:100010000C949F000C949F000C949F000C949F00E4
:100020000C949F000C949F000C949F000C949F00D4
:100030000C949F000C9460070C949F000C949F00FC
:100040000C9416070C949F000C940D060C94E70575
:100050000C949F000C949F000C949F000C949F00A4
:100060000C949F000C949F0014179018B117C3189C
:10007000A9181F19FE16580D830D8A0DA10DA40D88
:10008000040D010DEC0CF80CE20CD80CCE0CBF0CDE
:100090007A0C0000000800020100000304070000C1
:1000A00000000000000000000000240027002A00DB
:1000B00000000000250028002B00000000002300A5
:1000C00026002900040404040404040402020202B9
:1000D000020203030303030301020408102040800B
:1000E00001020408102001020408102078191124CC
:1000F0001FBECFEFD8E0DEBFCDBF26E0A6E9B1E05E
:1001000001C01D92A03AB207E1F711E0A0E0B1E012
:10011000E2EDF9E302C005900D92A639B107D9F7D7
:1001200010E0C7E7D0E004C02197FE010E94D51C73
:10013000C637D107C9F70E94C70F0C94E71C0C946F
:100140000000CF92DF92EF92FF920F931F93CF9315
:10015000DF936C017A018B01C0E0D0E0CE15DF05A2
:1001600089F0D8016D918D01D601ED91FC9101903E
:10017000F081E02DC6010995892B11F47E0102C0A2
:100180002196ECCFC701DF91CF911F910F91FF9086
:10019000EF90DF90CF900895FC01918D828D98179C
:1001A00061F0828DDF01A80FB11D5D968C91928D5B
:1001B0009F5F9F73928F90E008958FEF9FEF089558
:1001C000FC01918D828D981731F0828DE80FF11D21
:1001D000858D90E008958FEF9FEF0895FC01918D3C
:1001E000228D892F90E0805C9F4F821B91098F7335
:1001F0009927089587E493E00E94EE0021E0892B7F
:1002000009F420E0822F0895FC01848DDF01A80FFE
:10021000B11DA35ABF4F2C91848D90E001968F732E
:100220009927848FA689B7892C93A089B1898C914D
:1002300080648C93938D848D981306C00288F38913
:10024000E02D80818F7D80830895EF92FF920F9340
:100250001F93CF93DF93EC0181E0888F9B8D8C8D72
:10026000981305C0E889F989808185FD24C0F62EA0
:100270000B8D10E00F5F1F4F0F731127E02E8C8D39
:10028000E8120CC00FB607FCFACFE889F989808123
:1002900085FFF5CFCE010E940401F1CF8B8DFE01C9
:1002A000E80FF11DE35AFF4FF0820B8FEA89FB89BB
:1002B0008081806207C0EE89FF896083E889F989BF
:1002C00080818064808381E090E0DF91CF911F91F5
:1002D0000F91FF90EF900895CF93DF93EC01888DFD
:1002E0008823C9F0EA89FB89808185FD05C0A8893A
:1002F000B9898C9186FD0FC00FB607FCF5CF8081C0
:1003000085FFF2CFA889B9898C9185FFEDCFCE0109
:100310000E940401E7CFDF91CF91089580E090E043
:10032000892B29F00E94FA0081110C940000089595
:10033000833081F028F4813099F08230A1F0089563
:100340008730A9F08830B9F08430D1F480918000F2
:100350008F7D03C0809180008F7780938000089507
:1003600084B58F7702C084B58F7D84BD0895809158
:10037000B0008F7703C08091B0008F7D8093B00074
:1003800008958091DD029091DE02A091DF02B0918C
:10039000E0020196A11DB11D8093DD029093DE0263
:1003A000A093DF02B093E0028091010390910203D9
:1003B000A0910303B09104030196A11DB11D809388
:1003C000010390930203A0930303B093040380916D
:1003D000FD029091FE02A091FF02B09100030196F0
:1003E000A11DB11D8093FD029093FE02A093FF0218
:1003F000B09300038091EB029091EC02A091ED028A
:10040000B091EE020196A11DB11D8093EB02909375
:10041000EC02A093ED02B093EE028091090390915B
:100420000A03A0910B03B0910C030196A11DB11D0D
:100430008093090390930A03A0930B03B0930C03DA
:1004400080910D0390910E03A0910F03B0911003C2
:100450000196A11DB11D80930D0390930E03A093EF
:100460000F03B09310038091EF029091F002A091DE
:10047000F102B091F2020196A11DB11D8093EF022D
:100480009093F002A093F102B093F2028091F702F0
:100490009091F802A091F902B091FA020196A11D83
:1004A000B11D8093F7029093F802A093F902B093E4
:1004B000FA028091D6019091D701A091D801B09114
:1004C000D9010196A11DB11D8093D6019093D7014A
:1004D000A093D801B093D9018091050390910603B0
:1004E000A0910703B09108030196A11DB11D80934F
:1004F000050390930603A0930703B093080380912C
:100500002C03882359F180919A0190919B010196C7
:100510008C3391052CF490939B0180939A0108955C
:1005200010929B0110929A018091980190919901EB
:1005300001968C3391052CF4909399018093980146
:1005400008951092990110929801809196019091CE
:1005500097010196909397018093960108950E94C8
:10056000E21CCF93C82F692F8091CE019091CF01CB
:100570009C012F5F3F4F3093CF012093CE010E940B
:10058000771B8091CE019091CF019C012F5F3F4F4F
:100590003093CF012093CE016C2FCF910C94771B19
:1005A0008F929F92AF92BF92CF92DF92EF92FF9283
:1005B0000F931F93CF93DF9386E090E00E94A20EEB
:1005C00083E8C82E82E0D82E9FE1E92E92E0F92E32
:1005D0002CE9A22E21E0B22E01E512E0C0E0D0E02D
:1005E000CE010E94F50D4801F801819191918F0192
:1005F0000E94F50DF601819191916F010E94F50D18
:10060000F701819191917F010E94F50DF501819192
:1006100091915F010E94F50D2196F40180819181F5
:10062000059719F0C931D105D9F6DF91CF911F9106
:100630000F91FF90EF90DF90CF90BF90AF909F9081
:100640008F900C943A0F0F931F9388E090E00E94D4
:10065000A20E6091F3017091F4018091F5019091E7
:10066000F6012091E403222321F042E050E00E94B1
:10067000320E6091210170912201809123019091AD
:1006800024012091E403222321F041E050E00E9464
:10069000320E6091DB017091DC018091DD0190915F
:1006A000DE012091E403222321F041E050E00E948A
:1006B000320E80919A0190919B010E94F50D8091DC
:1006C0009801909199010E94F50D80919601909169
:1006D00097010E94F50D609143037091440380914E
:1006E0004503909146030E945A0E60913B0370911E
:1006F0003C0380913D0390913E030E945A0E60910D
:100700003F037091400380914103909142030E9406
:100710005A0E60911A0170911B0180911C019091F9
:100720001D010E945A0E609116017091170180916F
:100730001801909119010E945A0E8091F302909134
:10074000F402A091F502B091F602009137031091E6
:1007500038032091390330913A03BC01CD01601B6D
:10076000710B820B930B0E94501A20E030E046E997
:1007700053E40E94011C20E030E048EC52E40E9467
:10078000B11A0E945A0E6091F8017091F90180919E
:10079000FA019091FB010E945A0E8091FB02909108
:1007A000FC020E94F50D60912A0170912B0180914D
:1007B0002C0190912D010E945A0E60E070E080E8BB
:1007C0009FE30E945A0E6091110170911201809175
:1007D0001301909114010E945A0E6091FC017091D6
:1007E000FD018091FE019091FF010E945A0E8091BF
:1007F0000702909108020E94F50D80912E019091C0
:100800002F010E94F50D80910502909106020E9431
:10081000F50D80910002909101020E94F50D8091EA
:10082000090290910A020E94F50D6091B502709143
:10083000B6028091B7029091B8020E947E0E60913C
:10084000B9027091BA028091BB029091BC020E94E1
:100850007E0E6091BD027091BE028091BF029091A8
:10086000C0020E947E0E60911B0270911C0280915A
:100870001D0290911E020E947E0E6091C502709131
:10088000C6028091C7029091C8020E947E0E80919C
:10089000E90290E00E94F50D8091250190912601DA
:1008A0000E94F50D80911E0190E00E94F50D80914F
:1008B000E80290E00E94F50D8091E8028823B1F1F2
:1008C0008091E6029091E7020E94F50DE091E60228
:1008D000F091E702EE0FFF1FEF5AFD4F80819181EB
:1008E0000E94F50DE091E602F091E702EE0FFF1F86
:1008F000ED57FD4F808191810E94F50DE091E60258
:10090000F091E702EE0FFF1FE15EFD4F80819181C4
:100910000E94F50DE091E602F091E702EE0FFF1F55
:10092000E456FE4F808191810E94F50D1F910F9139
:100930000C943A0F65E671E081E090E00C94580F5A
:10094000DC01ED91FC910190F081E02D099461159D
:10095000710579F0FB0101900020E9F73197AF01B3
:10096000461B570BDC01ED91FC910280F381E02DD9
:10097000099480E090E008954F925F926F927F9289
:10098000EF92FF920F931F93CF93DF93CDB7DEB714
:10099000A1970FB6F894DEBF0FBECDBF7C01FA0160
:1009A000CB0119A2223008F42AE08E010F5D1F4FFF
:1009B000422E512C612C712CBF01A30192010E9487
:1009C000B31CF901CA01015011096A3014F4605DC9
:1009D00001C0695CD8016C93232B242B252B61F774
:1009E000B801C7010E94A704A1960FB6F894DEBF14
:1009F0000FBECDBFDF91CF911F910F91FF90EF9070
:100A00007F906F905F904F9008954F925F926F929A
:100A10007F928F929F92AF92BF92CF92DF92EF928E
:100A2000FF92CF93DF93EC016A017B01B22E9A0112
:100A3000AB01C701B6010E94AE1C882319F067E81C
:100A400071E027C026013701E89477F82FEF3FEFD8
:100A50004FE75FE7C301B2010E94AE1C81110DC0D8
:100A60002FEF3FEF4FE75FE7C301B2010E944B1A40
:100A700018161CF46BE871E00CC02FEF3FEF4FE746
:100A80005FE4C701B6010E94A91C18169CF46FE828
:100A900071E0CE01DF91CF91FF90EF90DF90CF908A
:100AA000BF90AF909F908F907F906F905F904F908E
:100AB0000C94A7042FEF3FEF4FE75FECC701B6019F
:100AC0000E944B1A87FDE3CF20E030E0A901C70167
:100AD000B6010E944B1A87FF0AC06DE2CE010E9448
:100AE000A0044C01F7FAF094F7F8F09402C0812CBE
:100AF000912CA12C60E070E080E09FE3AB1441F00A
:100B000020E030E040E251E40E94011CA394F6CFC3
:100B10009B01AC01C701B6010E94951B2B013C0152
:100B20000E947A1C6B017C010E94501A9B01AC014F
:100B3000C301B2010E94941B2B013C012AE0B701C2
:100B4000A601CE010E94BC047C01E80CF91CBB206C
:100B500031F06EE2CE010E94A004E80EF91EDB2CFB
:100B6000DD2029F120E030E040E251E4C301B20190
:100B70000E94B11A2B013C010E947A1C4B01A12C4E
:100B8000B12C2AE0B501A401CE010E94BC04E80EFC
:100B9000F91EC501B4010E94501A9B01AC01C301AA
:100BA000B2010E94941B2B013C01DA94D9CFC701FA
:100BB000DF91CF91FF90EF90DF90CF90BF90AF90FB
:100BC0009F908F907F906F905F904F9008951F92AD
:100BD0000F920FB60F9211242F933F934F935F9371
:100BE0006F937F938F939F93AF93BF93EF93FF93F5
:100BF00087E493E00E940401FF91EF91BF91AF91D0
:100C00009F918F917F916F915F914F913F912F9124
:100C10000F900FBE0F901F9018951F920F920FB656
:100C20000F9211242F938F939F93EF93FF93E09153
:100C30005703F09158038081E0915D03F0915E03CA
:100C400082FD12C09081809160038F5F8F7320912D
:100C50006103821751F0E0916003F0E0E95BFC4F23
:100C6000958F8093600301C08081FF91EF919F91E8
:100C70008F912F910F900FBE0F901F901895CF93CB
:100C8000DF93282F30E0F901EE56FF4F8491F901F0
:100C9000E852FF4FD491F901EC53FF4FC491CC239C
:100CA00091F081110E949801EC2FF0E0EE0FFF1FF0
:100CB000E654FF4FA591B491EC91ED2381E090E0D3
:100CC00021F480E002C080E090E0DF91CF910895B0
:100CD0001F93CF93DF93282F30E0F901EE56FF4F9B
:100CE0008491F901E852FF4FD491F901EC53FF4F81
:100CF000C491CC23C9F0162F81110E949801EC2FCA
:100D0000F0E0EE0FFF1FE055FF4FA591B4918FB7B4
:100D1000F894111105C09C91ED2FE095E92302C0D4
:100D2000EC91ED2BEC938FBFDF91CF911F91089544
:100D3000CF93DF9390E0FC01E852FF4F2491FC0138
:100D4000EC53FF4F8491882361F190E0880F991F45
:100D5000FC01EA55FF4FC591D491FC01E055FF4FCE
:100D6000A591B491611109C09FB7F894888120952D
:100D700082238883EC912E230BC0623061F49FB7ED
:100D8000F8943881822F809583238883EC912E2BD1
:100D90002C939FBF06C08FB7F894E8812E2B288331
:100DA0008FBFDF91CF9108958E3008F08E508770FD
:100DB0002091000190E4299F90011124822B8093BF
:100DC0007C0080917A00806480937A0080917A0020
:100DD00086FDFCCF809178002091790090E0922BE5
:100DE00008953FB7F89480912E0390912F03A0911E
:100DF0003003B091310326B5A89B05C02F3F19F0F1
:100E00000196A11DB11D3FBFBA2FA92F982F88278A
:100E1000820F911DA11DB11DBC01CD0142E0660FE5
:100E2000771F881F991F4A95D1F708951F920F9237
:100E30000FB60F9211242F933F938F939F93AF93ED
:100E4000BF938091D2019091D301A091D401B09130
:100E5000D50130912D0323E0230F2D3720F4019687
:100E6000A11DB11D05C026E8230F0296A11DB11DCD
:100E700020932D038093D2019093D301A093D401AA
:100E8000B093D50180912E0390912F03A091300350
:100E9000B09131030196A11DB11D80932E03909353
:100EA0002F03A0933003B0933103BF91AF919F9173
:100EB0008F913F912F910F900FBE0F901F9018951B
:100EC0001F920F920FB60F9211242F933F934F93BF
:100ED0005F936F937F938F939F93AF93BF93EF93A2
:100EE000FF93E091D001F091D1010995FF91EF912D
:100EF000BF91AF919F918F917F916F915F914F9132
:100F00003F912F910F900FBE0F901F901895CF9388
:100F10008091CE019091CF019C012F5F3F4F309384
:100F2000CF012093CE010E946F1BC82F8091CE016C
:100F30009091CF019C012F5F3F4F3093CF012093C1
:100F4000CE010E946F1B2C2F30E0322F2227A901E7
:100F5000480F511DCA01CF910895CF93DF9310928E
:100F6000CF011092CE010E948707909310018093C9
:100F70000F010E94870790930E0180930D010E943C
:100F8000870721E0181619060CF020E020931E01B7
:100F90000E948707BC01990F880B990B0E94521A77
:100FA0006093090170930A0180930B0190930C01E7
:100FB0000E948707BC01990F880B990B0E94521A57
:100FC00060930501709306018093070190930801D7
:100FD0000E948707EC0120E030E04AE754E460918A
:100FE000090170910A0180910B0190910C010E94FE
:100FF000011C6093090170930A0180930B01909387
:101000000C0120E030E04AE754E460910501709162
:10101000060180910701909108010E94011C6093D4
:101020000501709306018093070190930801BE01AA
:10103000DD0F880B990B0E94521A20E030E04AE73E
:1010400054E40E94011C609301017093020180939B
:1010500003019093040183E090E00E94A20E80912E
:101060000F01909110010E94F50D80910D0190915A
:101070000E010E94F50D20E030E04AE754E4609153
:10108000090170910A0180910B0190910C010E945D
:10109000B11A0E94731CCB010E94F50D20E030E0D4
:1010A0004AE754E4609105017091060180910701BF
:1010B000909108010E94B11A0E94731CCB010E94FA
:1010C000F50D20E030E04AE754E4609101017091B1
:1010D000020180910301909104010E94B11A0E94C3
:1010E000731CCB010E94F50DDF91CF910C943A0F48
:1010F000CF93DF93E1EEF2E08BE092E0C9ECD2E037
:1011000045EB52E01192DC011D921D921D921D9241
:10111000CD011992199219921992DA011D921D921C
:101120001D921D92AD01B2E0E63EFB0759F7DF913B
:10113000CF9108959093010280930002019789F462
:1011400080E090E0ACE8B2EC80933B0390933C03EA
:10115000A0933D03B0933E0380E090E0A0E7B1E4AC
:1011600010C080E090E0A0EAB1E480933B0390934C
:101170003C03A0933D03B0933E0380E090E0A8ECD5
:10118000B3E480933F0390934003A0934103B09353
:1011900042031092D6011092D7011092D8011092FA
:1011A000D901089580932E0190932F0190912001F1
:1011B000911104C0682F8BE00C946806089560912B
:1011C000000270910102072E000C880B990B0E94FF
:1011D000521A26E636E646E65FE30E94A91C181678
:1011E000ACF48091E802882389F0809111019091FC
:1011F0001201A0911301B0911401809321019093E9
:101200002201A0932301B09324011CC021E53AEDF3
:101210004BEB5FE36091110170911201809113011A
:10122000909114010E94B11A2FE834EE4DE051E480
:101230000E94941B609321017093220180932301EB
:101240009093240120912A0130912B0140912C018F
:1012500050912D0160912101709122018091230113
:10126000909124010E94011C60932101709322013E
:10127000809323019093240108958F929F92AF92BF
:10128000BF92CF92DF92EF92FF920F931F93CF9373
:10129000DF936B017C0180903F0390904003A0900E
:1012A0004103B090420300913B0310913C03D09165
:1012B0003D03C0913E0398014D2F5C2F0E944B1AB5
:1012C00087FD03C08601DE2DCF2D9401A501B60157
:1012D000C7010E94A91C18161CF48401DA2DCB2D1D
:1012E000C801AD2FBC2F8093430390934403A09378
:1012F0004503B093460386E696E6A6EEBFE38093E9
:101300001A0190931B01A0931C01B0931D018CEB5B
:1013100094E7A3E1BCE38093160190931701A09397
:101320001801B093190180E090E0A0E8B0E4809348
:10133000DF019093E001A093E101B093E2011092EC
:10134000F7018091210190912201A0912301B09198
:1013500024018093EB019093EC01A093ED01B093F5
:10136000EE018093EF019093F001A093F101B0930F
:10137000F20180E89FE4A3ECB7EC8093E301909343
:10138000E401A093E501B093E6018093E701909317
:10139000E801A093E901B093EA0120E030E046E1E2
:1013A00053E4B8018D2F9C2F0E944B1A87FF14C065
:1013B00080E090E0A6E9B3E480931A0190931B01CA
:1013C000A0931C01B0931D011092160110921701F9
:1013D00010921801109219018091E802811114C035
:1013E00080E090E0A6E9B3E480931A0190931B019A
:1013F000A0931C01B0931D011092160110921701C9
:101400001092180110921901809105019091060126
:10141000A0910701B091080180932A0190932B01BC
:10142000A0932C01B0932D01DF91CF911F910F91CB
:10143000FF90EF90DF90CF90BF90AF909F908F90F4
:10144000089581E090E00E94D20881E08093EA0252
:101450008093E8021092E9028093290108950E9486
:10146000780880E090E00E949A0881E090E00E9475
:10147000D2081092E7021092E6021092E80210924F
:1014800029016091870270918802072E000C880B59
:10149000990B0E94521A0C943D0966E070E070931B
:1014A000520260935102E4E0F0E0F0938402E09392
:1014B00083028DE290E09093200280931F021092AD
:1014C0009D0110929C0181E090E0909354028093E2
:1014D00053021092860210928502109222021092FC
:1014E000210210929F0110929E01109256021092BA
:1014F000550222E330E0309388022093870243E6CE
:1015000050E050932402409323021092A1011092C4
:10151000A00142E050E0509358024093570250938C
:101520008A0240938902109226021092250210929C
:10153000A3011092A20150935A0240935902A7E0CE
:10154000B0E0B0938C02A0938B021092280210920C
:1015500027021092A5011092A40190935C0280933F
:101560005B0290938E0280938D0210922A02109259
:1015700029021092A7011092A60110925E02109209
:101580005D023093900220938F022AE030E0309386
:101590002C0220932B021092A9011092A801909383
:1015A000600280935F0210929202109291029093D7
:1015B0002E0280932D021092AB011092AA0110927C
:1015C0006202109261022BEF3FEF3093940220935E
:1015D00093029093300280932F021092AD011092EB
:1015E000AC0123E030E03093640220936302109258
:1015F000960210929502AEE1B0E0B0933202A09351
:1016000031021092AF011092AE0190936602809366
:10161000650290939802809397029093340280938E
:1016200033021092B1011092B001509368024093BE
:10163000670230939A022093990210923602109218
:1016400035021092B3011092B20130936A022093D6
:10165000690210929C0210929B0245E050E0509368
:101660003802409337021092B5011092B401909362
:101670006C0280936B0210929E0210929D02109257
:101680003A02109239021092B7011092B6011092EC
:101690006E0210926D02ACE3B0E0B093A002A09392
:1016A0009F0290933C0280933B021092B9011092EA
:1016B000B801F0937002E0936F029093A2028093BE
:1016C000A10210923E0210923D021092BB011092B4
:1016D000BA0130937202209371029093A402809316
:1016E000A3028AE590E09093400280933F0210921B
:1016F000BD011092BC0181E080931E0181E190E068
:101700009093E7028093E602509374024093730231
:101710007093A6026093A5021092420210924102B9
:101720001092BF011092BE0180E090E0A8E4B2E404
:101730008093330390933403A0933503B09336031F
:10174000BC01CD010E943D0981E02091A5023091AC
:10175000A602232B09F480E080931E0108951092C5
:10176000CF011092CE0180910F01909110010E9443
:10177000B10280910D0190910E010E94B102809101
:101780001E0190E00E94B10220E030E04AE754E4FC
:101790006091090170910A0180910B0190910C01F7
:1017A0000E94B11A0E94731CCB010E94B10220E07A
:1017B00030E04AE754E460910501709106018091A0
:1017C0000701909108010E94B11A0E94731CCB017D
:1017D0000E94B10220E030E04AE754E46091010148
:1017E0007091020180910301909104010E94B11A4D
:1017F0000E94731CCB010C94B102CF92DF92EF9246
:10180000FF920F931F93CF93DF9384E190E0909327
:10181000CF018093CE0184E090E00E94B10280E08D
:1018200090E00E94B102C1E5D2E083E8C82E82E0D8
:10183000D82E9FE1E92E92E0F92E0CE911E0899172
:1018400099910E94B102F601819191916F010E94DC
:10185000B102F701819191917F010E94B102F801DB
:10186000819191918F010E94B102F2E0C338DF07AC
:1018700031F7DF91CF911F910F91FF90EF90DF90A3
:10188000CF900895AF92BF92CF92DF92EF92FF92E6
:101890000F931F93CF93DF93CDB7DEB764970FB647
:1018A000F894DEBF0FBECDBF80912F06882309F4C8
:1018B0004DC10E94DC0E8C010E94DC0E5C01CE0149
:1018C00001966C01E12CF12CEA14FB0454F40E9403
:1018D000DC0EF601819391936F01FFEFEF1AFF0A7F
:1018E000F3CF0E30110508F031C1F801E55CFF4F70
:1018F0000C94D51C69817A81072E000C880B990BFA
:101900000E94521A20E030E04AE754E40E94011C91
:101910006093090170930A0180930B0190930C016D
:101920006B817C81072E000C880B990B0E94521A48
:1019300020E030E04AE754E40E94011C6093050176
:101940007093060180930701909308016D817E8159
:10195000072E000C880B990B0E94521A20E030E0F1
:101960004AE754E40E94011C609301017093020154
:1019700080930301909304010E94AF0BE7C081E0C4
:1019800029813A812130310509F080E080931E01E0
:1019900090E09093A6028093A502D8C081E02981AF
:1019A0003A812130310509F080E080931F01CEC0DB
:1019B00081E029813A812130310509F080E080936E
:1019C0000402C4C081E029813A812130310509F047
:1019D00080E08093DA01BAC081E029813A81213028
:1019E000310509F080E08093030210920202AEC03C
:1019F00080910302882309F4A9C081E08093020248
:101A0000A5C00E94FD0BA2C00E942F0A69817A81A5
:101A100070938802609387027093900260938F02A4
:101A2000072E000C880B990B0E94521A0E943D0948
:101A30008B819C8190939402809393028D819E81EF
:101A400090933202809331028F819885909338026F
:101A50008093370289859A859093A00280939F0294
:101A60008B859C859093400280933F0281E02D8579
:101A70003E852130310509F080E0282F30E0309399
:101A8000A6022093A50280931E018F8598899093CA
:101A9000200280931F02092E000CAA0BBB0B80931F
:101AA000250190932601A0932701B09328014EC0F1
:101AB00069817A81072E000C880B990B0E94521ABB
:101AC00060933B0370933C0380933D0390933E03EC
:101AD0006B817C81072E000C880B990B0E94521A97
:101AE00060933F03709340038093410390934203BC
:101AF0006D817E81072E000C880B990B0E94521A73
:101B00000E943D0923C089819A819093FC028093B1
:101B1000FB021CC089819A81892B19F410922C0335
:101B200015C010929B0110929A0110929901109287
:101B30009801109297011092960181E080932C03F6
:101B400005C00E94210A02C00E942F0A8091E4036E
:101B5000811116C08AE090E00E94A20E64960FB632
:101B6000F894DEBF0FBECDBFDF91CF911F910F91D3
:101B7000FF90EF90DF90CF90BF90AF900C943A0F12
:101B800064960FB6F894DEBF0FBECDBFDF91CF9144
:101B90001F910F91FF90EF90DF90CF90BF90AF908B
:101BA0000895AC011092E90320913906809138061E
:101BB000FA01BF01641B750B91E03091E903321308
:101BC00090E03081321719F03093E90304C0992373
:101BD000D9F31092E9033191311104C09111E9CF89
:101BE000CB0108953813E5CFF9CFCF92DF92EF9272
:101BF000FF92CF93DF932091E403222361F16C01E4
:101C00006091380680913506909136060E94A004B6
:101C1000C0913506D09136060D2C000CEE08FF0859
:101C2000F7FE0DC06DE2CE010E94A00444275527A7
:101C3000BA014C195D096E097F092AE003C02AE048
:101C4000B701A601CE01DF91CF91FF90EF90DF9019
:101C5000CF900C94BC04DF91CF91FF90EF90DF9078
:101C6000CF900895CF92DF92EF92FF920F931F9340
:101C7000CF93DF931F92CDB7DEB76B017C0105E3F5
:101C800016E060913806F8018081918149830E94B5
:101C9000A0042981B701A601F801808191810F90EC
:101CA000DF91CF911F910F91FF90EF90DF90CF9038
:101CB0000C940505CF92DF92EF92FF922091E403FE
:101CC0002223B9F06B017C016091380680913506C2
:101CD000909136060E94A00422E0B701A6018091EF
:101CE000350690913606FF90EF90DF90CF900C94E0
:101CF0000505FF90EF90DF90CF900895CF92DF928F
:101D0000EF92FF922091E4032223B9F06B017C0152
:101D10006091380680913506909136060E94A004A5
:101D20002AE0B701A6018091350690913606FF9012
:101D3000EF90DF90CF900C94BC04FF90EF90DF9079
:101D4000CF900895CF92DF92EF92FF92CF93DF93DF
:101D50006C018091E403811128C081E08093E40349
:101D60008093EB03C0913506D09136060D2C000C04
:101D7000EE08FF08F7FE0DC06DE2CE010E94A00440
:101D800044275527BA014C195D096E097F092AE0DD
:101D900003C02AE0B701A601CE01DF91CF91FF90E9
:101DA000EF90DF90CF900C94BC04DF91CF91FF9027
:101DB000EF90DF90CF9008950F931F93CF93DF9311
:101DC00080912D06882309F44CC0813031F482E0E3
:101DD00080932D06CDEED3E002C0C0E0D0E080912C
:101DE0002E06882351F1209721F4C0913206D0911C
:101DF00033068E01CE010E94D10D892B29F4219644
:101E0000F80180818111F5CFF8018081882331F1BB
:101E1000C8010E94D10DF801E80FF91F80818823C5
:101E200011F010823196F0933306E0933206902F32
:101E3000812F9093300680933106809130069091E7
:101E40003106009771F021E020932E0620932F0693
:101E5000DF91CF911F910F910C94251A90E080E0B3
:101E6000E8CF10922F0680E090E0DF91CF911F9194
:101E70000F9108958091E4038823A1F060913706C3
:101E800080913506909136060E94A0048091EC0363
:101E9000882341F063E971E0809135069091360620
:101EA0000E94A7041092EB031092E40380E00895CF
:101EB000CF93DF932091E40321111AC0EB010E941C
:101EC000A20E8091E403882379F060913806809116
:101ED0003506909136060E94A004BE018091350619
:101EE000909136060E94A704DF91CF910C943A0F8F
:101EF00080E0DF91CF9108958F929F92AF92BF9231
:101F0000CF92DF92EF92FF921F93CF93DF93C2E3C2
:101F1000D0E011E0F09032036F2D8DE00E94680652
:101F2000F126F09232030E94F1064B015C0182E33C
:101F3000C82ED12CE12CF12C0E94F106DC01CB0142
:101F400088199909AA09BB09883E9340A105B105E2
:101F500058F021E0C21AD108E108F10888EE880E95
:101F600083E0981EA11CB11CC114D104E104F1044A
:101F700019F7219779F6DF91CF911F91FF90EF909C
:101F8000DF90CF90BF90AF909F908F900895CF93A8
:101F9000DF9300D000D000D0CDB7DEB7789484B501
:101FA000826084BD84B5816084BD85B5826085BD55
:101FB00085B5816085BD80916E00816080936E00E3
:101FC00010928100809181008260809381008091D5
:101FD0008100816080938100809180008160809386
:101FE00080008091B10084608093B1008091B00046
:101FF00081608093B00080917A00846080937A0041
:1020000080917A00826080937A0080917A0081606A
:1020100080937A0080917A00806880937A00109291
:10202000C10080E090E0ACE8B2E48093210190939D
:102030002201A0932301B093240180E090E0A8E462
:10204000B2E48093110190931201A0931301B09315
:10205000140111E010932001109200011092DD0292
:102060001092DE021092DF021092E00210929B01A9
:1020700010929A0110929901109298011092970172
:102080001092960180E1809381001092800010935D
:10209000130320E43FE130931203209311033093A4
:1020A00087002093860091E19093810021EC31E03C
:1020B0003093D1012093D00110936F00E09157032A
:1020C000F091580392E09083E0915303F091540310
:1020D0001082E0915503F0915603808310925F03C4
:1020E000E0915B03F0915C0386E08083E09159030B
:1020F000F0915A03808180618083E0915903F091CF
:102100005A03808188608083E0915903F0915A03DB
:10211000808180688083E0915903F0915A03808127
:102120008F7D808361E08DE00E94980660E08CE006
:102130000E94980661E08BE00E94980681E090E0A2
:102140000E94D20861E089E00E94980680E090E059
:102150000E949A0860E08AE00E9498061093EC03BF
:102160008AE994E090933B0680933A068DEA97E0E3
:10217000909341068093400680ED92E0909347064D
:102180008093460683E293E090934B0680934A0641
:1021900082E49CE090934F0680934E066CE471E0DD
:1021A00080E090E00E94580F1092CF011092CE0173
:1021B0000E9487078C010E94870720910F013091B0
:1021C00010012017310751F411E020910D013091D9
:1021D0000E012817390719F410E001C011E00E9420
:1021E0008707019721F481E080931E0103C01092BC
:1021F0001E0111E00E948707BC01990F880B990B03
:102200000E94521A20E030E04AE754E40E94011C88
:102210006B017C012DEC3CEC4CEC5DE30E94A91CB5
:1022200087FD13C020E030E040E251E4C701B60171
:102230000E944B1A18164CF0C0920901D0920A0164
:10224000E0920B01F0920C010DC080E090E0A0E85C
:10225000BFE38093090190930A01A0930B01B0930F
:102260000C0111E00E948707BC01990F880B990BA4
:102270000E94521A20E030E04AE754E40E94011C18
:102280006B017C012DEC3CEC4CEC5DE30E94A91C45
:1022900087FD13C020E030E040E251E4C701B60101
:1022A0000E944B1A18164CF0C0920501D0920601FC
:1022B000E0920701F09208010DC080E090E0A0E8F4
:1022C000BFE38093050190930601A0930701B093AB
:1022D000080111E00E948707BC01990F880B990B38
:1022E0000E94521A20E030E04AE754E40E94011CA8
:1022F0006B017C012DEC3CEC4CEC5DE30E94A91CD5
:1023000087FD15C020E030E040E251E4C701B6018E
:102310000E944B1A18165CF0C0920101D092020183
:10232000E0920301F0920401112379F00CC080E0E7
:1023300090E0A0E8BFE38093010190930201A09395
:102340000301B09304010E94AF0B01E5402E02E0AF
:10235000502E83E8C82E82E0D82E9FE1E92E92E02D
:10236000F92E0CE911E0B801C7019601F2011192B2
:102370001192D9011D921D929D01DC011D921D92A9
:10238000CD01DB011D921D92BD01B2E0E338FB07D8
:1023900071F70E944D0A84E190E09093CF01809301
:1023A000CE010E948707049761F50E9487070E946B
:1023B00087073C010E9487074C010E9487075C0148
:1023C0000E948707F201219131912F0126153705CF
:1023D000C1F4D6018D929D926D01F701A192B19247
:1023E0007F01D8018D939D938D01B3E84B16B2E028
:1023F0005B06E9F68091730290917402059709F4E7
:1024000042C00E944D0A0E94AF0B0E94FD0B0E9429
:1024100078081092E7021092E602109203021092DE
:1024200028031092290310922A031092DA011092C5
:10243000EA0280911E01811106C081E08093E802CA
:102440008093EA0202C01092E802FF24F39466240B
:102450006394712C10E8212E16E9312E18E9412ED3
:10246000512C8091EB03811101C18091350690912F
:102470003606DC01ED91FC910480F581E02D099593
:10248000892B09F5F3C06091870270918802072EAD
:10249000000C880B990B0E94521A609333037093BF
:1024A000340380933503909336030E943D0981E005
:1024B0002091A5023091A6022130310509F080E07B
:1024C00080931E01A4CF8091350690913606DC01E1
:1024D000ED91FC910480F581E02D099581159240E4
:1024E0000CF0C1C08091350690913606DC01ED916B
:1024F000FC910480F581E02D09958C01A0903506B2
:10250000B0903606C12CD12CC016D106B9F12FB728
:10251000F8948091D2019091D301A091D401B0910F
:10252000D5012FBFF50180879187A287B387D50199
:10253000ED91FC910680F781E02DC501099597FF8B
:1025400020C02FB7F8948091D2019091D301A0912F
:10255000D401B091D5012FBFF50140855185628529
:102560007385841B950BA60BB70B4481558166813F
:10257000778184179507A607B707C8F2C12CD12C1D
:1025800043C0F601E35DFB4F8083FFEFCF1ADF0A04
:10259000BBCFF601E35DFB4F908110922D06809139
:1025A000390621E03091EA03381320E0981781F1D1
:1025B0009093EA03309137068091E603E82FF0E02C
:1025C000EC51FC4F931329C0211127C01186882399
:1025D00031F0AA24A394A0922D061092EA0310923F
:1025E000E6031092310610923006109233061092D4
:1025F0003206BB24B394B0922E0680912D06813012
:10260000A9F02FEFC21AD20AC016D10611F629CFAF
:10261000222371F21092EA03CDCF91878F5F8093CE
:10262000E6039091E803891740F3D9CF0E94DC0EAE
:102630008093E503823378F420912F06222359F00A
:10264000FC01FF27EE0FFF1FE45CF94F0190F081C2
:10265000E02D309731F4E0913A06F0913B06309747
:1026600081F20995CECF00E012E048CF80910D03B2
:1026700090910E03A0910F03B09110030697A1054E
:10268000B10570F180911403909115030196909318
:1026900015038093140380E00E94D406BC01990FB7
:1026A000880B990B0E94521A9B01AC016091160392
:1026B0007091170380911803909119030E94951B44
:1026C0006093160370931703809318039093190374
:1026D00010920D0310920E0310920F03109210032C
:1026E0008091090390910A03A0910B03B0910C0310
:1026F000893E9340A105B105D0F0F0922B031092D2
:102700002A03A12CB12CE8E3CE2EE1E4DE2EA09228
:10271000DB01B092DC01C092DD01D092DE011092AB
:10272000090310920A0310920B0310920C0380917C
:10273000050390910603A0910703B0910803893E19
:102740009340A105B10508F479C020E030E046E1EE
:1027500053E4609143037091440380914503909149
:1027600046030E94A91C18160CF060C08091F70166
:1027700081115CC08091E802882309F457C0209140
:10278000EF013091F0014091F1015091F20120935D
:10279000EB013093EC014093ED015093EE01609119
:1027A0002101709122018091230190912401609375
:1027B000EF017093F0018093F1019093F201A090EA
:1027C000E701B090E801C090E901D090EA01A98248
:1027D000BA82CB82DC82A092E301B092E401C09283
:1027E000E501D092E6010E94941B4B015C016093CD
:1027F000E7017093E8018093E9019093EA01298150
:102800003A814B815C810E944B1A87FF0FC0209157
:10281000DF013091E0014091E1015091E201C501F9
:10282000B4010E944B1A87FDF092F7011092050344
:10283000109206031092070310920803809101037F
:1028400090910203A0910303B0910403C397A105E3
:10285000B10508F475C06091DD027091DE028091CF
:10286000DF029091E0020E94501A20E030E04AE737
:1028700054E40E94011C6093F3017093F40180936F
:10288000F5019093F6018090210190902201A09093
:102890002301B0902401009143031091440320913F
:1028A00045033091460309831A832B833C83A90196
:1028B0009801C501B4010E94A91C181624F41092B5
:1028C0001501F0921A0329813A814B815C81C5017F
:1028D000B4010E944B1A87FF04C0F09215011092B8
:1028E0001A03809115012AE939E949E95EE3882351
:1028F00059F0609111017091120180911301909132
:1029000014010E94951B0AC060911101709112017F
:1029100080911301909114010E94941B6093110106
:102920007093120180931301909314010E94DF08A9
:1029300010920103109202031092030310920403F9
:102940008091FD029091FE02A091FF02B0910003E0
:10295000C397A105B10508F43FC180910002909191
:102960000102181619066CF084E690E0A0E0B0E0D1
:102970008093370390933803A0933903B0933A03BD
:102980000DC074E1A72EB12CC12CD12CA09237031D
:10299000B0923803C0923903D0923A0310922303C5
:1029A00010922403109225031092260310921F0305
:1029B00010922003109221031092220310921B0305
:1029C00010921C0310921D0310921E031092FC0122
:1029D0001092FD011092FE011092FF01A0902101C2
:1029E000B0902201C0902301D0902401A982BA8224
:1029F000CB82DC8220E030E040EA51E460913F038A
:102A00007091400380914103909142030E94951B75
:102A10009B01AC01C601B5010E94A91C18168CF4DB
:102A20001092F3021092F4021092F5021092F60244
:102A30001092F8011092F9011092FA011092FB0124
:102A4000C3C029813A814B815C81609143037091BD
:102A5000440380914503909146030E94941B4B01CF
:102A60005C01609323037093240380932503909368
:102A7000260320E030E0A90169817A818B819C8165
:102A80000E94A91C1816CCF48091F7018823A9F0A4
:102A9000A50194016091F8017091F9018091FA010A
:102AA0009091FB010E94951B6093F8017093F901CE
:102AB0008093FA019093FB0108C01092F8011092E4
:102AC000F9011092FA011092FB0120911A01309144
:102AD0001B0140911C0150911D01C501B4010E94D0
:102AE000B11A4B015C0160931F0370932003809324
:102AF00021039093220320911601309117014091F8
:102B00001801509119016091F8017091F9018091BB
:102B1000FA019091FB010E94B11A9B01AC016093F4
:102B20001B0370931C0380931D0390931E03C50128
:102B3000B4010E94951B8B01982EA92ECB01A92DC3
:102B4000BA2D8093FC019093FD01A093FE01B093F8
:102B5000FF0120E030E046E953E4B801892D9A2DC9
:102B60000E94A91C181634F400E010E056E9952ED6
:102B700063E4A62E60913703709138038091390386
:102B800090913A030E94501AB62EC72ED82EE92EE5
:102B9000262F372F482F592FB801892D9A2D0E94A3
:102BA0004B1A87FF04C00B2D1C2D9D2CAE2CB80199
:102BB000892D9A2D0E947A1C6093F3027093F4027F
:102BC0008093F5029093F6021092FD021092FE029D
:102BD0001092FF021092000380912001882321F0BF
:102BE000709208026092070290910402992309F4FE
:102BF0006EC31092080210920702882309F470C372
:102C00007092060260920502E0902001EE2021F011
:102C100070920A0260920902B0901F01B982BB2033
:102C200029F010920A021092090209C0E11007C0AF
:102C300088E00E943F0690930A0280930902109157
:102C40002B03112329F07092FC026092FB0204C056
:102C50001092FC021092FB024091F7025091F80290
:102C60006091F9027091FA028091F3029091F4025E
:102C7000A091F502B091F60284179507A607B70751
:102C800040F461E083E00E94980660E083E00E94E7
:102C900068068091EF029091F002A091F102B0914C
:102CA000F2028D329140A105B105C0F061E083E0F0
:102CB0000E94980660E083E00E9468061092F70286
:102CC0001092F8021092F9021092FA021092EF029A
:102CD0001092F0021092F1021092F202111108C04B
:102CE00061E083E00E94980660E083E00E9468064D
:102CF0008091EB029091EC02A091ED02B091EE0276
:102D000081359105A105B10508F4DEC280912A0341
:102D1000882379F080E090E00E949A0880E090E0BB
:102D20000E94D20810922A03F092EA02F092E9027D
:102D3000C3C2112309F4BAC28091E802811107C00D
:102D400061E08DE00E946806F0923203B5C2809186
:102D5000EA02882371F01092E7021092E6021092C4
:102D600029030E9478081092EA0210922803109218
:102D700027038090DD029090DE02A090DF02B090E9
:102D8000E002E1EEF2E080E090E021912223C1F048
:102D90009C012B543D4F69019C0127533D4FD901A4
:102DA0004D915D916D917C9195018401041B150BF2
:102DB000260B370BD6010D931D932D933C93139740
:102DC00004968431910509F7C090E602D090E7029D
:102DD0009601220F331FF901ED57FD4F008111813C
:102DE000F901EF5AFD4F0190F081E02DE730F10538
:102DF00008F034C2EC5CFF4F0C94D51C0430110574
:102E000009F09CC1215E3D4FF90180819181092E1D
:102E1000000CAA0BBB0B8093250190932601A09375
:102E20002701B09328018AC18091280381112EC007
:102E300060913F0370914003809141039091420360
:102E40002D833E830E94731C4B015C0160913B0308
:102E500070913C0380913D0390913E030E94731C4E
:102E60002D813E81061717072CF0B40108151905AE
:102E70000CF4B801072E000C880B990B2D833E83B0
:102E80000E94521A0E943D093E812D81215E3D4FD4
:102E9000D9016D917C916336710529F4F092290373
:102EA00010922803DBC1BEE0CB16D104F9F42DED5E
:102EB00034E246E25FE36091430370914403809102
:102EC0004503909146030E94B11A27ED33EA4EE57F
:102ED00052E40E94951B69837A838B839C83812CA7
:102EE000912C30EAA32E30E4B32E14C0A0904303FB
:102EF000B0904403C0904503D0904603A982BA82A3
:102F0000CB82DC82072E000C880B990B0E94521A90
:102F10004B015C012091210130912201409123015C
:102F20005091240169817A818B819C810E94941B3C
:102F30000E94731C9B0177FF04C022273327261BA6
:102F4000370BB901330F880B990B0E94521AA50158
:102F500094010E944B1A18160CF0A0CFF09228038F
:102F60007DC10330110509F480C00730110529F037
:102F70000230110509F072C113C0E11079C0F901E6
:102F8000E15EFD4F2091090230910A02808191811A
:102F90002817390709F4D2C0B980B110CFC05EC17B
:102FA000EE2009F450C08091E502811115C02092F5
:102FB0001B0230921C0240921D0250921E0280920F
:102FC000D9029092DA02A092DB02B092DC02F09277
:102FD000E5020E947C0F42C1609132038DE00E94A5
:102FE000680680913203CC24C3948C2580933203ED
:102FF0004091C5025091C6026091C7027091C8020B
:1030000080911B0290911C02A0911D02B0911E02A2
:1030100084179507A607B70708F020C11092E502AC
:103020001092C5021092C6021092C7021092C802F6
:1030300010921B0210921C0210921D0210921E028E
:103040000E947C0F7BC0F901E15EFD4F20910702D9
:1030500030910802808191812817390709F0FEC05C
:10306000809105029091060254C0EE2009F440C000
:103070008091E502811113C020921B0230921C0244
:1030800040921D0250921E028092D9029092DA0262
:10309000A092DB02B092DC02F092E502DFC0409128
:1030A000C5025091C6026091C7027091C80280911A
:1030B0001B0290911C02A0911D02B0911E024817A4
:1030C00059076A077B0708F4C9C01092E5021092FD
:1030D000C5021092C6021092C7021092C802109246
:1030E0001B0210921C0210921D0210921E0226C09A
:1030F000F901E15EFD4F20910502309106028081C9
:1031000091812817390709F0A9C080910702909191
:103110000802019799F08091040281110FC09EC0AE
:103120000115110571F00130110509F097C0215EFC
:103130003D4FD9018D919C910E94D208F0922903B4
:103140008DC0215E3D4FF901808191810E949A08D6
:10315000F5CFC801880F991F880F991FFC01E7530D
:10316000FD4F80829182A282B382FC01E55FFD4F18
:103170001082118212821382F801EF51FD4FAA24AE
:10318000A394A082DBCFC8018F519D4F6C01DC015D
:103190008C91000F111F000F111F8823E1F0A8016F
:1031A000455F5D4FFA0180819181A281B3810097D3
:1031B000A105B10561F5215E3D4FF901A081B18105
:1031C00028EE33E00E94DB1CDA016D937D938D9332
:1031D0009C93139743C0215E3D4FF901A081B181BB
:1031E000F801E55FFD4F28EE33E00E94DB1C6083B1
:1031F000718382839383D801A753BD4F8D929D9293
:10320000AD92BC921397E1E0D601EC9327C0F80190
:10321000EB54FD4F80809180A280B3808816990680
:10322000AA06BB06D8F0D6011C9210821182128227
:103230001382FA0110821182128213827FCF012B36
:1032400039F4F092EA0210921E010E94210A06C08F
:103250001092EA02F0921E010E942F0A809103024E
:10326000882391F080910202882331F18091E60257
:103270009091E70201969093E7028093E602109204
:103280002903109202020FC0809129038823A1F024
:103290008091E6029091E70201969093E702809375
:1032A000E602109229031092280306C080E090E005
:1032B0000E949A08F092EA021092EB021092EC023D
:1032C0001092ED021092EE020E948E01CAC8811186
:1032D00097CC8CE00E943F069093080280930702EF
:1032E0008AE00E943F0690930602809305028CCCF0
:1032F00010924A031092490388EE93E0A0E0B0E0F8
:1033000080934B0390934C03A0934D03B0934E03D3
:1033100084E391E0909348038093470385EC90E029
:10332000909354038093530384EC90E0909356035E
:103330008093550380EC90E090935803809357035B
:1033400081EC90E090935A038093590382EC90E0D3
:1033500090935C0380935B0386EC90E090935E0314
:1033600080935D03109260031092610310926203D8
:103370001092630310923B0610923A0687E493E0A2
:1033800090933606809335061092EC038CE280937E
:1033900038068BE3809337068FE28093390680E40A
:1033A0008093E7038FE38093E8031092E603109283
:1033B000310610923006109233061092320681E0E8
:1033C00080932E06ECE3F6E01192119286E0E03A4B
:1033D000F807D1F71092EB0380E090E0ACE8B2E49C
:1033E0008093430390934403A0934503B093460313
:1033F00040E050E068EC73E440933F035093400397
:10340000609341037093420340E050E060EA71E44E
:1034100040933B0350933C0360933D0370933E0302
:1034200044E650E060E070E0409337035093380387
:103430006093390370933A0380933303909334037A
:10344000A0933503B09336030895FC01882799278C
:10345000E89421912032E9F3293010F02E30C8F39E
:103460002B3241F02D3239F4689404C00E94431A83
:10347000820F911D219120532A30C0F31EF49095A4
:1034800081959F4F08957AE0979F902D879F802D7B
:10349000910D112408950E948D1A08F481E0089579
:1034A000E89409C097FB3EF49095809570956195DE
:1034B0007F4F8F4F9F4F9923A9F0F92F96E9BB2794
:1034C0009395F695879577956795B795F111F8CF10
:1034D000FAF4BB0F11F460FF1BC06F5F7F4F8F4F7B
:1034E0009F4F16C0882311F096E911C0772321F071
:1034F0009EE8872F762F05C0662371F096E8862F09
:1035000070E060E02AF09A95660F771F881FDAF75F
:10351000880F9695879597F90895990F0008550F8C
:10352000AA0BE0E8FEEF16161706E807F907C0F049
:1035300012161306E407F50798F0621B730B840B51
:10354000950B39F40A2661F0232B242B252B21F42B
:1035500008950A2609F4A140A6958FEF811D811DCB
:1035600008950E94C41A0C94351B0E94271B38F042
:103570000E942E1B20F0952311F00C941E1B0C941E
:10358000241B11240C94691B0E94461B70F3959F09
:10359000C1F3950F50E0551F629FF001729FBB274A
:1035A000F00DB11D639FAA27F00DB11DAA1F649FE6
:1035B0006627B00DA11D661F829F2227B00DA11D99
:1035C000621F739FB00DA11D621F839FA00D611D1F
:1035D000221F749F3327A00D611D231F849F600D40
:1035E000211D822F762F6A2F11249F5750409AF069
:1035F000F1F088234AF0EE0FFF1FBB1F661F771FF5
:10360000881F91505040A9F79E3F510580F00C94BF
:103610001E1B0C94691B5F3FE4F3983ED4F3869520
:1036200077956795B795F795E7959F5FC1F7FE2B5F
:10363000880F911D9695879597F9089597F99F673B
:1036400080E870E060E008959FEF80EC089500242A
:103650000A941616170618060906089500240A94F7
:1036600012161306140605060895092E0394000C7D
:1036700011F4882352F0BB0F40F4BF2B11F460FF0C
:1036800004C06F5F7F4F8F4F9F4F089557FD905835
:10369000440F551F59F05F3F71F04795880F97FB16
:1036A000991F61F09F3F79F08795089512161306D0
:1036B0001406551FF2CF4695F1DF08C016161706FF
:1036C0001806991FF1CF8695710561050894089534
:1036D000E894BB2766277727CB0197F90895F999D6
:1036E000FECF92BD81BDF89A992780B50895262F07
:1036F000F999FECF1FBA92BD81BD20BD0FB6F894D7
:10370000FA9AF99A0FBE01960895A29FB001B39F4D
:10371000C001A39F700D811D1124911DB29F700DDA
:10372000811D1124911D08955058BB27AA270E947E
:10373000AC1B0C94351B0E94271B38F00E942E1BDB
:1037400020F039F49F3F19F426F40C94241B0EF456
:10375000E095E7FB0C941E1BE92F0E94461B58F3D3
:10376000BA17620773078407950720F079F4A6F566
:103770000C94681B0EF4E0950B2EBA2FA02D0B01B4
:10378000B90190010C01CA01A0011124FF27591BA6
:1037900099F0593F50F4503E68F11A16F040A22FAC
:1037A000232F342F4427585FF3CF4695379527951D
:1037B000A795F0405395C9F77EF41F16BA0B620B1C
:1037C000730B840BBAF09150A1F0FF0FBB1F661F63
:1037D000771F881FC2F70EC0BA0F621F731F841FA6
:1037E00048F4879577956795B795F7959E3F08F0CC
:1037F000B0CF9395880F08F09927EE0F979587958E
:1038000008950E94151C0C94351B0E942E1B58F025
:103810000E94271B40F029F45F3F29F00C941E1BE7
:1038200051110C94691B0C94241B0E94461B68F3D5
:103830009923B1F3552391F3951B550BBB27AA2769
:1038400062177307840738F09F5F5F4F220F331FA3
:10385000441FAA1FA9F335D00E2E3AF0E0E832D06B
:1038600091505040E695001CCAF72BD0FE2F29D06E
:10387000660F771F881FBB1F261737074807AB0740
:10388000B0E809F0BB0B802DBF01FF2793585F4FB5
:103890003AF09E3F510578F00C941E1B0C94691B66
:1038A0005F3FE4F3983ED4F3869577956795B79597
:1038B000F7959F5FC9F7880F911D9695879597F9A2
:1038C0000895E1E0660F771F881FBB1F621773071B
:1038D0008407BA0720F0621B730B840BBA0BEE1F30
:1038E00088F7E09508950E947A1C6894B1110C94B1
:1038F000691B08950E944E1B88F09F5798F0B92FBE
:103900009927B751B0F0E1F0660F771F881F991F14
:103910001AF0BA95C9F714C0B13091F00E94681B33
:10392000B1E008950C94681B672F782F8827B85F43
:1039300039F0B93FCCF3869577956795B395D9F76C
:103940003EF490958095709561957F4F8F4F9F4F76
:1039500008950E948D1A08F48FEF08950E948D1A21
:10396000880B990B0895A1E21A2EAA1BBB1BFD011F
:103970000DC0AA1FBB1FEE1FFF1FA217B307E4074E
:10398000F50720F0A21BB30BE40BF50B661F771FA6
:10399000881F991F1A9469F7609570958095909586
:1039A0009B01AC01BD01CF010895EE0FFF1F0590F3
:1039B000F491E02D09940E94851BB7FF0895821BA6
:1039C000930B089581E090E0F8940C94E71CF89430
:0239D000FFCF27
:1039D200010000803F0000803F0000803F040002A1
:1039E200000000484201BC74133C6666E63F0101D8
:1039F200010000F0411E000000010000803F0100B4
:103A0200000000002501A100EE00CC00E0006C01E6
:103A1200640000000000A0410000C84343436F6EF1
:103A220074726F6C6C65722068617320737461725A
:103A32007465642100436F6D6D616E6420776974F3
:103A4200686F757420617474616368656420636172
:103A52006C6C6261636B006E616E00696E66006F12
:063A62007666000D0A006B
:00000001FF
