:100000000C9477000C949F000C949F000C949F001C
:100010000C949F000C949F000C949F000C949F00E4
:100020000C949F000C949F000C949F000C949F00D4
:100030000C949F000C9408060C949F000C949F0055
:100040000C94BE050C949F000C94A9040C9483049A
:100050000C949F000C949F000C949F000C949F00A4
:100060000C949F000C949F00A9181B1A3D194E1A5E
:10007000341AAA1A9318090C340C3B0C520C550C68
:10008000B50BB20B9D0BA90B930B890B7F0B700B60
:100090002B0B000000080002010000030407000011
:1000A00000000000000000000000240027002A00DB
:1000B00000000000250028002B00000000002300A5
:1000C00026002900040404040404040402020202B9
:1000D000020203030303030301020408102040800B
:1000E000010204081020010204081020041B11243E
:1000F0001FBECFEFD8E0DEBFCDBF27E0AAEBB1E057
:1001000001C01D92A431B207E1F711E0A0E0B1E017
:10011000EAE2FDE302C005900D92AA3BB107D9F7D0
:1001200010E0C7E7D0E004C02197FE010E94811EC5
:10013000C637D107C9F70E94EE0F0C94931E0C949A
:100140000000089580E090E00895FC01538D448DF7
:10015000252F30E0842F90E0821B930B541710F072
:10016000CF96089501970895FC01918D828D98177F
:1001700061F0828DDF01A80FB11D5D968C91928D8B
:100180009F5F9F73928F90E008958FEF9FEF089588
:10019000FC01918D828D981731F0828DE80FF11D51
:1001A000858D90E008958FEF9FEF0895FC01918D6C
:1001B000228D892F90E0805C9F4F821B91098F7365
:1001C000992708958BEB93E00E94D60021E0892BBC
:1001D00009F420E0822F0895FC01848DDF01A80F2F
:1001E000B11DA35ABF4F2C91848D90E001968F735F
:1001F0009927848FA689B7892C93A089B1898C917E
:1002000080648C93938D848D981306C00288F38943
:10021000E02D80818F7D80830895EF92FF920F9370
:100220001F93CF93DF93EC0181E0888F9B8D8C8DA2
:10023000981305C0E889F989808185FD24C0F62ED0
:100240000B8D10E00F5F1F4F0F731127E02E8C8D69
:10025000E8120CC00FB607FCFACFE889F989808153
:1002600085FFF5CFCE010E94EC00F1CF8B8DFE0112
:10027000E80FF11DE35AFF4FF0820B8FEA89FB89EB
:100280008081806207C0EE89FF896083E889F989EF
:1002900080818064808381E090E0DF91CF911F9125
:1002A0000F91FF90EF900895CF93DF93EC01888D2D
:1002B0008823C9F0EA89FB89808185FD05C0A8896A
:1002C000B9898C9186FD0FC00FB607FCF5CF8081F0
:1002D00085FFF2CFA889B9898C9185FFEDCFCE013A
:1002E0000E94EC00E7CFDF91CF91089580E090E08D
:1002F000892B29F00E94E20081110C9400000895DE
:10030000833081F028F4813099F08230A1F0089593
:100310008730A9F08830B9F08430D1F48091800022
:100320008F7D03C0809180008F7780938000089537
:1003300084B58F7702C084B58F7D84BD0895809188
:10034000B0008F7703C08091B0008F7D8093B000A4
:1003500008958091FE029091FF02A0910003B09158
:1003600001030196A11DB11D8093FE029093FF022F
:10037000A0930003B0930103809122039091230383
:10038000A0912403B09125030196A11DB11D809376
:10039000220390932303A0932403B0932503809119
:1003A0001E0390911F03A0912003B0912103019699
:1003B000A11DB11D80931E0390931F03A0932003E2
:1003C000B093210380910C0390910D03A0910E0333
:1003D000B0910F030196A11DB11D80930C03909362
:1003E0000D03A0930E03B0930F0380912A03909105
:1003F0002B03A0912C03B0912D030196A11DB11DDB
:1004000080932A0390932B03A0932C03B0932D0386
:1004100080912E0390912F03A0913003B09131036E
:100420000196A11DB11D80932E0390932F03A093DD
:100430003003B09331038091100390911103A09188
:100440001203B09113030196A11DB11D80931003F7
:1004500090931103A0931203B09313038091180398
:1004600090911903A0911A03B0911B030196A11D4D
:10047000B11D8093180390931903A0931A03B093AE
:100480001B038091F6019091F701A091F801B091C2
:10049000F9010196A11DB11D8093F6019093F7011A
:1004A000A093F801B093F90180912603909127035E
:1004B000A0912803B09129030196A11DB11D80933D
:1004C000260390932703A0932803B09329038091D8
:1004D0005403882359F18091BE019091BF01019688
:1004E0008C3391052CF49093BF018093BE01089545
:1004F0001092BF011092BE018091BC019091BD018C
:1005000001968C3391052CF49093BD018093BC012E
:1005100008951092BD011092BC018091BA01909192
:10052000BB0101969093BB018093BA010895CF93CC
:10053000C82F692F8091F2019091F3019C012F5FE8
:100540003F4F3093F3012093F2010E94231D8091CD
:10055000F2019091F3019C012F5F3F4F3093F30123
:100560002093F2016C2FCF910C94231D8F929F92B8
:10057000AF92BF92CF92DF92EF92FF920F931F93B1
:10058000CF93DF9386E00E94870E84EAC82E82E034
:10059000D82E90E4E92E92E0F92E20ECA22E21E054
:1005A000B22E02E712E0C0E0D0E0CE010E94260E9B
:1005B0004801F801819191918F010E94260EF60168
:1005C000819191916F010E94260EF7018191919185
:1005D0007F010E94260EF501819191915F010E9499
:1005E000260E2196F40180819181059719F0C93179
:1005F000D105D9F6DF91CF911F910F91FF90EF9028
:10060000DF90CF90BF90AF909F908F900C94BF0DD4
:100610000F931F9388E00E94870E609113027091E0
:100620001402809115029091160220915804222301
:1006300021F042E050E00E94C60F60911F017091CE
:1006400020018091210190912201209158042223C0
:1006500021F041E050E00E94C60F6091FB017091D3
:10066000FC018091FD019091FE012091580422230C
:1006700021F041E050E00E94C60F8091BE019091B0
:10068000BF010E94260E8091BC019091BD010E9485
:10069000260E8091BA019091BB010E94260E6091B6
:1006A000B7037091B8038091B9039091BA030E9487
:1006B000A20F6091AF037091B0038091B10390914C
:1006C000B2030E94A20F6091B3037091B4038091B2
:1006D000B5039091B6030E94A20F60911901709129
:1006E0001A0180911B0190911C010E94A20F609140
:1006F00015017091160180911701909118010E94C7
:10070000A20F8091140390911503A0911603B0914C
:1007100017030091AB031091AC032091AD0330910E
:10072000AE03BC01CD01601B710B820B930B0E94C9
:10073000FC1B20E030E046E953E40E94CF1D20E09E
:1007400030E048EC52E40E945D1C0E94A20F6091D0
:1007500018027091190280911A0290911B020E9456
:10076000A20F80911C0390911D030E94260E6091A0
:1007700028017091290180912A0190912B010E94FA
:10078000A20F60E070E080E89FE30E94A20F6091FA
:1007900011017091120180911301909114010E9436
:1007A000A20F60911C0270911D0280911E02909117
:1007B0001F020E94A20F80912702909128020E949E
:1007C000260E80912C0190912D010E94260E809181
:1007D0002502909126020E94260E8091200290917F
:1007E00021020E94260E8091290290912A020E94E5
:1007F000260E6091D6027091D7028091D802909116
:10080000D9020E94630E6091DA027091DB0280913E
:10081000DC029091DD020E94630E6091DE02709115
:10082000DF028091E0029091E1020E94630E6091EC
:100830003B0270913C0280913D0290913E020E94E9
:10084000630E6091E6027091E7028091E802909158
:10085000E9020E94630E80910A0390E00E94260E36
:1008600080912301909124010E94260E80911D0108
:1008700090E00E94260E8091090390E00E94260ECF
:10088000809109038823B1F18091070390910803B7
:100890000E94260EE0910703F0910803EE0FFF1F60
:1008A000EE58FD4F808191810E94260EE091070352
:1008B000F0910803EE0FFF1FEC55FD4F80819181F1
:1008C0000E94260EE0910703F0910803EE0FFF1F30
:1008D000E05CFD4F808191810E94260EE09107032C
:1008E000F0910803EE0FFF1FE054FE4F80819181CD
:1008F0000E94260E1F910F910C94BF0D6BE871E0C2
:1009000081E00C949C0E1F920F920FB60F9211244F
:100910002F933F934F935F936F937F938F939F9307
:10092000AF93BF93EF93FF938BEB93E00E94EC00A8
:10093000FF91EF91BF91AF919F918F917F916F91B7
:100940005F914F913F912F910F900FBE0F901F908D
:1009500018951F920F920FB60F9211242F938F9319
:100960009F93EF93FF93E091CB03F091CC038081B1
:10097000E091D103F091D20382FD12C09081809169
:10098000D4038F5F8F732091D503821751F0E091CC
:10099000D403F0E0E554FC4F958F8093D40301C05D
:1009A0008081FF91EF919F918F912F910F900FBEBA
:1009B0000F901F901895CF93DF93282F30E0F90107
:1009C000EE56FF4F8491F901E852FF4FD491F9019F
:1009D000EC53FF4FC491CC2391F081110E94800110
:1009E000EC2FF0E0EE0FFF1FE654FF4FA591B491FE
:1009F000EC91ED2381E090E021F480E002C080E002
:100A000090E0DF91CF9108951F93CF93DF93282F2C
:100A100030E0F901EE56FF4F8491F901E852FF4FA3
:100A2000D491F901EC53FF4FC491CC23C9F0162F98
:100A300081110E948001EC2FF0E0EE0FFF1FE055C6
:100A4000FF4FA591B4918FB7F894111105C09C91F7
:100A5000ED2FE095E92302C0EC91ED2BEC938FBFD5
:100A6000DF91CF911F910895CF93DF9390E0FC0128
:100A7000E852FF4F2491FC01EC53FF4F84918823EF
:100A800061F190E0880F991FFC01EA55FF4FC59175
:100A9000D491FC01E055FF4FA591B491611109C0BB
:100AA0009FB7F8948881209582238883EC912E2328
:100AB0000BC0623061F49FB7F8943881822F809523
:100AC00083238883EC912E2B2C939FBF06C08FB776
:100AD000F894E8812E2B28838FBFDF91CF91089562
:100AE0008E3008F08E5087702091000190E4299F8D
:100AF00090011124822B80937C0080917A00806485
:100B000080937A0080917A0086FDFCCF80917800F6
:100B10002091790090E0922B08953FB7F89480914E
:100B20005A0390915B03A0915C03B0915D0326B5DD
:100B3000A89B05C02F3F19F00196A11DB11D3FBF15
:100B4000BA2FA92F982F8827820F911DA11DB11DA3
:100B5000BC01CD0142E0660F771F881F991F4A959F
:100B6000D1F708952FB7F894609156037091570309
:100B700080915803909159032FBF08951F920F92AF
:100B80000FB60F9211242F933F938F939F93AF93A0
:100B9000BF938091560390915703A0915803B09151
:100BA00059033091550323E0230F2D3720F401968C
:100BB000A11DB11D05C026E8230F0296A11DB11D80
:100BC000209355038093560390935703A0935803A3
:100BD000B093590380915A0390915B03A0915C03F9
:100BE000B0915D030196A11DB11D80935A039093AE
:100BF0005B03A0935C03B0935D03BF91AF919F91A2
:100C00008F913F912F910F900FBE0F901F901895CD
:100C10001F920F920FB60F9211242F933F934F9371
:100C20005F936F937F938F939F93AF93BF93EF9354
:100C3000FF93E091F401F091F5010995FF91EF9197
:100C4000BF91AF919F918F917F916F915F914F91E4
:100C50003F912F910F900FBE0F901F901895CF933B
:100C60008091F2019091F3019C012F5F3F4F3093EF
:100C7000F3012093F2010E941B1DC82F8091F20105
:100C80009091F3019C012F5F3F4F3093F30120932C
:100C9000F2010E941B1D2C2F30E0322F2227A901C8
:100CA000480F511DCA01CF910895CF93DF93109241
:100CB000F3011092F2010E942F069093100180938D
:100CC0000F010E942F0690930E0180930D010E9448
:100CD0002F0621E0181619060CF020E020931D01C4
:100CE0000E942F06BC01990F880B990B0E94FE1BD6
:100CF0006093090170930A0180930B0190930C019A
:100D00000E942F06BC01990F880B990B0E94FE1BB5
:100D10006093050170930601809307019093080189
:100D20000E942F06EC0120E030E04AE754E4609195
:100D3000090170910A0180910B0190910C010E94B0
:100D4000CF1D6093090170930A0180930B0190936A
:100D50000C0120E030E04AE754E460910501709115
:100D6000060180910701909108010E94CF1D6093B8
:100D70000501709306018093070190930801BE015D
:100D8000DD0F880B990B0E94FE1B20E030E04AE744
:100D900054E40E94CF1D609301017093020180937F
:100DA00003019093040183E00E94870E80910F015C
:100DB000909110010E94260E80910D0190910E01DC
:100DC0000E94260E20E030E04AE754E460910901D9
:100DD00070910A0180910B0190910C010E945D1CA1
:100DE0000E94411ECB010E94260E20E030E04AE71F
:100DF00054E4609105017091060180910701909182
:100E000008010E945D1C0E94411ECB010E94260E1B
:100E100020E030E04AE754E4609101017091020162
:100E200080910301909104010E945D1C0E94411E6B
:100E3000CB010E94260EDF91CF910C94BF0DCF9372
:100E4000DF93E2E0F3E08BE292E0CAEED2E046ED1F
:100E500052E01192DC011D921D921D921D92CD0156
:100E60001992199219921992DA011D921D921D92EE
:100E70001D92AD01B3E0E730FB0759F7DF91CF9149
:100E800008958093200290932102682F89E00E94A8
:100E900004058091200290912102019789F480E05D
:100EA00090E0ACE8B2EC8093AF039093B003A093D2
:100EB000B103B093B20380E090E0A0E2B2E410C0CE
:100EC00080E090E0A0EAB1E48093AF039093B00398
:100ED000A093B103B093B20380E090E0A8ECB3E438
:100EE0008093B3039093B403A093B503B093B60378
:100EF0001092F6011092F7011092F8011092F90188
:100F0000089580932C0190932D0190913F029111AF
:100F100004C0682F8BE00C940405089560912002B2
:100F200070912102072E000C880B990B0E94FE1B6A
:100F300026E636E646E65FE30E94771E1816ACF416
:100F400080910903882389F0809111019091120109
:100F5000A0911301B091140180931F01909320017F
:100F6000A0932101B09322011CC021E53AED4BEB87
:100F70005FE36091110170911201809113019091D2
:100F800014010E945D1C2FE834EE4DE051E40E94F4
:100F9000621D60931F017093200180932101909343
:100FA0002201209128013091290140912A0150917C
:100FB0002B0160911F01709120018091210190917E
:100FC00022010E94CF1D60931F0170932001809326
:100FD00021019093220108958F929F92AF92BF9228
:100FE000CF92DF92EF92FF920F931F93CF93DF93F5
:100FF0006B017C018090B3039090B403A090B50383
:10100000B090B6030091AF031091B003D091B1033B
:10101000C091B20398014D2F5C2F0E94F71B87FDF2
:1010200003C08601DE2DCF2D9401A501B601C701B5
:101030000E94771E18161CF48401DA2DCB2DC801EE
:10104000AD2FBC2F8093B7039093B803A093B9033F
:10105000B093BA0386E696E6A6EEBFE38093190145
:1010600090931A01A0931B01B0931C018CEB94E7A1
:10107000A3E1BCE38093150190931601A09317019F
:10108000B093180180E090E0A0E8B0E48093FF0105
:1010900090930002A0930102B093020210921702F3
:1010A00080911F0190912001A0912101B091220116
:1010B00080930B0290930C02A0930D02B0930E024A
:1010C00080930F0290931002A0931102B09312022A
:1010D00080E89FE4A3ECB7EC8093030290930402B2
:1010E000A0930502B0930602809307029093080232
:1010F000A0930902B0930A0220E030E046E153E4F5
:10110000B8018D2F9C2F0E94F71B87FF14C080E031
:1011100090E0A6E9B3E48093190190931A01A0939B
:101120001B01B0931C011092150110921601109230
:1011300017011092180180910903811114C080E0F9
:1011400090E0A6E9B3E48093190190931A01A0936B
:101150001B01B0931C011092150110921601109200
:101160001701109218018091050190910601A0913C
:101170000701B09108018093280190932901A09361
:101180002A01B0932B01DF91CF911F910F91FF9016
:10119000EF90DF90CF90BF90AF909F908F90089589
:1011A00081E090E00E94810781E080930B038093AF
:1011B000090310920A038093270108950E941F07D4
:1011C00080E090E00E94410781E090E00E9481076A
:1011D000109208031092070310920903109227013E
:1011E0006091A8027091A902072E000C880B990B40
:1011F0000E94FE1B0C94EC07CF93DF9366E070E037
:101200007093730260937202E4E0F0E0F093A50241
:10121000E093A4028DE290E090934102809340021B
:101220001092C1011092C00181E090E0909375028C
:10123000809374021092A7021092A60210924302A9
:10124000109242021092C3011092C20110927702D2
:1012500010927602A2E3B0E0B093A902A093A80294
:1012600023E630E030934502209344021092C501FA
:101270001092C40142E050E050937902409378020A
:101280005093AB024093AA0210924702109246027A
:101290001092C7011092C60150937B0240937A02CC
:1012A000C7E0D0E0D093AD02C093AC0210924902E7
:1012B000109248021092C9011092C80190937D02C9
:1012C00080937C029093AF028093AE0210924B0207
:1012D00010924A021092CB011092CA0110927F0222
:1012E00010927E02B093B102A093B00230934D02EF
:1012F00020934C021092CD011092CC019093810268
:10130000809380021092B3021092B20290934F0227
:1013100080934E021092CF011092CE011092830260
:10132000109282022BEF3FEF3093B5022093B4026C
:1013300090935102809350021092D1011092D001EB
:1013400023E030E030938502209384021092B702AC
:101350001092B602AEE1B0E0B0935302A0935202F5
:101360001092D3011092D20190938702809386024B
:101370009093B9028093B8029093550280935402DF
:101380001092D5011092D4015093890240938802A3
:101390003093BB022093BA02109257021092560269
:1013A0001092D7011092D60130938B0220938A02BB
:1013B0001092BD021092BC0245E050E050935902D9
:1013C000409358021092D9011092D80190938D0247
:1013D00080938C021092BF021092BE0210925B02A8
:1013E00010925A021092DB011092DA0110928F02D1
:1013F00010928E02ACE3B0E0B093C102A093C002A1
:1014000090935D0280935C021092DD011092DC01EA
:10141000F0939102E09390029093C3028093C202F2
:1014200010925F0210925E021092DF011092DE01B4
:1014300030939302209392029093C5028093C4024A
:101440008AE590E090936102809360021092E1013E
:101450001092E00181E080931D0181E190E0909382
:10146000080380930703509395024093940270936E
:10147000C7026093C6021092630210926202109239
:10148000E3011092E20180E090E0A8E4B2E48093EE
:10149000A7039093A803A093A903B093AA03BC0148
:1014A000CD010E94EC0781E02091C6023091C70275
:1014B000232B09F480E080931D01DF91CF910895E3
:1014C0001092F3011092F20180910F01909110019E
:1014D0000E94970280910D0190910E010E94970247
:1014E00080911D0190E00E94970220E030E04AE7E1
:1014F00054E46091090170910A0180910B0190916F
:101500000C010E945D1C0E94411ECB010E949702AB
:1015100020E030E04AE754E4609105017091060153
:1015200080910701909108010E945D1C0E94411E5C
:10153000CB010E94970220E030E04AE754E460913A
:1015400001017091020180910301909104010E94B8
:101550005D1C0E94411ECB010C949702CF92DF923A
:10156000EF92FF920F931F93CF93DF9384E190E06C
:101570009093F3018093F20185E090E00E9497023E
:1015800080E090E00E949702C2E7D2E084EAC82E91
:1015900082E0D82E90E4E92E92E0F92E00EC11E0E2
:1015A000899199910E949702F601819191916F0121
:1015B0000E949702F701819191917F010E94970209
:1015C000F801819191918F010E949702F2E0C43A53
:1015D000DF0731F7DF91CF911F910F91FF90EF90CF
:1015E000DF90CF900895AF92BF92CF92DF92EF92AB
:1015F000FF920F931F93CF93DF93CDB7DEB764971E
:101600000FB6F894DEBF0FBECDBF8091A30688232E
:1016100009F44DC10E94010D8C010E94010D5C0175
:10162000CE0101966C01E12CF12CEA14FB0454F478
:101630000E94010DF601819391936F01FFEFEF1A64
:10164000FF0AF3CF0E30110508F031C1F801E55C57
:10165000FF4F0C94811E69817A81072E000C880B44
:10166000990B0E94FE1B20E030E04AE754E40E9400
:10167000CF1D6093090170930A0180930B01909331
:101680000C016B817C81072E000C880B990B0E944A
:10169000FE1B20E030E04AE754E40E94CF1D609337
:1016A00005017093060180930701909308016D81F5
:1016B0007E81072E000C880B990B0E94FE1B20E0F8
:1016C00030E04AE754E40E94CF1D6093010170931B
:1016D000020180930301909304010E94600AE7C015
:1016E00081E029813A812130310509F080E0809341
:1016F0001D0190E09093C7028093C602D8C081E09C
:1017000029813A812130310509F080E080931E0162
:10171000CEC081E029813A812130310509F080E095
:1017200080932402C4C081E029813A8121303105AF
:1017300009F080E08093FA01BAC081E029813A8102
:101740002130310509F080E08093230210922202BB
:10175000AEC080912302882309F4A9C081E0809360
:101760002202A5C00E94AE0AA2C00E94DE086981C2
:101770007A817093A9026093A8027093B10260937A
:10178000B002072E000C880B990B0E94FE1B0E94D2
:10179000EC078B819C819093B5028093B4028D817C
:1017A0009E8190935302809352028F8198859093EB
:1017B00059028093580289859A859093C10280933B
:1017C000C0028B859C85909361028093600281E0CA
:1017D0002D853E852130310509F080E0282F30E04D
:1017E0003093C7022093C60280931D018F8598898C
:1017F0009093410280934002092E000CAA0BBB0B70
:101800008093230190932401A0932501B093260196
:101810004EC069817A81072E000C880B990B0E94BB
:10182000FE1B6093AF037093B0038093B10390935A
:10183000B2036B817C81072E000C880B990B0E94F0
:10184000FE1B6093B3037093B4038093B50390932E
:10185000B6036D817E81072E000C880B990B0E94C8
:10186000FE1B0E94EC0723C089819A8190931D037F
:1018700080931C031CC089819A81892B19F41092D2
:10188000540315C01092BF011092BE011092BD0109
:101890001092BC011092BB011092BA0181E08093BA
:1018A000540305C00E94D00802C00E94DE08809147
:1018B0005804811115C08AE00E94870E64960FB605
:1018C000F894DEBF0FBECDBFDF91CF911F910F9176
:1018D000FF90EF90DF90CF90BF90AF900C94BF0D32
:1018E00064960FB6F894DEBF0FBECDBFDF91CF91E7
:1018F0001F910F91FF90EF90DF90CF90BF90AF902E
:101900000895AC0110925D042091AD068091AC0663
:10191000FA01BF01641B750B91E030915D04321335
:1019200090E03081321719F030935D0404C09923A0
:10193000D9F310925D043191311104C09111E9CFB6
:10194000CB0108953813E5CFF9CFDC01ED91FC917F
:101950000190F081E02D0994CF92DF92EF92FF92F7
:101960000F931F93CF93DF936C017A018B01C0E03B
:10197000D0E0CE15DF0589F0D8016D918D01D6013B
:10198000ED91FC910190F081E02DC6010995892B24
:1019900011F47E0102C02196ECCFC701DF91CF91F7
:1019A0001F910F91FF90EF90DF90CF9008950E94CC
:1019B0008E1EEBEBF3E0A089B18982E08C93A485C5
:1019C000B5851C92A685B78580E18C93108EA4897D
:1019D000B58986E08C93A289B3898C9180618C93C0
:1019E000A289B3898C9188608C93A289B3898C91E8
:1019F00080688C930288F389E02D80818F7D8083BD
:101A000008950F931F93CF93DF938091A1068823AE
:101A100009F44CC0813031F482E08093A106C1E624
:101A2000D4E002C0C0E0D0E08091A206882351F14A
:101A3000209721F4C091A606D091A7068E01CE0171
:101A40000E94810C892B29F42196F8018081811153
:101A5000F5CFF8018081882331F1C8010E94810C03
:101A6000F801E80FF91F8081882311F01082319668
:101A7000F093A706E093A606902F812F9093A406DB
:101A80008093A5068091A4069091A506009771F019
:101A900021E02093A2062093A306DF91CF911F910E
:101AA0000F910C94D11B90E080E0E8CF1092A30638
:101AB00080E090E0DF91CF911F910F9108958F9278
:101AC0009F92AF92BF92CF92DF92EF92FF921F93BD
:101AD000CF93DF93C2E3D0E011E0F0905E036F2D6F
:101AE0008DE00E940405F126F0925E030E948D05B0
:101AF0004B015C0182E3C82ED12CE12CF12C0E9419
:101B00008D05DC01CB0188199909AA09BB09883E1A
:101B10009340A105B10558F021E0C21AD108E108AF
:101B2000F10888EE880E83E0981EA11CB11CC11438
:101B3000D104E104F10419F7219779F6DF91CF91EF
:101B40001F91FF90EF90DF90CF90BF90AF909F904C
:101B50008F9008956115710579F0FB0101900020C7
:101B6000E9F73197AF01461B570BDC01ED91FC9172
:101B70000280F381E02D099480E090E00895809147
:101B800058048823A1F06091AB068091A90690913A
:101B9000AA060E94A50C80916004882341F06BE5A1
:101BA00071E08091A9069091AA060E94AA0D109258
:101BB0005F041092580480E008954F925F926F92F4
:101BC0007F92EF92FF920F931F93CF93DF93CDB746
:101BD000DEB7A1970FB6F894DEBF0FBECDBF7C0174
:101BE000FA01CB0119A2223008F42AE08E010F5D20
:101BF0001F4F422E512C612C712CBF01A301920169
:101C00000E94311DF901CA01015011096A3014F412
:101C1000605D01C0695CD8016C93232B242B252BBC
:101C200061F7B801C7010E94AA0DA1960FB6F894FA
:101C3000DEBF0FBECDBFDF91CF911F910F91FF90FF
:101C4000EF907F906F905F904F900895CF92DF92CA
:101C5000EF92FF92CF93DF9320915804222361F1FA
:101C60006C016091AC068091A9069091AA060E9431
:101C7000A50CC091A906D091AA060D2C000CEE0867
:101C8000FF08F7FE0DC06DE2CE010E94A50C4427AF
:101C90005527BA014C195D096E097F092AE003C076
:101CA0002AE0B701A601CE01DF91CF91FF90EF901E
:101CB000DF90CF900C94DD0DDF91CF91FF90EF90EE
:101CC000DF90CF900895CF92DF92EF92FF92209114
:101CD00058042223B9F06B017C016091AC0680911D
:101CE000A9069091AA060E94A50C2AE0B701A601B8
:101CF0008091A9069091AA06FF90EF90DF90CF9077
:101D00000C94DD0DFF90EF90DF90CF9008959091AF
:101D10005804911110C091E09093580490935F047F
:101D2000482F50E060E070E02AE08091A906909191
:101D3000AA060C94DD0D0895CF93DF93909158047B
:101D400091111AC0EB010E94870E809158048823DC
:101D500079F06091AC068091A9069091AA060E9444
:101D6000A50CBE018091A9069091AA060E94AA0D19
:101D7000DF91CF910C94BF0D80E0DF91CF9108955A
:101D80004F925F926F927F928F929F92AF92BF928B
:101D9000CF92DF92EF92FF92CF93DF93EC016A0133
:101DA0007B01B22E9A01AB01C701B6010E947C1ED5
:101DB000882319F06DEA71E027C026013701E89405
:101DC00077F82FEF3FEF4FE75FE7C301B2010E94C3
:101DD0007C1E81110DC02FEF3FEF4FE75FE7C3017E
:101DE000B2010E94F71B18161CF461EB71E00CC0E5
:101DF0002FEF3FEF4FE75FE4C701B6010E94771E68
:101E000018169CF465EB71E0CE01DF91CF91FF9045
:101E1000EF90DF90CF90BF90AF909F908F907F908A
:101E20006F905F904F900C94AA0D2FEF3FEF4FE70C
:101E30005FECC701B6010E94F71B87FDE3CF20E0EE
:101E400030E0A901C701B6010E94F71B87FF0AC055
:101E50006DE2CE010E94A50C4C01F7FAF094F7F860
:101E6000F09402C0812C912CA12C60E070E080E005
:101E70009FE3AB1441F020E030E040E251E40E94E7
:101E8000CF1DA394F6CF9B01AC01C701B6010E9400
:101E9000631D2B013C010E94481E6B017C010E94C6
:101EA000FC1B9B01AC01C301B2010E94621D2B010E
:101EB0003C012AE0B701A601CE010E94DD0D7C01A4
:101EC000E80CF91CBB2031F06EE2CE010E94A50C9B
:101ED000E80EF91EDB2CDD2029F120E030E040E2A5
:101EE00051E4C301B2010E945D1C2B013C010E9420
:101EF000481E4B01A12CB12C2AE0B501A401CE0152
:101F00000E94DD0DE80EF91EC501B4010E94FC1B04
:101F10009B01AC01C301B2010E94621D2B013C0177
:101F2000DA94D9CFC701DF91CF91FF90EF90DF9086
:101F3000CF90BF90AF909F908F907F906F905F9069
:101F40004F900895CF92DF92EF92FF922091580424
:101F50002223B9F06B017C016091AC068091A90647
:101F60009091AA060E94A50C22E0B701A6018091DB
:101F7000A9069091AA06FF90EF90DF90CF900C9465
:101F8000C00EFF90EF90DF90CF900895CF92DF9238
:101F9000EF92FF920F931F93CF93DF931F92CDB7D2
:101FA000DEB76B017C0109EA16E06091AC06F8012E
:101FB0008081918149830E94A50C2981B701A601E6
:101FC000F801808191810F90DF91CF911F910F9146
:101FD000FF90EF90DF90CF900C94C00ECF93DF93E3
:101FE00000D000D000D0CDB7DEB7789484B5826041
:101FF00084BD84B5816084BD85B5826085BD85B5AD
:10200000816085BD80916E00816080936E0010922A
:1020100081008091810082608093810080918100A5
:102020008160809381008091800081608093800036
:102030008091B10084608093B1008091B000816094
:102040008093B00080917A00846080937A008091C0
:102050007A00826080937A0080917A008160809318
:102060007A0080917A00806880937A001092C10093
:102070001092A3031092A4031092A5031092A6033A
:102080001092610310926203109263031092640332
:102090000E94B2056B017C014B015C0108EB800ED4
:1020A0000BE0901EA11CB11C0E94B2056C157D05B1
:1020B0008E059F0528F086169706A806B906A0F794
:1020C0008BEB93E09093A2038093A1030E94D90C21
:1020D0000E94B2056093610370936203809363036F
:1020E000909364036CE471E08091A1039091A2034A
:1020F0000E94AA0D0E94B2056B017C014B015C019C
:102100001AE0810E911CA11CB11C0E94B2056C1535
:102110007D058E059F0528F086169706A806B90648
:10212000A0F711E010937503109200011092FE02C7
:102130001092FF0210920003109201031092BF014F
:102140001092BE011092BD011092BC011092BB0111
:102150001092BA0180E18093810010928000109368
:10216000340380E49FE19093330380933203909390
:1021700087008093860081E18093810089EA91E065
:102180009093F5018093F40110936F000E94D90C95
:1021900061E08DE00E94340560E08CE00E9434052F
:1021A00061E08BE00E94340581E090E00E948107AD
:1021B00061E089E00E94340580E090E00E944107E0
:1021C00060E08AE00E943405109360048EE794E09A
:1021D0009093AF068093AE0685E596E09093B506A2
:1021E0008093B40686EB92E09093BB068093BA0688
:1021F00088E093E09093BF068093BE0683EF9AE059
:102200009093C3068093C2066EE571E080E00E9461
:102210009C0E1092F3011092F2010E942F068C0185
:102220000E942F0620910F013091100120173107D5
:1022300051F411E020910D0130910E01281739075A
:1022400019F410E001C011E00E942F06019721F45B
:1022500081E080931D0103C010921D0111E00E94D6
:102260002F06BC01990F880B990B0E94FE1B20E0E2
:1022700030E04AE754E40E94CF1D6B017C012DEC55
:102280003CEC4CEC5DE30E94771E87FD13C020E020
:1022900030E040E251E4C701B6010E94F71B181676
:1022A0004CF0C0920901D0920A01E0920B01F09229
:1022B0000C010DC080E090E0A0E8BFE3809309012D
:1022C00090930A01A0930B01B0930C0111E00E94BE
:1022D0002F06BC01990F880B990B0E94FE1B20E072
:1022E00030E04AE754E40E94CF1D6B017C012DECE5
:1022F0003CEC4CEC5DE30E94771E87FD13C020E0B0
:1023000030E040E251E4C701B6010E94F71B181605
:102310004CF0C0920501D0920601E0920701F092C4
:1023200008010DC080E090E0A0E8BFE380930501C4
:1023300090930601A0930701B093080111E00E9459
:102340002F06BC01990F880B990B0E94FE1B20E001
:1023500030E04AE754E40E94CF1D6B017C012DEC74
:102360003CEC4CEC5DE30E94771E87FD15C020E03D
:1023700030E040E251E4C701B6010E94F71B181695
:102380005CF0C0920101D0920201E0920301F09250
:102390000401112379F00CC080E090E0A0E8BFE3D5
:1023A0008093010190930201A0930301B093040173
:1023B0000E94600AA2E74A2EA2E05A2EB4EACB2E6F
:1023C000B2E0DB2E10E4E12E12E0F12E00EC11E081
:1023D000B801C7019601F20111921192D9011D9223
:1023E0001D929D01DC011D921D92CD01DB011D920C
:1023F0001D92BD01B2E0E43AFB0771F70E94FC08B0
:1024000084E190E09093F3018093F2010E942F0603
:10241000059761F50E942F060E942F063C010E943D
:102420002F064C010E942F065C010E942F06F2012C
:10243000219131912F0126153705C1F4D6018D92D6
:102440009D926D01F701A192B1927F01D8018D9308
:102450009D938D01B4EA4B16B2E05B06E9F68091DC
:10246000940290919502059709F46EC10E94FC08B0
:102470000E94600A0E94AE0A0E941F071092080381
:1024800010920703109223021092480310924903FE
:1024900010924A031092FA0110920B0380911D01D1
:1024A000811106C081E08093090380930B0302C071
:1024B00010920903FF24F39466246394712CF0E8CE
:1024C0002F2EF6E93F2EF8E94F2E512C0E94B2052F
:1024D000672B682B692B41F40E94B20562307105AD
:1024E0008105910508F41DC10E94B2056093500357
:1024F00070935103809352039093530300914C03C4
:1025000010914D0320914E0330914F0360177107D6
:102510008207930740F460934C0370934D038093BC
:102520004E0390934F0300914C0310914D03209163
:102530004E0330914F035B016C01A01AB10AC20A2D
:10254000D30A960185010A3F11052105310508F4DA
:10255000E8C060934C0370934D0380934E039093B7
:102560004F0304EF11E020E030E000936D0310937F
:102570006E0320936F0330937003109271031092D7
:10258000720310927303109274038091650390910B
:102590006603A0916703B0916803809369039093E9
:1025A0006A03A0936B03B0936C030E94B20560931F
:1025B00065037093660380936703909368030E949A
:1025C000B2056093610370936203809363039093F9
:1025D00064030E94B2054B015C0167E771E08091E2
:1025E000A1039091A2030E94AA0D2AE041E050E0CD
:1025F00060E070E08091A1039091A2030E94DD0D44
:102600006EE771E08091A1039091A2030E94AA0D50
:102610002AE0B501A4018091A1039091A2030E9438
:10262000DD0D60E871E08091A1039091A2030E940A
:10263000AA0D8091650390916603A0916703B09104
:102640006803B501A401481B590B6A0B7B0B2AE0F8
:102650008091A1039091A2030E94DD0D60E871E0DA
:102660008091A1039091A2030E94AA0D409165035D
:1026700050916603609167037091680380916903CC
:1026800090916A03A0916B03B0916C03481B590BA6
:102690006A0B7B0B2AE08091A1039091A2030E9418
:1026A000DD0D62E871E08091A1039091A2030E9488
:1026B000AA0D0E94B205AB01BC012AE08091A103E2
:1026C0009091A2030E94DD0D0091A1031091A2033D
:1026D00064E871E0C8010E94AA0D6BE571E0C801D1
:1026E0000E94AA0D0E94B2054B015C019B01AC0146
:1026F0002E5F3F4F4F4F5F4F29833A834B835C835D
:102700000E94B205681579058A059B05E8F50E94C7
:10271000B20560936503709366038093670390939B
:10272000680380915F0481113AC08091A90690915D
:10273000AA06DC01ED91FC910084F185E02D09955C
:10274000892B09F011C32BC06091A8027091A902D6
:10275000072E000C880B990B0E94FE1B6093A703A9
:102760007093A8038093A9039093AA030E94EC0797
:1027700081E02091C6023091C7022130310509F075
:1027800080E080931D0178CE29813A814B815C8164
:10279000261737074807590708F0B2CFB8CF8091FE
:1027A0002E0390912F03A0913003B091310306972F
:1027B000A105B10570F18091350390913603019622
:1027C000909336038093350380E00E947005BC012E
:1027D000990F880B990B0E94FE1B9B01AC01609125
:1027E0003703709138038091390390913A030E9426
:1027F000631D60933703709338038093390390937C
:102800003A0310922E0310922F031092300310926D
:10281000310380912A0390912B03A0912C03B09156
:102820002D03893E9340A105B10508F45AC087E005
:102830000E947005BC01990F880B990B0E94FE1B2A
:1028400020E030E040E651E40E945D1C20E030E0F2
:102850004AE754E40E94CF1D4B015C016093FB01E9
:102860007093FC018093FD019093FE0120E030E025
:1028700040E251E40E94771E18160CF03EC320E09F
:1028800030E040E551E4C501B4010E94F71B87FF29
:1028900034C3F0924B038091FA0181111AC08091E8
:1028A00048038823B1F080912002909121021816EC
:1028B00019067CF08091F6019091F701A091F80142
:1028C000B091F90181329F4BA240B10510F0F09216
:1028D0004A0310922A0310922B0310922C03109299
:1028E0002D038091260390912703A0912803B09196
:1028F0002903893E9340A105B10508F46AC080917F
:102900000703909108030E9709F05BC080911702AE
:10291000811157C020910F02309110024091110295
:102920005091120220930B0230930C0240930D023F
:1029300050930E0260911F0170912001809121013E
:102940009091220160930F02709310028093110204
:1029500090931202A0900702B0900802C090090262
:10296000D0900A02A982BA82CB82DC82A0920302B2
:10297000B0920402C0920502D09206020E94621D2B
:102980004B015C0160930702709308028093090277
:1029900090930A0229813A814B815C810E94F71B46
:1029A00087FF0FC02091FF0130910002409101028A
:1029B00050910202C501B4010E94F71B87FDF092FD
:1029C00017021092260310922703109228031092E8
:1029D00029038091220390912303A0912403B091B5
:1029E0002503C397A105B10508F45EC06091FE02FE
:1029F0007091FF0280910003909101030E94FC1BE3
:102A000020E030E04AE754E40E94CF1D60931302B7
:102A1000709314028093150290931602609135030F
:102A200070913603072E000C880B990B0E94FE1B39
:102A30009B01AC0160913703709138038091390399
:102A400090913A030E94CF1D22EA35E44EE450E40F
:102A50000E945D1C28EB3EE145E05EE30E945D1CA8
:102A600020E030E048E452E40E94621D60931101CE
:102A70007093120180931301909314010E948E07AA
:102A800010923603109235031092370310923803D8
:102A90001092390310923A031092220310922303EA
:102AA000109224031092250380911E0390911F031E
:102AB000A0912003B0912103C397A105B10508F4AB
:102AC0003EC18091200290912102181619066CF0E7
:102AD00004E610E020E030E00093AB031093AC0379
:102AE0002093AD033093AE030CC024E130E040E00E
:102AF00050E02093AB033093AC034093AD0350936D
:102B0000AE031092430310924403109245031092B7
:102B1000460310923F03109240031092410310921B
:102B2000420310923B0310923C0310923D0310921B
:102B30003E0310921C0210921D0210921E0210926F
:102B40001F02A0901F01B0902001C0902101D090E1
:102B50002201A982BA82CB82DC8220E030E040EA06
:102B600051E46091B3037091B4038091B5039091E7
:102B7000B6030E94631D9B01AC01C601B5010E9412
:102B8000771E18168CF410921403109215031092ED
:102B90001603109217031092180210921902109245
:102BA0001A0210921B02C3C029813A814B815C81B9
:102BB0006091B7037091B8038091B9039091BA0303
:102BC0000E94621D4B015C016093430370934403B8
:102BD000809345039093460320E030E0A90169818A
:102BE0007A818B819C810E94771E1816CCF480918B
:102BF00017028823A9F0A501940160911802709131
:102C0000190280911A0290911B020E94631D609329
:102C100018027093190280931A0290931B0208C045
:102C2000109218021092190210921A0210921B02AE
:102C30002091190130911A0140911B0150911C0102
:102C4000C501B4010E945D1C4B015C0160933F0310
:102C500070934003809341039093420320911501A8
:102C6000309116014091170150911801609118029E
:102C70007091190280911A0290911B020E945D1CB2
:102C80009B01AC0160933B0370933C0380933D0335
:102C900090933E03C501B4010E94631D8B01982EE1
:102CA000A92ECB01A92DBA2D80931C0290931D0251
:102CB000A0931E02B0931F0220E030E046E953E4E7
:102CC000B801892D9A2D0E94771E181634F400E061
:102CD00010E056E9952E63E4A62E6091AB03709147
:102CE000AC038091AD039091AE030E94FC1BB62E05
:102CF000C72ED82EE92E262F372F482F592FB8014F
:102D0000892D9A2D0E94F71B87FF04C00B2D1C2DC7
:102D10009D2CAE2CB801892D9A2D0E94481E6093DF
:102D20001403709315038093160390931703109266
:102D30001E0310921F031092200310922103809112
:102D40003F02882321F0709228026092270290911E
:102D50002402992309F447C41092280210922702F2
:102D6000882309F449C4CCC08091A9069091AA0691
:102D7000DC01ED91FC910084F185E02D0995811530
:102D800092400CF0B6C08091A9069091AA06DC0191
:102D9000ED91FC910084F185E02D09956C01A090E6
:102DA000A906B090AA06BA82A98200E010E00C152C
:102DB0001D0569F10E94B205A981BA8118966D932B
:102DC0007D938D939C931B97A981BA81ED91FC9182
:102DD00011970284F385E02DCD01099597FF1AC064
:102DE0000E94B205E981FA8180849184A284B3842F
:102DF000DC01CB0188199909AA09BB098480958057
:102E0000A680B78088159905AA05BB05E8F200E001
:102E100010E040C0F801EF55FB4F80830F5F1F4F5C
:102E2000C6CFF801EF55FB4F90811092A10680911B
:102E3000AD0621E030915E04381320E0981771F15F
:102E400090935E043091AB0680915A04E82FF0E035
:102E5000E85AFB4F931327C0211125C01186882300
:102E600029F0F1E0F093A10610925E0410925A044A
:102E70001092A5061092A4061092A7061092A6061C
:102E8000AA24A394A092A2068091A1068130A1F069
:102E90000F5F1F4F0C151D0521F643CC222381F235
:102EA00010925E04CFCF91878F5F80935A049091E8
:102EB0005C04891748F3DACF0E94010D809359040E
:102EC000823378F42091A306222359F0FC01FF27D6
:102ED000EE0FFF1FE055F94F0190F081E02D309784
:102EE00031F4E091AE06F091AF06309789F2099582
:102EF000CFCFC12C82E0D82E52CF10924B03CBCC37
:102F00007092260260922502E0903F02EE2021F0AE
:102F100070922A0260922902B0901E01B982BB20F1
:102F200029F010922A021092290209C0E11007C06C
:102F300088E00E94DB0490932A028093290210917A
:102F40004B03112329F070921D0360921C0304C0EF
:102F500010921D0310921C0380901403909015038F
:102F6000A0901603B0901703809118039091190355
:102F7000A0911A03B0911B0388169906AA06BB06F6
:102F800040F461E083E00E94340560E083E00E9449
:102F900004058091100390911103A0911203B09148
:102FA00013038D329140A105B10568F18091AB0307
:102FB0009091AC03A091AD03B091AE038815990533
:102FC000AA05BB0530F061E083E00E94340560E0B3
:102FD00007C0112341F061E083E00E94340561E005
:102FE00083E00E94040510921803109219031092B6
:102FF0001A0310921B0310921003109211031092E7
:10300000120310921303111108C061E083E00E94C3
:10301000340560E083E00E94040580910C039091E8
:103020000D03A0910E03B0910F0381359105A10509
:10303000B10508F4D4C280914A03882379F080E076
:1030400090E00E94410780E090E00E94810710928A
:103050004A03F0920B03F0920A03B9C2112309F458
:10306000B0C280910903811107C061E08DE00E9428
:103070000405F0925E03ABC280910B03882371F0CC
:103080001092080310920703109249030E941F0731
:1030900010920B0310924803109247038090FE0297
:1030A0009090FF02A0900003B0900103E2E0F3E0F3
:1030B00080E090E021912223C1F09C012A523D4FF3
:1030C00069019C0126513D4FD9014D915D916D9152
:1030D0007C9195018401041B150B260B370BD6013F
:1030E0000D931D932D933C93139704968431910572
:1030F00009F7C0900703D09008039601220F331FF1
:10310000F901EC55FD4F00811181F901EE58FD4F99
:103110000190F081E02DE730F10508F02AC2EC5C67
:10312000FF4F0C94811E0430110509F092C1205C00
:103130003D4FF90180819181092E000CAA0BBB0B38
:103140008093230190932401A0932501B09326013D
:1031500080C18091480381112EC06091B3037091AA
:10316000B4038091B5039091B6032D833E830E94F2
:10317000411E4B015C016091AF037091B0038091DF
:10318000B1039091B2030E94411E2D813E8106172A
:1031900017072CF0B401081519050CF4B801072E17
:1031A000000C880B990B2D833E830E94FE1B0E940E
:1031B000EC073E812D81205C3D4FD9016D917C91C2
:1031C0006336710529F4F092490310924803D1C186
:1031D0008090B7039090B803A090B903B090BA0361
:1031E000072E000C880B990B0E94FE1B69837A83C3
:1031F0008B839C83BEE0CB16D104C1F42DED34E269
:1032000046E25FE3C501B4010E945D1C27ED33EA8D
:103210004EE552E40E94631D4B015C0100E010E0AA
:1032200020EA30E409831A832B833C8320911F0119
:10323000309120014091210150912201C501B4013A
:103240000E94621D0E94411E9B0177FF04C022273D
:103250003327261B370BB901330F880B990B0E94BC
:10326000FE1B29813A814B815C810E94F71B181655
:103270000CF0A9CFF09248037CC10330110509F48A
:103280007FC00730110529F00230110509F071C126
:1032900013C0E11078C0F901E05CFD4F20912902D4
:1032A00030912A02808191812817390709F4D1C011
:1032B00019811111CEC05DC1EE2009F44FC080917B
:1032C0000603811115C020923B0230923C024092CD
:1032D0003D0250923E028092FA029092FB02A0922E
:1032E000FC02B092FD02F09206030E945F0D41C104
:1032F00060915E038DE00E94040580915E0321E0F1
:10330000822780935E034091E6025091E70260912C
:10331000E8027091E90280913B0290913C02A091F9
:103320003D02B0913E0284179507A607B70708F043
:1033300020C1109206031092E6021092E70210924A
:10334000E8021092E90210923B0210923C021092A5
:103350003D0210923E020E945F0D7BC0F901E05CCD
:10336000FD4F2091270230912802808191812817FA
:10337000390709F0FEC0809125029091260254C0C1
:10338000EE2009F440C080910603811113C0209201
:103390003B0230923C0240923D0250923E028092AB
:1033A000FA029092FB02A092FC02B092FD02F0920F
:1033B0000603DFC04091E6025091E7026091E80207
:1033C0007091E90280913B0290913C02A0913D02F4
:1033D000B0913E02481759076A077B0708F4C9C035
:1033E000109206031092E6021092E7021092E80291
:1033F0001092E90210923B0210923C0210923D02A0
:1034000010923E0226C0F901E05CFD4F209125029A
:1034100030912602808191812817390709F0A9C0CF
:103420008091270290912802019799F080912402BF
:1034300081110FC09EC00115110571F001301105F9
:1034400009F097C0205C3D4FD9018D919C910E945D
:103450008107F09249038DC0205C3D4FF9018081C6
:1034600091810E944107F5CFC801880F991F880FED
:10347000991FFC01E651FD4F80829182A282B382A6
:10348000FC01E55DFD4F1082118212821382F8016A
:10349000EE5FFC4FAA24A394A082DBCFA8014E5F6D
:1034A0005C4F6A01DA018C91000F111F000F111F90
:1034B0008823E1F0A801455D5D4FFA01808191818B
:1034C000A281B3810097A105B10561F5205C3D4F54
:1034D000F901A081B18128EE33E00E94871EDA0154
:1034E0006D937D938D939C93139743C0205C3D4FC8
:1034F000F901A081B181F801E55DFD4F28EE33E0CF
:103500000E94871E6083718382839383D801A651B2
:10351000BD4F8D929D92AD92BC921397E1E0DA017E
:10352000EC9327C0F801EA52FD4F80809180A28081
:10353000B38088169906AA06BB06D8F0D6011C925D
:103540001082118212821382FA0110821182128279
:1035500013827FCF012B39F4F0920B0310921D01DF
:103560000E94D00806C010920B03F0921D010E9429
:10357000DE0880912302882391F080912202882323
:1035800031F180910703909108030196909308030D
:103590008093070310924903109222020FC080917A
:1035A00049038823A1F080910703909108030196B5
:1035B00090930803809307031092490310924803E5
:1035C00006C080E090E00E944107F0920B03109249
:1035D0000C0310920D0310920E0310920F030E9421
:1035E00076010C94661281118BCC8CE00E94DB0476
:1035F00090932802809327028AE00E94DB04909334
:1036000026028093250280CC1092BE031092BD0347
:1036100088EE93E0A0E0B0E08093BF039093C003F6
:10362000A093C103B093C20382E391E09093BC03E3
:103630008093BB0385EC90E09093C8038093C7030D
:1036400084EC90E09093CA038093C90380EC90E0EF
:103650009093CC038093CB0381EC90E09093CE03C6
:103660008093CD0382EC90E09093D0038093CF03BE
:1036700086EC90E09093D2038093D1031092D40310
:103680001092D5031092D6031092D70310926503BF
:1036900010926603109267031092680310926903F8
:1036A00010926A0310926B0310926C0310926D03D8
:1036B00010926E0310926F031092700310927103B8
:1036C0001092720310927303109274031092AF065B
:1036D0001092AE068BEB93E09093AA068093A90616
:1036E000109260048CE28093AC068BE38093AB066F
:1036F0008FE28093AD0680E480935B048FE3809338
:103700005C0410925A041092A5061092A40610921E
:10371000A7061092A60681E08093A206E0EBF6E0F1
:103720001192119287E0E431F807D1F710925F040B
:1037300080E090E0ACE8B2E48093B7039093B803E4
:10374000A093B903B093BA0340E050E068EC73E48F
:103750004093B3035093B4036093B5037093B603DF
:1037600040E050E060EA71E44093AF035093B0034F
:103770006093B1037093B20344E650E060E070E000
:103780004093AB035093AC036093AD037093AE03CF
:103790008093A7039093A803A093A903B093AA03CF
:1037A0000895FC0188279927E89421912032E9F3B4
:1037B000293010F02E30C8F32B3241F02D3239F47D
:1037C000689404C00E94EF1B820F911D2191205329
:1037D0002A30C0F31EF4909581959F4F08957AE0AA
:1037E000979F902D879F802D910D112408950E9401
:1037F000391C08F481E00895E89409C097FB3EF471
:1038000090958095709561957F4F8F4F9F4F99232D
:10381000A9F0F92F96E9BB279395F69587957795AB
:103820006795B795F111F8CFFAF4BB0F11F460FF6B
:103830001BC06F5F7F4F8F4F9F4F16C0882311F0C3
:1038400096E911C0772321F09EE8872F762F05C0D7
:10385000662371F096E8862F70E060E02AF09A9572
:10386000660F771F881FDAF7880F9695879597F967
:103870000895990F0008550FAA0BE0E8FEEF161601
:103880001706E807F907C0F012161306E407F50754
:1038900098F0621B730B840B950B39F40A2661F0C8
:1038A000232B242B252B21F408950A2609F4A1406B
:1038B000A6958FEF811D811D08950E94701C0C94A8
:1038C000E11C0E94D31C38F00E94DA1C20F09523E2
:1038D00011F00C94CA1C0C94D01C11240C94151DCE
:1038E0000E94F21C70F3959FC1F3950F50E0551F95
:1038F000629FF001729FBB27F00DB11D639FAA2745
:10390000F00DB11DAA1F649F6627B00DA11D661F93
:10391000829F2227B00DA11D621F739FB00DA11DB4
:10392000621F839FA00D611D221F749F3327A00D6E
:10393000611D231F849F600D211D822F762F6A2F0A
:1039400011249F5750409AF0F1F088234AF0EE0F6F
:10395000FF1FBB1F661F771F881F91505040A9F79C
:103960009E3F510580F00C94CA1C0C94151D5F3FBE
:10397000E4F3983ED4F3869577956795B795F795D8
:10398000E7959F5FC1F7FE2B880F911D9695879550
:1039900097F9089597F99F6780E870E060E00895CF
:1039A0009FEF80EC089500240A9416161706180657
:1039B0000906089500240A94121613061406050633
:1039C0000895092E0394000C11F4882352F0BB0FC4
:1039D00040F4BF2B11F460FF04C06F5F7F4F8F4F27
:1039E0009F4F089557FD9058440F551F59F05F3F62
:1039F00071F04795880F97FB991F61F09F3F79F011
:103A000087950895121613061406551FF2CF469592
:103A1000F1DF08C0161617061806991FF1CF869514
:103A20007105610508940895E894BB2766277727F8
:103A3000CB0197F90895F999FECF92BD81BDF89A0F
:103A4000992780B50895262FF999FECF1FBA92BD08
:103A500081BD20BD0FB6F894FA9AF99A0FBE01966F
:103A60000895A1E21A2EAA1BBB1BFD010DC0AA1FBF
:103A7000BB1FEE1FFF1FA217B307E407F50720F0D7
:103A8000A21BB30BE40BF50B661F771F881F991F52
:103A90001A9469F760957095809590959B01AC019B
:103AA000BD01CF010895A29FB001B39FC001A39FA4
:103AB000700D811D1124911DB29F700D811D112467
:103AC000911D08955058BB27AA270E947A1D0C9477
:103AD000E11C0E94D31C38F00E94DA1C20F039F45B
:103AE0009F3F19F426F40C94D01C0EF4E095E7FBEC
:103AF0000C94CA1CE92F0E94F21C58F3BA176207F3
:103B000073078407950720F079F4A6F50C94141D2B
:103B10000EF4E0950B2EBA2FA02D0B01B9019001E8
:103B20000C01CA01A0011124FF27591B99F0593F2C
:103B300050F4503E68F11A16F040A22F232F342F74
:103B40004427585FF3CF469537952795A795F040C2
:103B50005395C9F77EF41F16BA0B620B730B840BD7
:103B6000BAF09150A1F0FF0FBB1F661F771F881F8F
:103B7000C2F70EC0BA0F621F731F841F48F48795E7
:103B800077956795B795F7959E3F08F0B0CF9395D9
:103B9000880F08F09927EE0F9795879508950E9452
:103BA000E31D0C94E11C0E94DA1C58F00E94D31C07
:103BB00040F029F45F3F29F00C94CA1C51110C9479
:103BC000151D0C94D01C0E94F21C68F39923B1F3CC
:103BD000552391F3951B550BBB27AA276217730733
:103BE000840738F09F5F5F4F220F331F441FAA1FC7
:103BF000A9F335D00E2E3AF0E0E832D09150504083
:103C0000E695001CCAF72BD0FE2F29D0660F771F30
:103C1000881FBB1F261737074807AB07B0E809F016
:103C2000BB0B802DBF01FF2793585F4F3AF09E3F9B
:103C3000510578F00C94CA1C0C94151D5F3FE4F3F9
:103C4000983ED4F3869577956795B795F7959F5FDE
:103C5000C9F7880F911D9695879597F90895E1E02A
:103C6000660F771F881FBB1F621773078407BA0789
:103C700020F0621B730B840BBA0BEE1F88F7E095E4
:103C800008950E94481E6894B1110C94151D089562
:103C90000E94FA1C88F09F5798F0B92F9927B751C6
:103CA000B0F0E1F0660F771F881F991F1AF0BA95E0
:103CB000C9F714C0B13091F00E94141DB1E008950D
:103CC0000C94141D672F782F8827B85F39F0B93FFF
:103CD000CCF3869577956795B395D9F73EF4909593
:103CE0008095709561957F4F8F4F9F4F08950E94EB
:103CF000391C08F48FEF08950E94391C880B990B2A
:103D00000895EE0FFF1F0590F491E02D09940E9495
:103D1000531DB7FF0895821B930B089581E090E037
:0A3D2000F8940C94931EF894FFCF62
:103D2A00010000803F0000803F0000803F05000244
:103D3A000000004842BC74133C6666E63F0101007D
:103D4A0000F0411E000000010000803F0100000059
:103D5A0000000D01AC0CA5005401D600B400C80047
:103D6A00640000000000A0410000C843564D4450C2
:103D7A00565F317C315F564D4450560D0A0043431D
:103D8A006F6E74726F6C6C657220686173207374E5
:103D9A0061727465642100564D4450455F003A32A1
:103DAA003A007C005F564D44504500436F6D6D618B
:103DBA006E6420776974686F7574206174746163C6
:103DCA006865642063616C6C6261636B006E616E2E
:0A3DDA0000696E66006F7666000057
:00000001FF
